{
  "_format": "hh-sol-artifact-1",
  "contractName": "CosmicWorlds",
  "sourceName": "contracts/CosmicWorlds.sol",
  "abi": [
    {
      "inputs": [],
      "stateMutability": "nonpayable",
      "type": "constructor"
    },
    {
      "inputs": [],
      "name": "ApprovalCallerNotOwnerNorApproved",
      "type": "error"
    },
    {
      "inputs": [],
      "name": "ApprovalQueryForNonexistentToken",
      "type": "error"
    },
    {
      "inputs": [],
      "name": "BalanceQueryForZeroAddress",
      "type": "error"
    },
    {
      "inputs": [],
      "name": "InvalidQueryRange",
      "type": "error"
    },
    {
      "inputs": [],
      "name": "MintERC2309QuantityExceedsLimit",
      "type": "error"
    },
    {
      "inputs": [],
      "name": "MintToZeroAddress",
      "type": "error"
    },
    {
      "inputs": [],
      "name": "MintZeroQuantity",
      "type": "error"
    },
    {
      "inputs": [],
      "name": "OwnerQueryForNonexistentToken",
      "type": "error"
    },
    {
      "inputs": [],
      "name": "OwnershipNotInitializedForExtraData",
      "type": "error"
    },
    {
      "inputs": [],
      "name": "TransferCallerNotOwnerNorApproved",
      "type": "error"
    },
    {
      "inputs": [],
      "name": "TransferFromIncorrectOwner",
      "type": "error"
    },
    {
      "inputs": [],
      "name": "TransferToNonERC721ReceiverImplementer",
      "type": "error"
    },
    {
      "inputs": [],
      "name": "TransferToZeroAddress",
      "type": "error"
    },
    {
      "inputs": [],
      "name": "URIQueryForNonexistentToken",
      "type": "error"
    },
    {
      "anonymous": false,
      "inputs": [
        {
          "indexed": true,
          "internalType": "address",
          "name": "owner",
          "type": "address"
        },
        {
          "indexed": true,
          "internalType": "address",
          "name": "approved",
          "type": "address"
        },
        {
          "indexed": true,
          "internalType": "uint256",
          "name": "tokenId",
          "type": "uint256"
        }
      ],
      "name": "Approval",
      "type": "event"
    },
    {
      "anonymous": false,
      "inputs": [
        {
          "indexed": true,
          "internalType": "address",
          "name": "owner",
          "type": "address"
        },
        {
          "indexed": true,
          "internalType": "address",
          "name": "operator",
          "type": "address"
        },
        {
          "indexed": false,
          "internalType": "bool",
          "name": "approved",
          "type": "bool"
        }
      ],
      "name": "ApprovalForAll",
      "type": "event"
    },
    {
      "anonymous": false,
      "inputs": [
        {
          "indexed": true,
          "internalType": "uint256",
          "name": "fromTokenId",
          "type": "uint256"
        },
        {
          "indexed": false,
          "internalType": "uint256",
          "name": "toTokenId",
          "type": "uint256"
        },
        {
          "indexed": true,
          "internalType": "address",
          "name": "from",
          "type": "address"
        },
        {
          "indexed": true,
          "internalType": "address",
          "name": "to",
          "type": "address"
        }
      ],
      "name": "ConsecutiveTransfer",
      "type": "event"
    },
    {
      "anonymous": false,
      "inputs": [
        {
          "indexed": true,
          "internalType": "address",
          "name": "from",
          "type": "address"
        },
        {
          "indexed": true,
          "internalType": "address",
          "name": "to",
          "type": "address"
        },
        {
          "indexed": true,
          "internalType": "uint256",
          "name": "tokenId",
          "type": "uint256"
        }
      ],
      "name": "Transfer",
      "type": "event"
    },
    {
      "inputs": [],
      "name": "ROYALTY_BPS",
      "outputs": [
        {
          "internalType": "uint16",
          "name": "",
          "type": "uint16"
        }
      ],
      "stateMutability": "view",
      "type": "function"
    },
    {
      "inputs": [],
      "name": "TOKEN_LIMIT",
      "outputs": [
        {
          "internalType": "uint16",
          "name": "",
          "type": "uint16"
        }
      ],
      "stateMutability": "view",
      "type": "function"
    },
    {
      "inputs": [
        {
          "internalType": "address",
          "name": "to",
          "type": "address"
        },
        {
          "internalType": "uint256",
          "name": "tokenId",
          "type": "uint256"
        }
      ],
      "name": "approve",
      "outputs": [],
      "stateMutability": "payable",
      "type": "function"
    },
    {
      "inputs": [
        {
          "internalType": "address",
          "name": "owner",
          "type": "address"
        }
      ],
      "name": "balanceOf",
      "outputs": [
        {
          "internalType": "uint256",
          "name": "",
          "type": "uint256"
        }
      ],
      "stateMutability": "view",
      "type": "function"
    },
    {
      "inputs": [],
      "name": "contractURI",
      "outputs": [
        {
          "internalType": "string",
          "name": "",
          "type": "string"
        }
      ],
      "stateMutability": "pure",
      "type": "function"
    },
    {
      "inputs": [
        {
          "internalType": "uint256",
          "name": "tokenId",
          "type": "uint256"
        }
      ],
      "name": "explicitOwnershipOf",
      "outputs": [
        {
          "components": [
            {
              "internalType": "address",
              "name": "addr",
              "type": "address"
            },
            {
              "internalType": "uint64",
              "name": "startTimestamp",
              "type": "uint64"
            },
            {
              "internalType": "bool",
              "name": "burned",
              "type": "bool"
            },
            {
              "internalType": "uint24",
              "name": "extraData",
              "type": "uint24"
            }
          ],
          "internalType": "struct IERC721A.TokenOwnership",
          "name": "",
          "type": "tuple"
        }
      ],
      "stateMutability": "view",
      "type": "function"
    },
    {
      "inputs": [
        {
          "internalType": "uint256[]",
          "name": "tokenIds",
          "type": "uint256[]"
        }
      ],
      "name": "explicitOwnershipsOf",
      "outputs": [
        {
          "components": [
            {
              "internalType": "address",
              "name": "addr",
              "type": "address"
            },
            {
              "internalType": "uint64",
              "name": "startTimestamp",
              "type": "uint64"
            },
            {
              "internalType": "bool",
              "name": "burned",
              "type": "bool"
            },
            {
              "internalType": "uint24",
              "name": "extraData",
              "type": "uint24"
            }
          ],
          "internalType": "struct IERC721A.TokenOwnership[]",
          "name": "",
          "type": "tuple[]"
        }
      ],
      "stateMutability": "view",
      "type": "function"
    },
    {
      "inputs": [
        {
          "internalType": "uint256",
          "name": "_tokenId",
          "type": "uint256"
        }
      ],
      "name": "generateSvg",
      "outputs": [
        {
          "internalType": "string",
          "name": "",
          "type": "string"
        }
      ],
      "stateMutability": "view",
      "type": "function"
    },
    {
      "inputs": [
        {
          "internalType": "uint256",
          "name": "tokenId",
          "type": "uint256"
        }
      ],
      "name": "getApproved",
      "outputs": [
        {
          "internalType": "address",
          "name": "",
          "type": "address"
        }
      ],
      "stateMutability": "view",
      "type": "function"
    },
    {
      "inputs": [
        {
          "internalType": "address",
          "name": "owner",
          "type": "address"
        },
        {
          "internalType": "address",
          "name": "operator",
          "type": "address"
        }
      ],
      "name": "isApprovedForAll",
      "outputs": [
        {
          "internalType": "bool",
          "name": "",
          "type": "bool"
        }
      ],
      "stateMutability": "view",
      "type": "function"
    },
    {
      "inputs": [
        {
          "internalType": "uint24",
          "name": "_seed",
          "type": "uint24"
        }
      ],
      "name": "mint",
      "outputs": [],
      "stateMutability": "payable",
      "type": "function"
    },
    {
      "inputs": [
        {
          "internalType": "uint24[]",
          "name": "seeds",
          "type": "uint24[]"
        }
      ],
      "name": "mintMany",
      "outputs": [],
      "stateMutability": "payable",
      "type": "function"
    },
    {
      "inputs": [],
      "name": "name",
      "outputs": [
        {
          "internalType": "string",
          "name": "",
          "type": "string"
        }
      ],
      "stateMutability": "view",
      "type": "function"
    },
    {
      "inputs": [
        {
          "internalType": "uint256",
          "name": "tokenId",
          "type": "uint256"
        }
      ],
      "name": "ownerOf",
      "outputs": [
        {
          "internalType": "address",
          "name": "",
          "type": "address"
        }
      ],
      "stateMutability": "view",
      "type": "function"
    },
    {
      "inputs": [
        {
          "internalType": "uint256",
          "name": "",
          "type": "uint256"
        },
        {
          "internalType": "uint256",
          "name": "value",
          "type": "uint256"
        }
      ],
      "name": "royaltyInfo",
      "outputs": [
        {
          "internalType": "address",
          "name": "receiver",
          "type": "address"
        },
        {
          "internalType": "uint256",
          "name": "royaltyAmount",
          "type": "uint256"
        }
      ],
      "stateMutability": "pure",
      "type": "function"
    },
    {
      "inputs": [
        {
          "internalType": "address",
          "name": "from",
          "type": "address"
        },
        {
          "internalType": "address",
          "name": "to",
          "type": "address"
        },
        {
          "internalType": "uint256",
          "name": "tokenId",
          "type": "uint256"
        }
      ],
      "name": "safeTransferFrom",
      "outputs": [],
      "stateMutability": "payable",
      "type": "function"
    },
    {
      "inputs": [
        {
          "internalType": "address",
          "name": "from",
          "type": "address"
        },
        {
          "internalType": "address",
          "name": "to",
          "type": "address"
        },
        {
          "internalType": "uint256",
          "name": "tokenId",
          "type": "uint256"
        },
        {
          "internalType": "bytes",
          "name": "_data",
          "type": "bytes"
        }
      ],
      "name": "safeTransferFrom",
      "outputs": [],
      "stateMutability": "payable",
      "type": "function"
    },
    {
      "inputs": [
        {
          "internalType": "address",
          "name": "operator",
          "type": "address"
        },
        {
          "internalType": "bool",
          "name": "approved",
          "type": "bool"
        }
      ],
      "name": "setApprovalForAll",
      "outputs": [],
      "stateMutability": "nonpayable",
      "type": "function"
    },
    {
      "inputs": [
        {
          "internalType": "bytes4",
          "name": "interfaceId",
          "type": "bytes4"
        }
      ],
      "name": "supportsInterface",
      "outputs": [
        {
          "internalType": "bool",
          "name": "",
          "type": "bool"
        }
      ],
      "stateMutability": "view",
      "type": "function"
    },
    {
      "inputs": [],
      "name": "symbol",
      "outputs": [
        {
          "internalType": "string",
          "name": "",
          "type": "string"
        }
      ],
      "stateMutability": "view",
      "type": "function"
    },
    {
      "inputs": [
        {
          "internalType": "uint256",
          "name": "_tokenId",
          "type": "uint256"
        }
      ],
      "name": "tokenURI",
      "outputs": [
        {
          "internalType": "string",
          "name": "",
          "type": "string"
        }
      ],
      "stateMutability": "view",
      "type": "function"
    },
    {
      "inputs": [
        {
          "internalType": "address",
          "name": "owner",
          "type": "address"
        }
      ],
      "name": "tokensOfOwner",
      "outputs": [
        {
          "internalType": "uint256[]",
          "name": "",
          "type": "uint256[]"
        }
      ],
      "stateMutability": "view",
      "type": "function"
    },
    {
      "inputs": [
        {
          "internalType": "address",
          "name": "owner",
          "type": "address"
        },
        {
          "internalType": "uint256",
          "name": "start",
          "type": "uint256"
        },
        {
          "internalType": "uint256",
          "name": "stop",
          "type": "uint256"
        }
      ],
      "name": "tokensOfOwnerIn",
      "outputs": [
        {
          "internalType": "uint256[]",
          "name": "",
          "type": "uint256[]"
        }
      ],
      "stateMutability": "view",
      "type": "function"
    },
    {
      "inputs": [],
      "name": "totalSupply",
      "outputs": [
        {
          "internalType": "uint256",
          "name": "",
          "type": "uint256"
        }
      ],
      "stateMutability": "view",
      "type": "function"
    },
    {
      "inputs": [
        {
          "internalType": "address",
          "name": "from",
          "type": "address"
        },
        {
          "internalType": "address",
          "name": "to",
          "type": "address"
        },
        {
          "internalType": "uint256",
          "name": "tokenId",
          "type": "uint256"
        }
      ],
      "name": "transferFrom",
      "outputs": [],
      "stateMutability": "payable",
      "type": "function"
    }
  ],
  "bytecode": "0x60806040523480156200001157600080fd5b506040518060400160405280600c81526020016b436f736d6963576f726c647360a01b8152506040518060400160405280600381526020016243575360e81b815250816002908162000064919062000125565b50600362000073828262000125565b50506000805550620001f1565b634e487b7160e01b600052604160045260246000fd5b600181811c90821680620000ab57607f821691505b602082108103620000cc57634e487b7160e01b600052602260045260246000fd5b50919050565b601f8211156200012057600081815260208120601f850160051c81016020861015620000fb5750805b601f850160051c820191505b818110156200011c5782815560010162000107565b5050505b505050565b81516001600160401b0381111562000141576200014162000080565b620001598162000152845462000096565b84620000d2565b602080601f831160018114620001915760008415620001785750858301515b600019600386901b1c1916600185901b1785556200011c565b600085815260208120601f198616915b82811015620001c257888601518255948401946001909101908401620001a1565b5085821015620001e15787850151600019600388901b60f8161c191681555b5050505050600190811b01905550565b61469a80620002016000396000f3fe6080604052600436106101665760003560e01c806370a08231116100d1578063b88d4fde1161008a578063c87b56dd11610064578063c87b56dd14610438578063e8a3d48514610458578063e985e9c51461046d578063eaef4d8f146104b657600080fd5b8063b88d4fde146103d8578063bc921dc2146103eb578063c23dc68f1461040b57600080fd5b806370a08231146103235780638462151c146103435780639197898f1461037057806395d89b411461038357806399a2557a14610398578063a22cb465146103b857600080fd5b806323b872dd1161012357806323b872dd1461025b5780632a55205a1461026e57806342842e0e146102ad57806349c657db146102c05780635bbb2177146102d65780636352211e1461030357600080fd5b806301ffc9a71461016b578063031bd4c4146101a057806306fdde03146101c9578063081812fc146101eb578063095ea7b31461022357806318160ddd14610238575b600080fd5b34801561017757600080fd5b5061018b610186366004612565565b6104c9565b60405190151581526020015b60405180910390f35b3480156101ac57600080fd5b506101b661020081565b60405161ffff9091168152602001610197565b3480156101d557600080fd5b506101de6104da565b60405161019791906125d2565b3480156101f757600080fd5b5061020b6102063660046125e5565b61056c565b6040516001600160a01b039091168152602001610197565b61023661023136600461261a565b6105b0565b005b34801561024457600080fd5b50600154600054035b604051908152602001610197565b610236610269366004612644565b610650565b34801561027a57600080fd5b5061028e610289366004612680565b6107e8565b604080516001600160a01b039093168352602083019190915201610197565b6102366102bb366004612644565b610823565b3480156102cc57600080fd5b506101b66103e881565b3480156102e257600080fd5b506102f66102f13660046126a2565b610843565b6040516101979190612754565b34801561030f57600080fd5b5061020b61031e3660046125e5565b61090f565b34801561032f57600080fd5b5061024d61033e366004612796565b61091a565b34801561034f57600080fd5b5061036361035e366004612796565b610969565b60405161019791906127b1565b61023661037e366004612843565b610a72565b34801561038f57600080fd5b506101de610c89565b3480156103a457600080fd5b506103636103b33660046128f0565b610c98565b3480156103c457600080fd5b506102366103d3366004612923565b610e12565b6102366103e636600461295f565b610e7e565b3480156103f757600080fd5b506101de6104063660046125e5565b610ec2565b34801561041757600080fd5b5061042b6104263660046125e5565b610f2c565b6040516101979190612a1f565b34801561044457600080fd5b506101de6104533660046125e5565b610fa4565b34801561046457600080fd5b506101de61103b565b34801561047957600080fd5b5061018b610488366004612a2d565b6001600160a01b03918216600090815260076020908152604080832093909416825291909152205460ff1690565b6102366104c4366004612a60565b61105b565b60006104d482611146565b92915050565b6060600280546104e990612a7b565b80601f016020809104026020016040519081016040528092919081815260200182805461051590612a7b565b80156105625780601f1061053757610100808354040283529160200191610562565b820191906000526020600020905b81548152906001019060200180831161054557829003601f168201915b5050505050905090565b60006105778261117b565b610594576040516333d1c03960e21b815260040160405180910390fd5b506000908152600660205260409020546001600160a01b031690565b60006105bb8261090f565b9050336001600160a01b038216146105f4576105d78133610488565b6105f4576040516367d9dca160e11b815260040160405180910390fd5b60008281526006602052604080822080546001600160a01b0319166001600160a01b0387811691821790925591518593918516917f8c5be1e5ebec7d5bd14f71427d1e84f3dd0314c0f7b2291e5b200ac8c7c3b92591a4505050565b600061065b826111a2565b9050836001600160a01b0316816001600160a01b03161461068e5760405162a1148160e81b815260040160405180910390fd5b60008281526006602052604090208054338082146001600160a01b038816909114176106db576106be8633610488565b6106db57604051632ce44b5f60e11b815260040160405180910390fd5b6001600160a01b03851661070257604051633a954ecd60e21b815260040160405180910390fd5b801561070d57600082555b6001600160a01b038681166000908152600560205260408082208054600019019055918716808252919020805460010190554260a01b17600160e11b17600085815260046020526040812091909155600160e11b8416900361079f5760018401600081815260046020526040812054900361079d57600054811461079d5760008181526004602052604090208490555b505b83856001600160a01b0316876001600160a01b03167fddf252ad1be2c89b69c2b068fc378daa952ba7f163c4a11628f55a4df523b3ef60405160405180910390a4505050505050565b600080738c0e2ac43de845116e6c70319c4b6db9463399c861271061080e8560fa612ac5565b6108189190612af2565b915091509250929050565b61083e83838360405180602001604052806000815250610e7e565b505050565b60608160008167ffffffffffffffff811115610861576108616127e9565b6040519080825280602002602001820160405280156108b357816020015b60408051608081018252600080825260208083018290529282018190526060820152825260001990920191018161087f5790505b50905060005b828114610906576108e18686838181106108d5576108d5612b06565b90506020020135610f2c565b8282815181106108f3576108f3612b06565b60209081029190910101526001016108b9565b50949350505050565b60006104d4826111a2565b60006001600160a01b038216610943576040516323d3ad8160e21b815260040160405180910390fd5b506001600160a01b031660009081526005602052604090205467ffffffffffffffff1690565b606060008060006109798561091a565b905060008167ffffffffffffffff811115610996576109966127e9565b6040519080825280602002602001820160405280156109bf578160200160208202803683370190505b5090506109ec60408051608081018252600080825260208201819052918101829052606081019190915290565b60005b838614610a66576109ff81611209565b91508160400151610a5e5781516001600160a01b031615610a1f57815194505b876001600160a01b0316856001600160a01b031603610a5e5780838780600101985081518110610a5157610a51612b06565b6020026020010181815250505b6001016109ef565b50909695505050505050565b610200610a7e60005490565b1115610ac75760405162461bcd60e51b8152602060048201526013602482015272151bdad95b881b1a5b5a5d081c995858da1959606a1b60448201526064015b60405180910390fd5b6000805b8251811015610b885760096000848381518110610aea57610aea612b06565b60209081029190910181015162ffffff16825281019190915260400160009081205460ff1615159003610b2957610b22826001612b1c565b9150610b4d565b828181518110610b3b57610b3b612b06565b60200260200101600062ffffff168152505b61020082610b5a60005490565b610b649190612b1c565b101580610b725750600a8210155b610b885780610b8081612b2f565b915050610acb565b50600054610b963383611245565b60005b8215610c83576000610bab8284612b1c565b9050848281518110610bbf57610bbf612b06565b602002602001015162ffffff16600014610c7057848281518110610be557610be5612b06565b60200260200101516008600083815260200190815260200160002060006101000a81548162ffffff021916908362ffffff160217905550600160096000878581518110610c3457610c34612b06565b60209081029190910181015162ffffff168252810191909152604001600020805460ff1916911515919091179055610c6d600185612b48565b93505b610c7b826001612b1c565b915050610b99565b50505050565b6060600380546104e990612a7b565b6060818310610cba57604051631960ccad60e11b815260040160405180910390fd5b600080610cc660005490565b905080841115610cd4578093505b6000610cdf8761091a565b905084861015610cfe5785850381811015610cf8578091505b50610d02565b5060005b60008167ffffffffffffffff811115610d1d57610d1d6127e9565b604051908082528060200260200182016040528015610d46578160200160208202803683370190505b50905081600003610d5c579350610e0b92505050565b6000610d6788610f2c565b905060008160400151610d78575080515b885b888114158015610d8a5750848714155b15610dff57610d9881611209565b92508260400151610df75782516001600160a01b031615610db857825191505b8a6001600160a01b0316826001600160a01b031603610df75780848880600101995081518110610dea57610dea612b06565b6020026020010181815250505b600101610d7a565b50505092835250909150505b9392505050565b3360008181526007602090815260408083206001600160a01b03871680855290835292819020805460ff191686151590811790915590519081529192917f17307eab39ab6107e8899845ad3d59bd9653f200f220920489ca2b5937696c31910160405180910390a35050565b610e89848484610650565b6001600160a01b0383163b15610c8357610ea584848484611343565b610c83576040516368d2bf6b60e11b815260040160405180910390fd5b6060610ecd8261117b565b8015610eda575061020082105b610f0f5760405162461bcd60e51b815260206004820152600660248201526510905117d25160d21b6044820152606401610abe565b6000828152600860205260409020546104d49062ffffff1661142e565b6040805160808082018352600080835260208084018290528385018290526060808501839052855193840186528284529083018290529382018190529281018390529091506000548310610f805792915050565b610f8983611209565b9050806040015115610f9b5792915050565b610e0b836115a7565b6060610faf8261117b565b610fe45760405162461bcd60e51b815260206004820152600660248201526510905117d25160d21b6044820152606401610abe565b610fed826115dc565b60008381526008602052604090205461100a9062ffffff166116b3565b61101384610ec2565b60405160200161102593929190612b77565b6040516020818303038152906040529050919050565b606060405180606001604052806030815260200161463560309139905090565b61020061106760005490565b11156110a75760405162461bcd60e51b815260206004820152600f60248201526e1513d2d15397d31253525517d21255608a1b6044820152606401610abe565b62ffffff811660009081526009602052604090205460ff16156110f85760405162461bcd60e51b815260206004820152600960248201526814d1515117d554d15160ba1b6044820152606401610abe565b60008054808252600860209081526040808420805462ffffff191662ffffff871690811790915584526009909152909120805460ff19166001908117909155611142903390611245565b5050565b60006001600160e01b0319821663152a902d60e11b14806104d457506301ffc9a760e01b6001600160e01b03198316146104d4565b60008054821080156104d4575050600090815260046020526040902054600160e01b161590565b6000816000548110156111f05760008181526004602052604081205490600160e01b821690036111ee575b80600003610e0b5750600019016000818152600460205260409020546111cd565b505b604051636f96cda160e11b815260040160405180910390fd5b6040805160808101825260008082526020820181905291810182905260608101919091526000828152600460205260409020546104d490611708565b600080549082900361126a5760405163b562e8dd60e01b815260040160405180910390fd5b6001600160a01b03831660008181526005602090815260408083208054680100000000000000018802019055848352600490915281206001851460e11b4260a01b178317905582840190839083907fddf252ad1be2c89b69c2b068fc378daa952ba7f163c4a11628f55a4df523b3ef8180a4600183015b81811461131957808360007fddf252ad1be2c89b69c2b068fc378daa952ba7f163c4a11628f55a4df523b3ef600080a46001016112e1565b508160000361133a57604051622e076360e81b815260040160405180910390fd5b60005550505050565b604051630a85bd0160e11b81526000906001600160a01b0385169063150b7a0290611378903390899088908890600401612c8c565b6020604051808303816000875af19250505080156113b3575060408051601f3d908101601f191682019092526113b091810190612cc9565b60015b611411573d8080156113e1576040519150601f19603f3d011682016040523d82523d6000602084013e6113e6565b606091505b508051600003611409576040516368d2bf6b60e11b815260040160405180910390fd5b805181602001fd5b6001600160e01b031916630a85bd0160e11b149050949350505050565b60606000611440836000610168611750565b61145361144e856001612b1c565b611768565b61146161144e866002612b1c565b61146f61144e876003612b1c565b6040516020016114829493929190612ce6565b60405160208183030381529060405290506000604051602001611514907f3c646566733e3c636c6970506174682069643d276d6370273e3c72656374207881527f3d27302720793d2730272077696474683d2731653327206865696768743d273160208201527f6533272f3e3c2f636c6970506174683e3c2f646566733e000000000000000000604082015260570190565b60405160208183030381529060405290506000611530856117a4565b611539866117cd565b611542876118af565b61154b88611aba565b61155489611ca7565b604051602001611568959493929190612da0565b604051602081830303815290604052905082828260405160200161158e93929190612e0b565b6040516020818303038152906040529350505050919050565b6040805160808101825260008082526020820181905291810182905260608101919091526104d46115d7836111a2565b611708565b6060816000036116035750506040805180820190915260018152600360fc1b602082015290565b8160005b811561161b57600101600a82049150611607565b60008167ffffffffffffffff811115611636576116366127e9565b6040519080825280601f01601f191660200182016040528015611660576020820181803683370190505b508593509050815b831561090657600a840660300160f81b8282600190039250828151811061169157611691612b06565b60200101906001600160f81b031916908160001a905350600a84049350611668565b60606116be826115dc565b6116c783611d56565b6116d86116d385611df1565b6115dc565b6116e185611e70565b6116ea86611f2a565b6116f387611fc2565b60405160200161102596959493929190612f0c565b604080516080810182526001600160a01b038316815260a083901c67ffffffffffffffff166020820152600160e01b831615159181019190915260e89190911c606082015290565b60606117606116d3858585612066565b949350505050565b60606104d461177a83600060ff612066565b611791611788856002612b1c565b600060ff612066565b61179f611788866001612b1c565b6120d8565b60606117b382600f6028611750565b6117bc836115dc565b6040516020016110259291906130e6565b60408051602081019091526000808252606091905b6117eb84611df1565b8110156118a8576000604051806080016040528083815260200161180e846115dc565b815260200161183584611822896002612ac5565b61182c9190612b1c565b601460c8612066565b815260200183611846886002612ac5565b6118509190612b1c565b905290508261185e8261211f565b61186783612193565b611870846121be565b6040516020016118839493929190613221565b60405160208183030381529060405292505080806118a090612b2f565b9150506117e2565b5092915050565b606060006118c1836103e8603361222b565b9050606060005b60338110156119405760008382603381106118e5576118e5612b06565b60200201519050826118fe8260005b60200201516115dc565b6119098360016118f4565b60405160200161191b93929190613278565b604051602081830303815290604052925050808061193890612b2f565b9150506118c8565b508060405160200161195291906132d7565b6040516020818303038152906040529050600061197285600a601e611750565b61197f8660016003611750565b60405160200161199092919061330a565b60408051601f19818403018152919052905060006119b261144e876003612b1c565b905060006119d9604051806040016040528060018152602001603560f81b81525083612314565b6119fc6119e98960146050611750565b6119f761144e8b6005612b1c565b612314565b611a2060405180604001604052806002815260200161393560f01b81525085612314565b604051602001611a329392919061358b565b60405160208183030381529060405290506000611a5288601e603c611750565b90506000611a5f896115dc565b604051602001611a6f9190613627565b60405160208183030381529060405290508483828889868b604051602001611a9d9796959493929190613767565b604051602081830303815290604052975050505050505050919050565b60408051602081019091526000808252606091908080611adc86826001612066565b1190505b6103e8821015611c24576000611b03611af98488612b1c565b609661012c612066565b9050611b11836103e8612b48565b811115611b2b57611b24836103e8612b48565b9050611b6e565b606481611b3a856103e8612b48565b611b449190612b48565b1015611b6e5780611b57846103e8612b48565b611b619190612b48565b611b6b9082612b1c565b90505b6000611b86611b7d8589612b1c565b600a601e612066565b9050600083611ba057611b9b82610320612b1c565b611bac565b611bac82610320612b48565b905085611bb8866115dc565b611bd0611bc6600287612af2565b6116d39089612b1c565b611bd9846115dc565b611be66116d3888b612b1c565b604051602001611bfa9594939291906138bc565b60408051601f198184030181529190529550611c168386612b1c565b945083159350505050611ae0565b6000611c3461144e876004612ac5565b90506000611c458760016003611750565b9050611c5e611c55886002612ac5565b60026009611750565b611c67886115dc565b611c74896001600a611750565b848489604051602001611c8c9695949392919061397a565b60405160208183030381529060405295505050505050919050565b60606000611cc2611cb9846002612ac5565b60016008611750565b90506000611cdd611cd485600a612b1c565b60006009611750565b90506000611cef611cd4866014612b1c565b90506000611d01611cd487601e612b1c565b905083611d0d876115dc565b848484611d27611d1e8c6005612ac5565b603c6050611750565b604051602001611d3c96959493929190613d65565b604051602081830303815290604052945050505050919050565b60606000611d6783600f6028612066565b90506016811015611d9657505060408051808201909152600681526573706172736560d01b6020820152919050565b6021811115611dc257505060408051808201909152600581526464656e736560d81b6020820152919050565b505060408051808201909152600b81526a191a5cdd1c9a589d5d195960aa1b6020820152919050565b50919050565b600080611e0b611e02846002612ac5565b60006064612066565b90506005811015611e1f5750600092915050565b600f811015611e315750600192915050565b6028811015611e435750600292915050565b6055811015611e555750600392915050565b605f811015611e675750600492915050565b50600592915050565b60606000611e8183600a601e612066565b90506000611e928460016003612066565b9050601482108015611ea45750600281105b15611ecc5750506040805180820190915260048152631cdbd99d60e21b602082015292915050565b601482118015611edc5750600281115b15611f05575050604080518082019091526005815264726f636b7960d81b602082015292915050565b50506040805180820190915260068152651c9d59d9d95960d21b602082015292915050565b60606000611f45611f3c846002612ac5565b60026009612066565b90506004811015611f7257505060408051808201909152600481526363616c6d60e01b6020820152919050565b6006811115611f9e5750506040805180820190915260058152640e4deeaced60db1b6020820152919050565b505060408051808201909152600681526563686f70707960d01b6020820152919050565b60606000611fdd611fd4846002612ac5565b60016008612066565b9050600381101561200d5750506040805180820190915260078152667374726174757360c81b6020820152919050565b600681111561203b57505060408051808201909152600781526663756d756c757360c81b6020820152919050565b505060408051808201909152600d81526c73747261746f63756d756c757360981b6020820152919050565b6000828211612076575081610e0b565b60008460405160200161208b91815260200190565b60408051601f1981840301815291905280516020909101209050836120b08185612b48565b6120bb906001612b1c565b6120c59083613f2d565b6120cf9190612b1c565b95945050505050565b60606120e3846115dc565b6120ec846115dc565b6120f5846115dc565b60405160200161210793929190613f41565b60405160208183030381529060405290509392505050565b6060816020015161214e61213a846060015160036019611750565b845160608601516119f79161144e91612b1c565b6121816121628560600151604b6061611750565b855160608701516119f79161217691612b1c565b61144e90600a612b1c565b60405160200161102593929190613fba565b606081602001516121a383612340565b6121ac846123fe565b60405160200161102593929190614073565b606060006121d4836060015160326103b6611750565b905060006121ea846060015160006101f4611750565b90506121f782828661244b565b612202838387612472565b6040516020016122139291906141ef565b60405160208183030381529060405292505050919050565b612233612500565b6000612240600184612b48565b61224a9085612af2565b9050612254612500565b6101f460005b85811015610a6657600061226e8583612ac5565b9050600061227c838b612b1c565b612288906103e8612b1c565b905060006122998260006014612066565b9050600060326122ac8460006064612066565b119050806122c3576122be8287612b48565b6122cd565b6122cd8287612b1c565b95506040518060400160405280858152602001878152508786603381106122f6576122f6612b06565b60200201525083925061230c9150829050612b2f565b91505061225a565b6060828260405160200161232992919061421e565b604051602081830303815290604052905092915050565b60606000600561235784606001516000600a612066565b11612384576040518060400160405280600a81526020016974757262756c656e636560b01b8152506123aa565b6040518060400160405280600c81526020016b6672616374616c4e6f69736560a01b8152505b9050806123b684612499565b6123c385606001516115dc565b6123d486606001516003600a611750565b6040516020016123e79493929190614292565b604051602081830303815290604052915050919050565b60606124178260000151836060015161144e9190612b1c565b61242883606001516005600a611750565b6124398460600151601e6064611750565b60405160200161102593929190614368565b6060838361245c84604001516115dc565b6020808601516040516121079594939201614451565b6060838361248384604001516115dc565b6020808601516040516121079594939201614515565b60606124d6826040015160026124af9190612ac5565b6124c0846060015160016003612066565b6124cc906103e8612ac5565b6116d39190612af2565b6124ef83604001516124c0856060015160026003612066565b6040516020016110259291906145e5565b6040518061066001604052806033905b61251861252e565b8152602001906001900390816125105790505090565b60405180604001604052806002906020820280368337509192915050565b6001600160e01b03198116811461256257600080fd5b50565b60006020828403121561257757600080fd5b8135610e0b8161254c565b60005b8381101561259d578181015183820152602001612585565b50506000910152565b600081518084526125be816020860160208601612582565b601f01601f19169290920160200192915050565b602081526000610e0b60208301846125a6565b6000602082840312156125f757600080fd5b5035919050565b80356001600160a01b038116811461261557600080fd5b919050565b6000806040838503121561262d57600080fd5b612636836125fe565b946020939093013593505050565b60008060006060848603121561265957600080fd5b612662846125fe565b9250612670602085016125fe565b9150604084013590509250925092565b6000806040838503121561269357600080fd5b50508035926020909101359150565b600080602083850312156126b557600080fd5b823567ffffffffffffffff808211156126cd57600080fd5b818501915085601f8301126126e157600080fd5b8135818111156126f057600080fd5b8660208260051b850101111561270557600080fd5b60209290920196919550909350505050565b80516001600160a01b0316825260208082015167ffffffffffffffff169083015260408082015115159083015260609081015162ffffff16910152565b6020808252825182820181905260009190848201906040850190845b81811015610a6657612783838551612717565b9284019260809290920191600101612770565b6000602082840312156127a857600080fd5b610e0b826125fe565b6020808252825182820181905260009190848201906040850190845b81811015610a66578351835292840192918401916001016127cd565b634e487b7160e01b600052604160045260246000fd5b604051601f8201601f1916810167ffffffffffffffff81118282101715612828576128286127e9565b604052919050565b803562ffffff8116811461261557600080fd5b6000602080838503121561285657600080fd5b823567ffffffffffffffff8082111561286e57600080fd5b818501915085601f83011261288257600080fd5b813581811115612894576128946127e9565b8060051b91506128a58483016127ff565b81815291830184019184810190888411156128bf57600080fd5b938501935b838510156128e4576128d585612830565b825293850193908501906128c4565b98975050505050505050565b60008060006060848603121561290557600080fd5b61290e846125fe565b95602085013595506040909401359392505050565b6000806040838503121561293657600080fd5b61293f836125fe565b91506020830135801515811461295457600080fd5b809150509250929050565b6000806000806080858703121561297557600080fd5b61297e856125fe565b9350602061298d8187016125fe565b935060408601359250606086013567ffffffffffffffff808211156129b157600080fd5b818801915088601f8301126129c557600080fd5b8135818111156129d7576129d76127e9565b6129e9601f8201601f191685016127ff565b915080825289848285010111156129ff57600080fd5b808484018584013760008482840101525080935050505092959194509250565b608081016104d48284612717565b60008060408385031215612a4057600080fd5b612a49836125fe565b9150612a57602084016125fe565b90509250929050565b600060208284031215612a7257600080fd5b610e0b82612830565b600181811c90821680612a8f57607f821691505b602082108103611deb57634e487b7160e01b600052602260045260246000fd5b634e487b7160e01b600052601160045260246000fd5b80820281158282048414176104d4576104d4612aaf565b634e487b7160e01b600052601260045260246000fd5b600082612b0157612b01612adc565b500490565b634e487b7160e01b600052603260045260246000fd5b808201808211156104d4576104d4612aaf565b600060018201612b4157612b41612aaf565b5060010190565b818103818111156104d4576104d4612aaf565b60008151612b6d818560208601612582565b9290920192915050565b7f646174613a6170706c69636174696f6e2f6a736f6e2c7b226e616d65223a2241815263575a202360e01b602082015260008451612bbc816024850160208901612582565b7f3a2061207374756e6e696e6720436f736d696320576f726c64222c22646573636024918401918201527f72697074696f6e223a202268747470733a2f2f7777772e636f736d6963776f726044820152690363239973c3cbd1116160b51b60648201528451612c3281606e840160208901612582565b7f2c2022696d616765223a2022646174613a696d6167652f7376672b786d6c2c00606e92909101918201528351612c7081608d840160208801612582565b61227d60f01b608d9290910191820152608f0195945050505050565b6001600160a01b0385811682528416602082015260408101839052608060608201819052600090612cbf908301846125a6565b9695505050505050565b600060208284031215612cdb57600080fd5b8151610e0b8161254c565b6f0d8d2dccac2e45acee4c2c8d2cadce8560831b8152600085516020612d128260108601838b01612582565b6403232b396160dd1b6010928501928301528651612d368160158501848b01612582565b64010181296160dd1b601593909101928301528551612d5b81601a8501848a01612582565b65010199a9296160d51b601a93909101928301528451612d8081838501848901612582565b6520313030252960d01b9201908101919091526026019695505050505050565b60008651612db2818460208b01612582565b865190830190612dc6818360208b01612582565b8651910190612dd9818360208a01612582565b8551910190612dec818360208901612582565b8451910190612dff818360208801612582565b01979650505050505050565b7f3c73766720786d6c6e733d27687474703a2f2f7777772e77332e6f72672f323081527f30302f737667272076696577426f783d273020302031653320316533272073746020820152753cb6329e93b130b1b5b3b937bab73216b4b6b0b3b29d60511b604082015260008451612e88816056850160208901612582565b61139f60f11b6056918401918201528451612eaa816058840160208901612582565b7f3c6720636c69702d706174683d2775726c28236d637029273e00000000000000605892909101918201528351612ee8816071840160208801612582565b691e17b39f1e17b9bb339f60b11b60719290910191820152607b0195945050505050565b7f2261747472696275746573223a205b7b2274726169745f74797065223a20227381526e032b2b2111610113b30b63ab2911d1608d1b602082015260008751612f5c81602f850160208c01612582565b7f7d2c7b2274726169745f74797065223a20227374617273222c202276616c7565602f9184019182015263111d101160e11b604f8201528751612fa6816053840160208c01612582565b7f227d2c7b2274726169745f74797065223a2022706c616e657473222c2022766160539290910191820152650363ab2911d160d51b60738201528651612ff3816079840160208b01612582565b6130d86130c96130c361308b61308561304e6130486079888a01017f7d2c7b2274726169745f74797065223a20226d6f756e7461696e73222c20227681526730b63ab2911d101160c11b602082015260280190565b8d612b5b565b7f227d2c7b2274726169745f74797065223a20227761746572222c202276616c7581526432911d101160d91b602082015260250190565b8a612b5b565b7f227d2c7b2274726169745f74797065223a2022636c6f756473222c202276616c8152653ab2911d101160d11b602082015260260190565b87612b5b565b62227d5d60e81b815260030190565b9a9950505050505050505050565b7f3c66696c7465722069643d277366273e3c666554757262756c656e636520626181526e39b2a33932b8bab2b731bc9e93981760891b60208201526000835161313681602f850160208801612582565b672720736565643d2760c01b602f91840191820152835161315e816037840160208801612582565b7f272f3e3c6665436f6c6f724d61747269782076616c7565733d27302030203020603792909101918201527f39202d342030203020302039202d342030203020302039202d3420302030203060578201527f20302031272f3e3c2f66696c7465723e3c726563742077696474683d2731303060778201527f2527206865696768743d273130302527206f7061636974793d2735302527206660978201527134b63a32b91e93bab9361411b9b31493979f60711b60b782015260c901949350505050565b60008551613233818460208a01612582565b855190830190613247818360208a01612582565b855191019061325a818360208901612582565b845191019061326d818360208801612582565b019695505050505050565b6000845161328a818460208901612582565b600160fd1b90830190815284516132a8816001840160208901612582565b600b60fa1b6001929091019182015283516132ca816002840160208801612582565b0160020195945050505050565b600082516132e9818460208701612582565b6e203165332c316533202d312c31653360881b920191825250600f01919050565b7f3c66696c7465722069643d276d66273e3c666554757262756c656e636520747981527f70653d276672616374616c4e6f6973652720626173654672657175656e63793d602082015263027302e360e41b604082015260008351613375816044850160208801612582565b7f27206e756d4f6374617665733d273135272f3e3c6665446966667573654c69676044918401918201527f6874696e67206c69676874696e672d636f6c6f723d277768697465272073757260648201526a666163655363616c653d2760a81b608482015283516133ec81608f840160208801612582565b7f273e3c666544697374616e744c6967687420617a696d7574683d273435272065608f92909101918201527f6c65766174696f6e3d273130272f3e3c2f6665446966667573654c696768746960af8201527f6e673e3c6665436f6d706f7369746520726573756c743d276d27206f7065726160cf8201527f746f723d27696e2720696e323d27536f7572636547726170686963272f3e3c6660ef8201527f65476175737369616e426c757220737464446576696174696f6e3d2738272f3e61010f8201527f3c6665436f6c6f724d617472697820747970653d276d6174726978272076616c61012f8201527f7565733d2730203020302030203020302030203020302030203020302030203061014f8201527f203020302030203020302e3520302720726573756c743d2762272f3e3c66654d61016f8201527f657267653e3c66654d657267654e6f646520696e3d276d272f3e3c66654d657261018f8201527f67654e6f646520696e3d2762272f3e3c2f66654d657267653e3c2f66696c74656101af82015261391f60f11b6101cf8201526101d101949350505050565b7f3c646566733e3c6c696e6561724772616469656e742069643d276d67273e00008152600084516135c381601e850160208901612582565b8451908301906135da81601e840160208901612582565b84519101906135f081601e840160208801612582565b7f3c2f6c696e6561724772616469656e743e3c2f646566733e0000000000000000601e929091019182015260360195945050505050565b7f3c66696c7465722069643d276d7366273e3c666554757262756c656e6365207481527f7970653d276672616374616c4e6f6973652720626173654672657175656e637960208201527f3d27302e30303420302e303127206e756d4f6374617665733d27322720736565604082015262643d2760e81b6060820152600082516136b7816063850160208701612582565b7f272f3e3c6665436f6c6f724d61747269782076616c7565733d2730203120302060639390910192830152507f30202d342031203120302030202d342031203020302030202d3420302031203160838201527f2030202d31272f3e3c6665436f6d706f73697465206f70657261746f723d276960a38201527f6e2720696e323d27536f7572636547726170686963272f3e3c2f66696c74657260c3820152601f60f91b60e382015260e401919050565b60008851602061377a8285838e01612582565b89519184019161378d8184848e01612582565b895192019161379f8184848d01612582565b703c706f6c79676f6e20706f696e74733d2760781b920191825287516137cb8160118501848c01612582565b7f272066696c7465723d2775726c28236d6629272f3e3c706f6c79676f6e20706f6011939091019283015265696e74733d2760d01b603183015286516138178160378501848b01612582565b7f272066696c6c3d2775726c28236d672927206f7061636974793d2700000000006037939091019283015285516138548160528501848a01612582565b6138ac61388a6138846052848701017425272f3e3c706f6c79676f6e20706f696e74733d2760581b815260150190565b88612b5b565b7513903334b63a32b91e93bab9361411b6b9b31493979f60511b815260160190565b9c9b505050505050505050505050565b600086516138ce818460208b01612582565b61021960f51b90830190815286516138ed816002840160208b01612582565b650101c181816160d51b600292909101918201528551613914816008840160208a01612582565b600160fd1b600892909101918201528451613936816009840160208901612582565b61016160f51b60099290910191820152835161395981600b840160208801612582565b640101c1818160dd1b600b9290910191820152601001979650505050505050565b7f3c66696c7465722069643d277766273e3c666554757262756c656e6365206261815270073654672657175656e63793d27302e303607c1b6020820152600087516139cc816031850160208c01612582565b7f202e313127206e756d4f6374617665733d27342720736565643d2700000000006031918401918201528751613a0981604c840160208c01612582565b7f272f3e3c6665436f6d706f6e656e745472616e7366657220726573756c743d27604c92909101918201527f77617665273e3c666546756e635220747970653d276c696e6561722720736c6f606c8201527f70653d27302e312720696e746572636570743d272d302e3035272f3e3c666546608c8201527f756e634720747970653d2767616d6d612720616d706c69747564653d27302e3760ac8201527f3527206578706f6e656e743d27302e3627206f66667365743d27302e3035272f60cc8201527f3e3c666546756e634220747970653d2767616d6d612720616d706c697475646560ec8201527f3d27302e3827206578706f6e656e743d27302e3427206f66667365743d27302e61010c8201527f3035272f3e3c666546756e634120747970653d276c696e6561722720736c6f7061012c82015262653d2760e81b61014c820152613d58613d09613d03613c42613c3c613bb7613bb1613b7061014f89018f612b5b565b7f272f3e3c2f6665436f6d706f6e656e745472616e736665723e3c6665466c6f6f81526e6420666c6f6f642d636f6c6f723d2760881b6020820152602f0190565b8c612b5b565b7f272f3e3c6665436f6d706f7369746520696e3d2777617665272f3e3c6665436f81527f6d706f7369746520696e323d27536f75726365416c70686127206f706572617460208201527f6f723d27696e272f3e3c6665476175737369616e426c757220737464446576696040820152666174696f6e3d2760c81b606082015260670190565b89612b5b565b7f2720726573756c743d27676c6f77272f3e3c6665436f6d706f7369746520696e81527f323d27676c6f7727206f70657261746f723d2761746f702720726573756c743d60208201527f276727202f3e3c66654d657267653e3c66654d657267654e6f64652f3e3c666560408201527f4d657267654e6f64652f3e3c2f66654d657267653e3c2f66696c7465723e3c7060608201527f61746820643d274d203020316533204c20302038303020000000000000000000608082015260970190565b86612b5b565b7f204c2031653320383030204c2031653320316533272066696c7465723d27757281527f6c2823776629272066696c6c2d6f7061636974793d27373025272f3e000000006020820152603c0190565b9998505050505050505050565b6f1e3334b63a32b91034b21e93b1b3139f60811b81527f3c666554757262756c656e636520747970653d276672616374616c4e6f69736560108201527402720626173654672657175656e63793d27302e303605c1b603082015260008751613dd4816045850160208c01612582565b7f20302e303227206e756d4f6374617665733d27322720736565643d27000000006045918401918201528751613e11816061840160208c01612582565b7f272f3e3c6665436f6c6f724d617472697820747970653d276d61747269782720606192909101918201526f3b30b63ab2b99e93981018101810181760811b60818201528651613e68816091840160208b01612582565b6130d8613f0b6130c3613eb1613085613e9a6130486091888a01016a101810181018101810181760a91b8152600b0190565b6a101810181018101810181760a91b8152600b0190565b7f203020302030203020312030272f3e3c2f66696c7465723e3c7265637420776981527f6474683d273130302527206865696768743d273130302527206f7061636974796020820152613d2760f01b604082015260420190565b751293903334b63a32b91e93bab9361411b1b31493979f60511b815260160190565b600082613f3c57613f3c612adc565b500690565b630e4cec4560e31b815260008451613f60816004850160208901612582565b808301905061016160f51b8060048301528551613f84816006850160208a01612582565b60069201918201528351613f9f816008840160208801612582565b602960f81b6008929091019182015260090195945050505050565b7f3c646566733e3c72616469616c4772616469656e742069643d27706700000000815260008451613ff281601c850160208901612582565b731390333c1e939a98129390333c9e939a9812939f60611b601c918401918201528451614026816030840160208901612582565b845191019061403c816030840160208801612582565b7f3c2f72616469616c4772616469656e743e3c2f646566733e00000000000000006030929091019182015260480195945050505050565b6d1e3334b63a32b91034b21e93b83360911b81526000845161409c81600e850160208901612582565b7f2720783d272d3235252720793d272d323525272077696474683d273135302527600e918401918201526e103432b4b3b43a1e93989a9812939f60891b602e82015284516140f181603d840160208901612582565b845191019061410781603d840160208801612582565b7f3c6665436f6d706f7369746520726573756c743d277027206f70657261746f72603d92909101918201527f3d27696e2720696e323d27536f7572636547726170686963272f3e3c66654761605d8201527f75737369616e426c757220737464446576696174696f6e3d2738272072657375607d8201527f6c743d276362272f3e3c66654d657267653e3c66654d657267654e6f64652069609d8201527f6e3d276362272f3e3c66654d657267654e6f646520696e3d2770272f3e3c2f6660bd8201526f32a6b2b933b29f1e17b334b63a32b91f60811b60dd82015260ed0195945050505050565b60008351614201818460208801612582565b835190830190614215818360208801612582565b01949350505050565b6d3c73746f70206f66667365743d2760901b81526000835161424781600e850160208801612582565b6e25272073746f702d636f6c6f723d2760881b600e91840191820152835161427681601d840160208801612582565b6213979f60e91b601d9290910191820152602001949350505050565b733c666554757262756c656e636520747970653d2760601b8152600085516142c1816014850160208a01612582565b702720626173654672657175656e63793d2760781b60149184019182015285516142f2816025840160208a01612582565b672720736565643d2760c01b60259290910191820152845161431b81602d840160208901612582565b6d27206e756d4f6374617665733d2760901b602d9290910191820152835161434a81603b840160208801612582565b6213979f60e91b603b9290910191820152603e019695505050505050565b7f3c6665446966667573654c69676874696e67206c69676874696e672d636f6c6f815262723d2760e81b6020820152600084516143ac816023850160208901612582565b6f2720737572666163655363616c653d2760801b60239184019182015284516143dc816033840160208901612582565b7f273e3c666544697374616e744c6967687420656c65766174696f6e3d2700000060339290910191820152835161441a816050840160208801612582565b7f272f3e3c2f6665446966667573654c69676874696e673e0000000000000000006050929091019182015260670195945050505050565b6b3c636972636c652063783d2760a01b81526000855161447881600c850160208a01612582565b65272063793d2760d01b600c91840191820152855161449e816012840160208a01612582565b642720723d2760d81b6012929091019182015284516144c4816017840160208901612582565b7013903334b63a32b91e93bab9361411b83360791b6017929091019182015283516144f6816028840160208801612582565b631493979f60e11b60289290910191820152602c019695505050505050565b6b3c636972636c652063783d2760a01b81526000855161453c81600c850160208a01612582565b65272063793d2760d01b600c918401918201528551614562816012840160208a01612582565b642720723d2760d81b601292909101918201528451614588816017840160208901612582565b6e272066696c6c3d2775726c2823706760881b6017929091019182015283516145b8816026840160208801612582565b7114939037b830b1b4ba3c9e939a181293979f60711b602692909101918201526038019695505050505050565b630302e30360e41b815260008351614604816004850160208801612582565b63020302e360e41b6004918401918201528351614628816008840160208801612582565b0160080194935050505056fe68747470733a2f2f7777772e636f736d6963776f726c64732e78797a2f73746f726566726f6e742d6d65746164617461a26469706673582212207b89d10d433ed65e0903b6b8feb5ad7e2ebbf3ea353f8a12315ac0b0585129ca64736f6c63430008110033",
  "linkReferences": {},
  "deployedLinkReferences": {}
}