{
  "_format": "hh-sol-artifact-1",
  "contractName": "CosmicWorlds",
  "sourceName": "contracts/CosmicWorlds.sol",
  "abi": [
    {
      "inputs": [],
      "stateMutability": "nonpayable",
      "type": "constructor"
    },
    {
      "inputs": [],
      "name": "ApprovalCallerNotOwnerNorApproved",
      "type": "error"
    },
    {
      "inputs": [],
      "name": "ApprovalQueryForNonexistentToken",
      "type": "error"
    },
    {
      "inputs": [],
      "name": "BalanceQueryForZeroAddress",
      "type": "error"
    },
    {
      "inputs": [],
      "name": "MintERC2309QuantityExceedsLimit",
      "type": "error"
    },
    {
      "inputs": [],
      "name": "MintToZeroAddress",
      "type": "error"
    },
    {
      "inputs": [],
      "name": "MintZeroQuantity",
      "type": "error"
    },
    {
      "inputs": [],
      "name": "OwnerQueryForNonexistentToken",
      "type": "error"
    },
    {
      "inputs": [],
      "name": "OwnershipNotInitializedForExtraData",
      "type": "error"
    },
    {
      "inputs": [],
      "name": "TransferCallerNotOwnerNorApproved",
      "type": "error"
    },
    {
      "inputs": [],
      "name": "TransferFromIncorrectOwner",
      "type": "error"
    },
    {
      "inputs": [],
      "name": "TransferToNonERC721ReceiverImplementer",
      "type": "error"
    },
    {
      "inputs": [],
      "name": "TransferToZeroAddress",
      "type": "error"
    },
    {
      "inputs": [],
      "name": "URIQueryForNonexistentToken",
      "type": "error"
    },
    {
      "anonymous": false,
      "inputs": [
        {
          "indexed": true,
          "internalType": "address",
          "name": "owner",
          "type": "address"
        },
        {
          "indexed": true,
          "internalType": "address",
          "name": "approved",
          "type": "address"
        },
        {
          "indexed": true,
          "internalType": "uint256",
          "name": "tokenId",
          "type": "uint256"
        }
      ],
      "name": "Approval",
      "type": "event"
    },
    {
      "anonymous": false,
      "inputs": [
        {
          "indexed": true,
          "internalType": "address",
          "name": "owner",
          "type": "address"
        },
        {
          "indexed": true,
          "internalType": "address",
          "name": "operator",
          "type": "address"
        },
        {
          "indexed": false,
          "internalType": "bool",
          "name": "approved",
          "type": "bool"
        }
      ],
      "name": "ApprovalForAll",
      "type": "event"
    },
    {
      "anonymous": false,
      "inputs": [
        {
          "indexed": true,
          "internalType": "uint256",
          "name": "fromTokenId",
          "type": "uint256"
        },
        {
          "indexed": false,
          "internalType": "uint256",
          "name": "toTokenId",
          "type": "uint256"
        },
        {
          "indexed": true,
          "internalType": "address",
          "name": "from",
          "type": "address"
        },
        {
          "indexed": true,
          "internalType": "address",
          "name": "to",
          "type": "address"
        }
      ],
      "name": "ConsecutiveTransfer",
      "type": "event"
    },
    {
      "anonymous": false,
      "inputs": [
        {
          "indexed": true,
          "internalType": "address",
          "name": "from",
          "type": "address"
        },
        {
          "indexed": true,
          "internalType": "address",
          "name": "to",
          "type": "address"
        },
        {
          "indexed": true,
          "internalType": "uint256",
          "name": "tokenId",
          "type": "uint256"
        }
      ],
      "name": "Transfer",
      "type": "event"
    },
    {
      "inputs": [],
      "name": "ROYALTY_BPS",
      "outputs": [
        {
          "internalType": "uint16",
          "name": "",
          "type": "uint16"
        }
      ],
      "stateMutability": "view",
      "type": "function"
    },
    {
      "inputs": [],
      "name": "TOKEN_LIMIT",
      "outputs": [
        {
          "internalType": "uint16",
          "name": "",
          "type": "uint16"
        }
      ],
      "stateMutability": "view",
      "type": "function"
    },
    {
      "inputs": [
        {
          "internalType": "address",
          "name": "to",
          "type": "address"
        },
        {
          "internalType": "uint256",
          "name": "tokenId",
          "type": "uint256"
        }
      ],
      "name": "approve",
      "outputs": [],
      "stateMutability": "payable",
      "type": "function"
    },
    {
      "inputs": [
        {
          "internalType": "address",
          "name": "owner",
          "type": "address"
        }
      ],
      "name": "balanceOf",
      "outputs": [
        {
          "internalType": "uint256",
          "name": "",
          "type": "uint256"
        }
      ],
      "stateMutability": "view",
      "type": "function"
    },
    {
      "inputs": [
        {
          "internalType": "uint256",
          "name": "_tokenId",
          "type": "uint256"
        }
      ],
      "name": "generateSvg",
      "outputs": [
        {
          "internalType": "string",
          "name": "",
          "type": "string"
        }
      ],
      "stateMutability": "view",
      "type": "function"
    },
    {
      "inputs": [
        {
          "internalType": "uint256",
          "name": "tokenId",
          "type": "uint256"
        }
      ],
      "name": "getApproved",
      "outputs": [
        {
          "internalType": "address",
          "name": "",
          "type": "address"
        }
      ],
      "stateMutability": "view",
      "type": "function"
    },
    {
      "inputs": [
        {
          "internalType": "address",
          "name": "owner",
          "type": "address"
        },
        {
          "internalType": "address",
          "name": "operator",
          "type": "address"
        }
      ],
      "name": "isApprovedForAll",
      "outputs": [
        {
          "internalType": "bool",
          "name": "",
          "type": "bool"
        }
      ],
      "stateMutability": "view",
      "type": "function"
    },
    {
      "inputs": [
        {
          "internalType": "uint24",
          "name": "_seed",
          "type": "uint24"
        }
      ],
      "name": "mint",
      "outputs": [],
      "stateMutability": "payable",
      "type": "function"
    },
    {
      "inputs": [],
      "name": "name",
      "outputs": [
        {
          "internalType": "string",
          "name": "",
          "type": "string"
        }
      ],
      "stateMutability": "view",
      "type": "function"
    },
    {
      "inputs": [
        {
          "internalType": "uint256",
          "name": "tokenId",
          "type": "uint256"
        }
      ],
      "name": "ownerOf",
      "outputs": [
        {
          "internalType": "address",
          "name": "",
          "type": "address"
        }
      ],
      "stateMutability": "view",
      "type": "function"
    },
    {
      "inputs": [
        {
          "internalType": "address",
          "name": "from",
          "type": "address"
        },
        {
          "internalType": "address",
          "name": "to",
          "type": "address"
        },
        {
          "internalType": "uint256",
          "name": "tokenId",
          "type": "uint256"
        }
      ],
      "name": "safeTransferFrom",
      "outputs": [],
      "stateMutability": "payable",
      "type": "function"
    },
    {
      "inputs": [
        {
          "internalType": "address",
          "name": "from",
          "type": "address"
        },
        {
          "internalType": "address",
          "name": "to",
          "type": "address"
        },
        {
          "internalType": "uint256",
          "name": "tokenId",
          "type": "uint256"
        },
        {
          "internalType": "bytes",
          "name": "_data",
          "type": "bytes"
        }
      ],
      "name": "safeTransferFrom",
      "outputs": [],
      "stateMutability": "payable",
      "type": "function"
    },
    {
      "inputs": [
        {
          "internalType": "address",
          "name": "operator",
          "type": "address"
        },
        {
          "internalType": "bool",
          "name": "approved",
          "type": "bool"
        }
      ],
      "name": "setApprovalForAll",
      "outputs": [],
      "stateMutability": "nonpayable",
      "type": "function"
    },
    {
      "inputs": [
        {
          "internalType": "bytes4",
          "name": "interfaceId",
          "type": "bytes4"
        }
      ],
      "name": "supportsInterface",
      "outputs": [
        {
          "internalType": "bool",
          "name": "",
          "type": "bool"
        }
      ],
      "stateMutability": "view",
      "type": "function"
    },
    {
      "inputs": [],
      "name": "symbol",
      "outputs": [
        {
          "internalType": "string",
          "name": "",
          "type": "string"
        }
      ],
      "stateMutability": "view",
      "type": "function"
    },
    {
      "inputs": [
        {
          "internalType": "uint256",
          "name": "_tokenId",
          "type": "uint256"
        }
      ],
      "name": "tokenURI",
      "outputs": [
        {
          "internalType": "string",
          "name": "",
          "type": "string"
        }
      ],
      "stateMutability": "view",
      "type": "function"
    },
    {
      "inputs": [],
      "name": "totalSupply",
      "outputs": [
        {
          "internalType": "uint256",
          "name": "",
          "type": "uint256"
        }
      ],
      "stateMutability": "view",
      "type": "function"
    },
    {
      "inputs": [
        {
          "internalType": "address",
          "name": "from",
          "type": "address"
        },
        {
          "internalType": "address",
          "name": "to",
          "type": "address"
        },
        {
          "internalType": "uint256",
          "name": "tokenId",
          "type": "uint256"
        }
      ],
      "name": "transferFrom",
      "outputs": [],
      "stateMutability": "payable",
      "type": "function"
    }
  ],
  "bytecode": "0x60806040523480156200001157600080fd5b506040518060400160405280600c81526020017f436f736d6963576f726c647300000000000000000000000000000000000000008152506040518060400160405280600381526020017f435753000000000000000000000000000000000000000000000000000000000081525081600290816200008f91906200033f565b508060039081620000a191906200033f565b50620000b2620000c060201b60201c565b600081905550505062000426565b600090565b600081519050919050565b7f4e487b7100000000000000000000000000000000000000000000000000000000600052604160045260246000fd5b7f4e487b7100000000000000000000000000000000000000000000000000000000600052602260045260246000fd5b600060028204905060018216806200014757607f821691505b6020821081036200015d576200015c620000ff565b5b50919050565b60008190508160005260206000209050919050565b60006020601f8301049050919050565b600082821b905092915050565b600060088302620001c77fffffffffffffffffffffffffffffffffffffffffffffffffffffffffffffffff8262000188565b620001d3868362000188565b95508019841693508086168417925050509392505050565b6000819050919050565b6000819050919050565b6000620002206200021a6200021484620001eb565b620001f5565b620001eb565b9050919050565b6000819050919050565b6200023c83620001ff565b620002546200024b8262000227565b84845462000195565b825550505050565b600090565b6200026b6200025c565b6200027881848462000231565b505050565b5b81811015620002a0576200029460008262000261565b6001810190506200027e565b5050565b601f821115620002ef57620002b98162000163565b620002c48462000178565b81016020851015620002d4578190505b620002ec620002e38562000178565b8301826200027d565b50505b505050565b600082821c905092915050565b60006200031460001984600802620002f4565b1980831691505092915050565b60006200032f838362000301565b9150826002028217905092915050565b6200034a82620000c5565b67ffffffffffffffff811115620003665762000365620000d0565b5b6200037282546200012e565b6200037f828285620002a4565b600060209050601f831160018114620003b75760008415620003a2578287015190505b620003ae858262000321565b8655506200041e565b601f198416620003c78662000163565b60005b82811015620003f157848901518255600182019150602085019450602081019050620003ca565b868310156200041157848901516200040d601f89168262000301565b8355505b6001600288020188555050505b505050505050565b615f3180620004366000396000f3fe6080604052600436106101095760003560e01c80636352211e11610095578063b88d4fde11610064578063b88d4fde14610356578063bc921dc214610372578063c87b56dd146103af578063e985e9c5146103ec578063eaef4d8f1461042957610109565b80636352211e1461028857806370a08231146102c557806395d89b4114610302578063a22cb4651461032d57610109565b8063095ea7b3116100dc578063095ea7b3146101de57806318160ddd146101fa57806323b872dd1461022557806342842e0e1461024157806349c657db1461025d57610109565b806301ffc9a71461010e578063031bd4c41461014b57806306fdde0314610176578063081812fc146101a1575b600080fd5b34801561011a57600080fd5b5061013560048036038101906101309190612a34565b610445565b6040516101429190612a7c565b60405180910390f35b34801561015757600080fd5b506101606104d7565b60405161016d9190612ab4565b60405180910390f35b34801561018257600080fd5b5061018b6104dd565b6040516101989190612b5f565b60405180910390f35b3480156101ad57600080fd5b506101c860048036038101906101c39190612bb7565b61056f565b6040516101d59190612c25565b60405180910390f35b6101f860048036038101906101f39190612c6c565b6105ee565b005b34801561020657600080fd5b5061020f610732565b60405161021c9190612cbb565b60405180910390f35b61023f600480360381019061023a9190612cd6565b610749565b005b61025b60048036038101906102569190612cd6565b610a6b565b005b34801561026957600080fd5b50610272610a8b565b60405161027f9190612ab4565b60405180910390f35b34801561029457600080fd5b506102af60048036038101906102aa9190612bb7565b610a91565b6040516102bc9190612c25565b60405180910390f35b3480156102d157600080fd5b506102ec60048036038101906102e79190612d29565b610aa3565b6040516102f99190612cbb565b60405180910390f35b34801561030e57600080fd5b50610317610b5b565b6040516103249190612b5f565b60405180910390f35b34801561033957600080fd5b50610354600480360381019061034f9190612d82565b610bed565b005b610370600480360381019061036b9190612ef7565b610cf8565b005b34801561037e57600080fd5b5061039960048036038101906103949190612bb7565b610d6b565b6040516103a69190612b5f565b60405180910390f35b3480156103bb57600080fd5b506103d660048036038101906103d19190612bb7565b610dfd565b6040516103e39190612b5f565b60405180910390f35b3480156103f857600080fd5b50610413600480360381019061040e9190612f7a565b610f0f565b6040516104209190612a7c565b60405180910390f35b610443600480360381019061043e9190612ff5565b610fa3565b005b60006301ffc9a760e01b827bffffffffffffffffffffffffffffffffffffffffffffffffffffffff191614806104a057506380ac58cd60e01b827bffffffffffffffffffffffffffffffffffffffffffffffffffffffff1916145b806104d05750635b5e139f60e01b827bffffffffffffffffffffffffffffffffffffffffffffffffffffffff1916145b9050919050565b61020081565b6060600280546104ec90613051565b80601f016020809104026020016040519081016040528092919081815260200182805461051890613051565b80156105655780601f1061053a57610100808354040283529160200191610565565b820191906000526020600020905b81548152906001019060200180831161054857829003601f168201915b5050505050905090565b600061057a826110e5565b6105b0576040517fcf4700e400000000000000000000000000000000000000000000000000000000815260040160405180910390fd5b6006600083815260200190815260200160002060000160009054906101000a900473ffffffffffffffffffffffffffffffffffffffff169050919050565b60006105f982610a91565b90508073ffffffffffffffffffffffffffffffffffffffff1661061a611144565b73ffffffffffffffffffffffffffffffffffffffff161461067d5761064681610641611144565b610f0f565b61067c576040517fcfb3b94200000000000000000000000000000000000000000000000000000000815260040160405180910390fd5b5b826006600084815260200190815260200160002060000160006101000a81548173ffffffffffffffffffffffffffffffffffffffff021916908373ffffffffffffffffffffffffffffffffffffffff160217905550818373ffffffffffffffffffffffffffffffffffffffff168273ffffffffffffffffffffffffffffffffffffffff167f8c5be1e5ebec7d5bd14f71427d1e84f3dd0314c0f7b2291e5b200ac8c7c3b92560405160405180910390a4505050565b600061073c61114c565b6001546000540303905090565b600061075482611151565b90508373ffffffffffffffffffffffffffffffffffffffff168173ffffffffffffffffffffffffffffffffffffffff16146107bb576040517fa114810000000000000000000000000000000000000000000000000000000000815260040160405180910390fd5b6000806107c78461121d565b915091506107dd81876107d8611144565b611244565b610829576107f2866107ed611144565b610f0f565b610828576040517f59c896be00000000000000000000000000000000000000000000000000000000815260040160405180910390fd5b5b600073ffffffffffffffffffffffffffffffffffffffff168573ffffffffffffffffffffffffffffffffffffffff160361088f576040517fea553b3400000000000000000000000000000000000000000000000000000000815260040160405180910390fd5b61089c8686866001611288565b80156108a757600082555b600560008773ffffffffffffffffffffffffffffffffffffffff1673ffffffffffffffffffffffffffffffffffffffff168152602001908152602001600020600081546001900391905081905550600560008673ffffffffffffffffffffffffffffffffffffffff1673ffffffffffffffffffffffffffffffffffffffff16815260200190815260200160002060008154600101919050819055506109758561095188888761128e565b7c0200000000000000000000000000000000000000000000000000000000176112b6565b600460008681526020019081526020016000208190555060007c02000000000000000000000000000000000000000000000000000000008416036109fb57600060018501905060006004600083815260200190815260200160002054036109f95760005481146109f8578360046000838152602001908152602001600020819055505b5b505b838573ffffffffffffffffffffffffffffffffffffffff168773ffffffffffffffffffffffffffffffffffffffff167fddf252ad1be2c89b69c2b068fc378daa952ba7f163c4a11628f55a4df523b3ef60405160405180910390a4610a6386868660016112e1565b505050505050565b610a8683838360405180602001604052806000815250610cf8565b505050565b6103e881565b6000610a9c82611151565b9050919050565b60008073ffffffffffffffffffffffffffffffffffffffff168273ffffffffffffffffffffffffffffffffffffffff1603610b0a576040517f8f4eb60400000000000000000000000000000000000000000000000000000000815260040160405180910390fd5b67ffffffffffffffff600560008473ffffffffffffffffffffffffffffffffffffffff1673ffffffffffffffffffffffffffffffffffffffff16815260200190815260200160002054169050919050565b606060038054610b6a90613051565b80601f0160208091040260200160405190810160405280929190818152602001828054610b9690613051565b8015610be35780601f10610bb857610100808354040283529160200191610be3565b820191906000526020600020905b815481529060010190602001808311610bc657829003601f168201915b5050505050905090565b8060076000610bfa611144565b73ffffffffffffffffffffffffffffffffffffffff1673ffffffffffffffffffffffffffffffffffffffff16815260200190815260200160002060008473ffffffffffffffffffffffffffffffffffffffff1673ffffffffffffffffffffffffffffffffffffffff16815260200190815260200160002060006101000a81548160ff0219169083151502179055508173ffffffffffffffffffffffffffffffffffffffff16610ca7611144565b73ffffffffffffffffffffffffffffffffffffffff167f17307eab39ab6107e8899845ad3d59bd9653f200f220920489ca2b5937696c3183604051610cec9190612a7c565b60405180910390a35050565b610d03848484610749565b60008373ffffffffffffffffffffffffffffffffffffffff163b14610d6557610d2e848484846112e7565b610d64576040517fd1a57ed600000000000000000000000000000000000000000000000000000000815260040160405180910390fd5b5b50505050565b6060610d76826110e5565b8015610d87575061020061ffff1682105b610dc6576040517f08c379a0000000000000000000000000000000000000000000000000000000008152600401610dbd906130ce565b60405180910390fd5b610df66008600084815260200190815260200160002060009054906101000a900462ffffff1662ffffff16611437565b9050919050565b6060610e08826110e5565b610e47576040517f08c379a0000000000000000000000000000000000000000000000000000000008152600401610e3e9061313a565b60405180910390fd5b60006040518060400160405280601981526020017f412062656175746966756c20436f736d696320576f726c642e0000000000000081525090506000604051602001610e9290613249565b60405160208183030381529060405290506000610eae85610d6b565b9050610ee6610ebc86611568565b848484604051602001610ed29493929190613457565b6040516020818303038152906040526116c9565b604051602001610ef69190613518565b6040516020818303038152906040529350505050919050565b6000600760008473ffffffffffffffffffffffffffffffffffffffff1673ffffffffffffffffffffffffffffffffffffffff16815260200190815260200160002060008373ffffffffffffffffffffffffffffffffffffffff1673ffffffffffffffffffffffffffffffffffffffff16815260200190815260200160002060009054906101000a900460ff16905092915050565b61020061ffff16610fb2611841565b1115610ff3576040517f08c379a0000000000000000000000000000000000000000000000000000000008152600401610fea90613586565b60405180910390fd5b60001515600960008362ffffff1662ffffff16815260200190815260200160002060009054906101000a900460ff16151514611064576040517f08c379a000000000000000000000000000000000000000000000000000000000815260040161105b906135f2565b60405180910390fd5b600061106e611854565b9050816008600083815260200190815260200160002060006101000a81548162ffffff021916908362ffffff1602179055506001600960008462ffffff1662ffffff16815260200190815260200160002060006101000a81548160ff0219169083151502179055506110e133600161185d565b5050565b6000816110f061114c565b111580156110ff575060005482105b801561113d575060007c0100000000000000000000000000000000000000000000000000000000600460008581526020019081526020016000205416145b9050919050565b600033905090565b600090565b6000808290508061116061114c565b116111e6576000548110156111e55760006004600083815260200190815260200160002054905060007c01000000000000000000000000000000000000000000000000000000008216036111e3575b600081036111d95760046000836001900393508381526020019081526020016000205490506111af565b8092505050611218565b505b5b6040517fdf2d9b4200000000000000000000000000000000000000000000000000000000815260040160405180910390fd5b919050565b60008060006006600085815260200190815260200160002090508092508254915050915091565b600073ffffffffffffffffffffffffffffffffffffffff8316925073ffffffffffffffffffffffffffffffffffffffff821691508382148383141790509392505050565b50505050565b60008060e883901c905060e86112a5868684611a18565b62ffffff16901b9150509392505050565b600073ffffffffffffffffffffffffffffffffffffffff83169250814260a01b178317905092915050565b50505050565b60008373ffffffffffffffffffffffffffffffffffffffff1663150b7a0261130d611144565b8786866040518563ffffffff1660e01b815260040161132f9493929190613667565b6020604051808303816000875af192505050801561136b57506040513d601f19601f8201168201806040525081019061136891906136c8565b60015b6113e4573d806000811461139b576040519150601f19603f3d011682016040523d82523d6000602084013e6113a0565b606091505b5060008151036113dc576040517fd1a57ed600000000000000000000000000000000000000000000000000000000815260040160405180910390fd5b805181602001fd5b63150b7a0260e01b7bffffffffffffffffffffffffffffffffffffffffffffffffffffffff1916817bffffffffffffffffffffffffffffffffffffffffffffffffffffffff191614915050949350505050565b60606000611449836000610168611a21565b9050600061146260038561145d9190613724565b611a3f565b9050600061147b6003866114769190613724565b611a3f565b9050600061149460038761148f9190613724565b611a3f565b90506000848484846040516020016114af94939291906138d4565b604051602081830303815290604052905060006040516020016114d1906139e1565b604051602081830303815290604052905060006114ed89611aa1565b6114f68a611ad2565b6114ff8b611e9b565b6115088c6120b6565b6115118d61214a565b6040516020016115259594939291906139f6565b604051602081830303815290604052905082828260405160200161154b93929190613bbd565b604051602081830303815290604052975050505050505050919050565b6060600082036115af576040518060400160405280600181526020017f300000000000000000000000000000000000000000000000000000000000000081525090506116c4565b600082905060005b600082146115e0578080600101915050600a82816115d8576115d7613c1a565b5b0491506115b7565b60008167ffffffffffffffff8111156115fc576115fb612dcc565b5b6040519080825280601f01601f19166020018201604052801561162e5781602001600182028036833780820191505090505b50905060008290508593505b600084146116bc57600a848161165357611652613c1a565b5b0660300160f81b8282600190039250828151811061167457611673613c49565b5b60200101907effffffffffffffffffffffffffffffffffffffffffffffffffffffffffffff1916908160001a905350600a84816116b4576116b3613c1a565b5b04935061163a565b819450505050505b919050565b606060008251036116eb5760405180602001604052806000815250905061183c565b6000604051806060016040528060408152602001615ebc604091399050600060036002855161171a9190613724565b6117249190613c78565b60046117309190613ca9565b905060006020826117419190613724565b67ffffffffffffffff81111561175a57611759612dcc565b5b6040519080825280601f01601f19166020018201604052801561178c5781602001600182028036833780820191505090505b509050818152600183018586518101602084015b818310156117fb576003830192508251603f8160121c168501518253600182019150603f81600c1c168501518253600182019150603f8160061c168501518253600182019150603f81168501518253600182019150506117a0565b600389510660018114611815576002811461182557611830565b613d3d60f01b6002830352611830565b603d60f81b60018303525b50505050508093505050505b919050565b600061184b61114c565b60005403905090565b60008054905090565b6000805490506000820361189d576040517fb562e8dd00000000000000000000000000000000000000000000000000000000815260040160405180910390fd5b6118aa6000848385611288565b600160406001901b178202600560008573ffffffffffffffffffffffffffffffffffffffff1673ffffffffffffffffffffffffffffffffffffffff1681526020019081526020016000206000828254019250508190555061192183611912600086600061128e565b61191b8561233d565b176112b6565b6004600083815260200190815260200160002081905550600080838301905073ffffffffffffffffffffffffffffffffffffffff85169150828260007fddf252ad1be2c89b69c2b068fc378daa952ba7f163c4a11628f55a4df523b3ef600080a4600183015b8181146119c257808360007fddf252ad1be2c89b69c2b068fc378daa952ba7f163c4a11628f55a4df523b3ef600080a4600181019050611987565b50600082036119fd576040517f2e07630000000000000000000000000000000000000000000000000000000000815260040160405180910390fd5b806000819055505050611a1360008483856112e1565b505050565b60009392505050565b6060611a36611a3185858561234d565b611568565b90509392505050565b60606000611a5083600060ff61234d565b90506000611a6d600285611a649190613724565b600060ff61234d565b90506000611a8a600186611a819190613724565b600060ff61234d565b9050611a978383836123b9565b9350505050919050565b6060611aac82611568565b604051602001611abc9190613e41565b6040516020818303038152906040529050919050565b60606000611aef600284611ae69190613ca9565b6000600561234d565b9050600060405180602001604052806000815250905060005b82811015611e9057600081600287611b209190613ca9565b611b2a9190613724565b90506000611b3783611568565b9050611b41612902565b611b4e83601460c861234d565b816000018181525050611b648160000151611568565b8160200181905250611b7a8360326103b6611a21565b8160400181905250611b908360006101f4611a21565b8160600181905250611bb884600a85611ba99190613724565b611bb39190613724565b611a3f565b8160800181905250611bcd8360036019611a21565b8160a00181905250611be98484611be49190613724565b611a3f565b8160c00181905250611bfe83604b6061611a21565b8160e00181905250611c26600a8585611c179190613724565b611c219190613724565b611a3f565b8161010001819052506005611c3e846000600a61234d565b11611c7e576040518060400160405280600a81526020017f74757262756c656e636500000000000000000000000000000000000000000000815250611cb5565b6040518060400160405280600c81526020017f6672616374616c4e6f69736500000000000000000000000000000000000000008152505b816101200181905250611cf060028260000151611cd29190613ca9565b611ce1856103e8610fa061234d565b611ceb9190613c78565b611568565b816101600181905250611d1f8160000151611d10856107d0610fa061234d565b611d1a9190613c78565b611568565b816101400181905250611d35836003600a611a21565b816101800181905250611d4b83601e6064611a21565b816101a00181905250611d61836005600a611a21565b816101c00181905250600082826101200151836101600151846101400151611d8888611568565b8661018001518760c00151886101c00151896101a00151604051602001611db7999897969594939291906141d8565b60405160208183030381529060405290506000838360a001518460c001518560e00151866101000151604051602001611df49594939291906144d9565b60405160208183030381529060405290506000836040015184606001518560200151878760400151886060015189602001518b604051602001611e3e989796959493929190614790565b604051602081830303815290604052905087828483604051602001611e6694939291906148b1565b60405160208183030381529060405297505050505050508080611e8890614910565b915050611b08565b508092505050919050565b60606000611ead836103e86033612400565b9050606060005b6033811015611f53576000838260338110611ed257611ed1613c49565b5b6020020151905082611efb82600060028110611ef157611ef0613c49565b5b6020020151611568565b611f1c83600160028110611f1257611f11613c49565b5b6020020151611568565b604051602001611f2e939291906149a4565b6040516020818303038152906040529250508080611f4b90614910565b915050611eb4565b5080604051602001611f659190614a37565b60405160208183030381529060405290506000611f85856001600361234d565b90506000611f96866001600361234d565b90506000611fa383611568565b611fac83611568565b604051602001611fbd929190614cb9565b60405160208183030381529060405290506000611fe5600389611fe09190613724565b611a3f565b90506000611ff689600a605a611a21565b9050600061200f60058b61200a9190613724565b611a3f565b905060008383838660405160200161202a9493929190614ea0565b6040516020818303038152906040529050600061204a8c60036008611a21565b905060006120578d611568565b60405160200161206791906150b7565b60405160208183030381529060405290508683828c8d868f60405160200161209597969594939291906152d2565b6040516020818303038152906040529b505050505050505050505050919050565b606060006040518060400160405280600b81526020017f302e30303220302e3031340000000000000000000000000000000000000000008152509050600061210d6005856121049190613ca9565b601e6050611a21565b905060008261211b86611568565b8360405160200161212e939291906155ce565b6040516020818303038152906040529050809350505050919050565b60606000604051806020016040528060008152509050600080600190505b6103e88210156122cf57600061218d83876121839190613724565b606461019061234d565b9050826103e861219d919061564c565b8111156121b957826103e86121b2919061564c565b9050612202565b606481846103e86121ca919061564c565b6121d4919061564c565b10156122015780836103e86121e9919061564c565b6121f3919061564c565b816121fe9190613724565b90505b5b600061221c84886122139190613724565b600a601e61234d565b905060008361223857816103206122339190613724565b612247565b81610320612246919061564c565b5b90508561225386611568565b6122736002866122639190613c78565b8861226e9190613724565b611568565b61227c84611568565b612290878a61228b9190613724565b611568565b6040516020016122a49594939291906157b0565b604051602081830303815290604052955082856122c19190613724565b945083159350505050612168565b60006122de866001600a611a21565b905060006122fb6002886122f29190613ca9565b60036009611a21565b905060008161230989611568565b848860405160200161231e9493929190615ca9565b6040516020818303038152906040529050809650505050505050919050565b60006001821460e11b9050919050565b600082821161235e578290506123b2565b6000846040516020016123719190612cbb565b6040516020818303038152906040528051906020012060001c9050838484612399919061564c565b826123a49190615d29565b6123ae9190613724565b9150505b9392505050565b60606123c48461250a565b6123cd8461250a565b6123d68461250a565b6040516020016123e893929190615df2565b60405160208183030381529060405290509392505050565b612408612978565b6000600183612417919061564c565b846124229190613c78565b905061242c612978565b60006101f4905060005b858110156124fc576000848261244c9190613ca9565b905060006103e8838b61245f9190613724565b6124699190613724565b9050600061247a826000601461234d565b90506000603261248d846000606461234d565b119050806124a65781866124a1919061564c565b6124b3565b81866124b29190613724565b5b95506040518060400160405280858152602001878152508786603381106124dd576124dc613c49565b5b60200201819052505050505080806124f490614910565b915050612436565b508193505050509392505050565b60606101008210612550576040517f08c379a000000000000000000000000000000000000000000000000000000000815260040161254790615e9b565b60405180910390fd5b60008203612595576040518060400160405280600181526020017f300000000000000000000000000000000000000000000000000000000000000081525090506128fd565b6060600a83101561265057600167ffffffffffffffff8111156125bb576125ba612dcc565b5b6040519080825280601f01601f1916602001820160405280156125ed5781602001600182028036833780820191505090505b509050600a838161260157612600613c1a565b5b0660300160f81b8160008151811061261c5761261b613c49565b5b60200101907effffffffffffffffffffffffffffffffffffffffffffffffffffffffffffff1916908160001a9053506128f8565b606483101561277457600267ffffffffffffffff81111561267457612673612dcc565b5b6040519080825280601f01601f1916602001820160405280156126a65781602001600182028036833780820191505090505b509050600a83816126ba576126b9613c1a565b5b0660300160f81b816001815181106126d5576126d4613c49565b5b60200101907effffffffffffffffffffffffffffffffffffffffffffffffffffffffffffff1916908160001a905350600a80848161271657612715613c1a565b5b048161272557612724613c1a565b5b0660300160f81b816000815181106127405761273f613c49565b5b60200101907effffffffffffffffffffffffffffffffffffffffffffffffffffffffffffff1916908160001a9053506128f7565b600367ffffffffffffffff81111561278f5761278e612dcc565b5b6040519080825280601f01601f1916602001820160405280156127c15781602001600182028036833780820191505090505b509050600a83816127d5576127d4613c1a565b5b0660300160f81b816002815181106127f0576127ef613c49565b5b60200101907effffffffffffffffffffffffffffffffffffffffffffffffffffffffffffff1916908160001a905350600a80848161283157612830613c1a565b5b04816128405761283f613c1a565b5b0660300160f81b8160018151811061285b5761285a613c49565b5b60200101907effffffffffffffffffffffffffffffffffffffffffffffffffffffffffffff1916908160001a905350600a6064848161289d5761289c613c1a565b5b04816128ac576128ab613c1a565b5b0660300160f81b816000815181106128c7576128c6613c49565b5b60200101907effffffffffffffffffffffffffffffffffffffffffffffffffffffffffffff1916908160001a9053505b5b809150505b919050565b604051806101e001604052806000815260200160608152602001606081526020016060815260200160608152602001606081526020016060815260200160608152602001606081526020016060815260200160608152602001606081526020016060815260200160608152602001606081525090565b6040518061066001604052806033905b6129906129a6565b8152602001906001900390816129885790505090565b6040518060400160405280600290602082028036833780820191505090505090565b6000604051905090565b600080fd5b600080fd5b60007fffffffff0000000000000000000000000000000000000000000000000000000082169050919050565b612a11816129dc565b8114612a1c57600080fd5b50565b600081359050612a2e81612a08565b92915050565b600060208284031215612a4a57612a496129d2565b5b6000612a5884828501612a1f565b91505092915050565b60008115159050919050565b612a7681612a61565b82525050565b6000602082019050612a916000830184612a6d565b92915050565b600061ffff82169050919050565b612aae81612a97565b82525050565b6000602082019050612ac96000830184612aa5565b92915050565b600081519050919050565b600082825260208201905092915050565b60005b83811015612b09578082015181840152602081019050612aee565b60008484015250505050565b6000601f19601f8301169050919050565b6000612b3182612acf565b612b3b8185612ada565b9350612b4b818560208601612aeb565b612b5481612b15565b840191505092915050565b60006020820190508181036000830152612b798184612b26565b905092915050565b6000819050919050565b612b9481612b81565b8114612b9f57600080fd5b50565b600081359050612bb181612b8b565b92915050565b600060208284031215612bcd57612bcc6129d2565b5b6000612bdb84828501612ba2565b91505092915050565b600073ffffffffffffffffffffffffffffffffffffffff82169050919050565b6000612c0f82612be4565b9050919050565b612c1f81612c04565b82525050565b6000602082019050612c3a6000830184612c16565b92915050565b612c4981612c04565b8114612c5457600080fd5b50565b600081359050612c6681612c40565b92915050565b60008060408385031215612c8357612c826129d2565b5b6000612c9185828601612c57565b9250506020612ca285828601612ba2565b9150509250929050565b612cb581612b81565b82525050565b6000602082019050612cd06000830184612cac565b92915050565b600080600060608486031215612cef57612cee6129d2565b5b6000612cfd86828701612c57565b9350506020612d0e86828701612c57565b9250506040612d1f86828701612ba2565b9150509250925092565b600060208284031215612d3f57612d3e6129d2565b5b6000612d4d84828501612c57565b91505092915050565b612d5f81612a61565b8114612d6a57600080fd5b50565b600081359050612d7c81612d56565b92915050565b60008060408385031215612d9957612d986129d2565b5b6000612da785828601612c57565b9250506020612db885828601612d6d565b9150509250929050565b600080fd5b600080fd5b7f4e487b7100000000000000000000000000000000000000000000000000000000600052604160045260246000fd5b612e0482612b15565b810181811067ffffffffffffffff82111715612e2357612e22612dcc565b5b80604052505050565b6000612e366129c8565b9050612e428282612dfb565b919050565b600067ffffffffffffffff821115612e6257612e61612dcc565b5b612e6b82612b15565b9050602081019050919050565b82818337600083830152505050565b6000612e9a612e9584612e47565b612e2c565b905082815260208101848484011115612eb657612eb5612dc7565b5b612ec1848285612e78565b509392505050565b600082601f830112612ede57612edd612dc2565b5b8135612eee848260208601612e87565b91505092915050565b60008060008060808587031215612f1157612f106129d2565b5b6000612f1f87828801612c57565b9450506020612f3087828801612c57565b9350506040612f4187828801612ba2565b925050606085013567ffffffffffffffff811115612f6257612f616129d7565b5b612f6e87828801612ec9565b91505092959194509250565b60008060408385031215612f9157612f906129d2565b5b6000612f9f85828601612c57565b9250506020612fb085828601612c57565b9150509250929050565b600062ffffff82169050919050565b612fd281612fba565b8114612fdd57600080fd5b50565b600081359050612fef81612fc9565b92915050565b60006020828403121561300b5761300a6129d2565b5b600061301984828501612fe0565b91505092915050565b7f4e487b7100000000000000000000000000000000000000000000000000000000600052602260045260246000fd5b6000600282049050600182168061306957607f821691505b60208210810361307c5761307b613022565b5b50919050565b7f62616420746f6b656e2049440000000000000000000000000000000000000000600082015250565b60006130b8600c83612ada565b91506130c382613082565b602082019050919050565b600060208201905081810360008301526130e7816130ab565b9050919050565b7f494420646f65736e277420657869737400000000000000000000000000000000600082015250565b6000613124601083612ada565b915061312f826130ee565b602082019050919050565b6000602082019050818103600083015261315381613117565b9050919050565b600081905092915050565b7f22636f70797269676874223a2022486f6c646572206f662074686973204e465460008201527f206f776e732069747320636f707972696768742e2053616c65206f662074686960208201527f73204e46542061737369676e7320636f7079726967687420746f20627579657260408201527f2e20427579657220262073656c6c6572206167726565207061796d656e74206f60608201527f6620726f79616c747920746f206d696e746572206f6e2073616c652e22000000608082015250565b6000613233609d8361315a565b915061323e82613165565b609d82019050919050565b600061325482613226565b9150819050919050565b7f7b226e616d65223a2241575a2023000000000000000000000000000000000000600082015250565b6000613294600e8361315a565b915061329f8261325e565b600e82019050919050565b60006132b582612acf565b6132bf818561315a565b93506132cf818560208601612aeb565b80840191505092915050565b7f3a20000000000000000000000000000000000000000000000000000000000000600082015250565b600061331160028361315a565b915061331c826132db565b600282019050919050565b7f222c20226465736372697074696f6e223a20224f6e2d636861696e2067656e6560008201527f72617469766520436f736d696320576f726c642e2068747470733a2f2f77777760208201527f2e636f736d6963776f726c64732e78797a20222c200000000000000000000000604082015250565b60006133a960558361315a565b91506133b482613327565b605582019050919050565b7f2c2022696d616765223a22646174613a696d6167652f7376672b786d6c2c0000600082015250565b60006133f5601e8361315a565b9150613400826133bf565b601e82019050919050565b7f227d000000000000000000000000000000000000000000000000000000000000600082015250565b600061344160028361315a565b915061344c8261340b565b600282019050919050565b600061346282613287565b915061346e82876132aa565b915061347982613304565b915061348582866132aa565b91506134908261339c565b915061349c82856132aa565b91506134a7826133e8565b91506134b382846132aa565b91506134be82613434565b915081905095945050505050565b7f646174613a6170706c69636174696f6e2f6a736f6e3b6261736536342c000000600082015250565b6000613502601d8361315a565b915061350d826134cc565b601d82019050919050565b6000613523826134f5565b915061352f82846132aa565b915081905092915050565b7f546f6b656e206c696d6974207265616368656400000000000000000000000000600082015250565b6000613570601383612ada565b915061357b8261353a565b602082019050919050565b6000602082019050818103600083015261359f81613563565b9050919050565b7f5365656420616c72656164792075736564000000000000000000000000000000600082015250565b60006135dc601183612ada565b91506135e7826135a6565b602082019050919050565b6000602082019050818103600083015261360b816135cf565b9050919050565b600081519050919050565b600082825260208201905092915050565b600061363982613612565b613643818561361d565b9350613653818560208601612aeb565b61365c81612b15565b840191505092915050565b600060808201905061367c6000830187612c16565b6136896020830186612c16565b6136966040830185612cac565b81810360608301526136a8818461362e565b905095945050505050565b6000815190506136c281612a08565b92915050565b6000602082840312156136de576136dd6129d2565b5b60006136ec848285016136b3565b91505092915050565b7f4e487b7100000000000000000000000000000000000000000000000000000000600052601160045260246000fd5b600061372f82612b81565b915061373a83612b81565b9250828201905080821115613752576137516136f5565b5b92915050565b7f6c696e6561722d6772616469656e742800000000000000000000000000000000600082015250565b600061378e60108361315a565b915061379982613758565b601082019050919050565b7f6465672c20000000000000000000000000000000000000000000000000000000600082015250565b60006137da60058361315a565b91506137e5826137a4565b600582019050919050565b7f2030252c20000000000000000000000000000000000000000000000000000000600082015250565b600061382660058361315a565b9150613831826137f0565b600582019050919050565b7f203335252c200000000000000000000000000000000000000000000000000000600082015250565b600061387260068361315a565b915061387d8261383c565b600682019050919050565b7f2031303025290000000000000000000000000000000000000000000000000000600082015250565b60006138be60068361315a565b91506138c982613888565b600682019050919050565b60006138df82613781565b91506138eb82876132aa565b91506138f6826137cd565b915061390282866132aa565b915061390d82613819565b915061391982856132aa565b915061392482613865565b915061393082846132aa565b915061393b826138b1565b915081905095945050505050565b7f3c646566733e3c636c6970506174682069643d276d6173746572436c6970273e60008201527f3c7265637420783d27302720793d2730272077696474683d273130303027206860208201527f65696768743d2731303030272f3e3c2f636c6970506174683e3c2f646566733e604082015250565b60006139cb60608361315a565b91506139d682613949565b606082019050919050565b60006139ec826139be565b9150819050919050565b6000613a0282886132aa565b9150613a0e82876132aa565b9150613a1a82866132aa565b9150613a2682856132aa565b9150613a3282846132aa565b91508190509695505050505050565b7f3c73766720786d6c6e733d27687474703a2f2f7777772e77332e6f72672f323060008201527f30302f737667272076696577426f783d2730203020313030302031303030272060208201527f7374796c653d276261636b67726f756e642d696d6167653a0000000000000000604082015250565b6000613ac360588361315a565b9150613ace82613a41565b605882019050919050565b7f273e000000000000000000000000000000000000000000000000000000000000600082015250565b6000613b0f60028361315a565b9150613b1a82613ad9565b600282019050919050565b7f3c6720636c69702d706174683d2775726c28236d6173746572436c697029273e600082015250565b6000613b5b60208361315a565b9150613b6682613b25565b602082019050919050565b7f3c2f673e3c2f7376673e00000000000000000000000000000000000000000000600082015250565b6000613ba7600a8361315a565b9150613bb282613b71565b600a82019050919050565b6000613bc882613ab6565b9150613bd482866132aa565b9150613bdf82613b02565b9150613beb82856132aa565b9150613bf682613b4e565b9150613c0282846132aa565b9150613c0d82613b9a565b9150819050949350505050565b7f4e487b7100000000000000000000000000000000000000000000000000000000600052601260045260246000fd5b7f4e487b7100000000000000000000000000000000000000000000000000000000600052603260045260246000fd5b6000613c8382612b81565b9150613c8e83612b81565b925082613c9e57613c9d613c1a565b5b828204905092915050565b6000613cb482612b81565b9150613cbf83612b81565b9250828202613ccd81612b81565b91508282048414831517613ce457613ce36136f5565b5b5092915050565b7f3c66696c7465722069643d277374617273273e3c666554757262756c656e636560008201527f20626173654672657175656e63793d27302e322720736565643d270000000000602082015250565b6000613d47603b8361315a565b9150613d5282613ceb565b603b82019050919050565b7f272f3e3c6665436f6c6f724d61747269782076616c7565733d2730203020302060008201527f39202d342030203020302039202d342030203020302039202d3420302030203060208201527f20302031272f3e3c2f66696c7465723e3c726563742077696474683d2731303060408201527f2527206865696768743d273130302527206f7061636974793d2735302527206660608201527f696c7465723d2775726c2823737461727329272f3e0000000000000000000000608082015250565b6000613e2b60958361315a565b9150613e3682613d5d565b609582019050919050565b6000613e4c82613d3a565b9150613e5882846132aa565b9150613e6382613e1e565b915081905092915050565b7f3c66696c7465722069643d27706c616e657446696c7465720000000000000000600082015250565b6000613ea460188361315a565b9150613eaf82613e6e565b601882019050919050565b7f273e3c666554757262756c656e636520747970653d2700000000000000000000600082015250565b6000613ef060168361315a565b9150613efb82613eba565b601682019050919050565b7f2720626173654672657175656e63793d27302e30300000000000000000000000600082015250565b6000613f3c60158361315a565b9150613f4782613f06565b601582019050919050565b7f20302e3000000000000000000000000000000000000000000000000000000000600082015250565b6000613f8860048361315a565b9150613f9382613f52565b600482019050919050565b7f2720736565643d27000000000000000000000000000000000000000000000000600082015250565b6000613fd460088361315a565b9150613fdf82613f9e565b600882019050919050565b7f27206e756d4f6374617665733d27000000000000000000000000000000000000600082015250565b6000614020600e8361315a565b915061402b82613fea565b600e82019050919050565b7f272f3e3c6665446966667573654c69676874696e67206c69676874696e672d6360008201527f6f6c6f723d270000000000000000000000000000000000000000000000000000602082015250565b600061409260268361315a565b915061409d82614036565b602682019050919050565b7f2720737572666163655363616c653d2700000000000000000000000000000000600082015250565b60006140de60108361315a565b91506140e9826140a8565b601082019050919050565b7f273e3c666544697374616e744c6967687420656c65766174696f6e3d27000000600082015250565b600061412a601d8361315a565b9150614135826140f4565b601d82019050919050565b7f272f3e3c2f6665446966667573654c69676874696e673e3c6665436f6d706f7360008201527f697465206f70657261746f723d27696e2720696e323d27536f7572636547726160208201527f70686963272f3e3c2f66696c7465723e00000000000000000000000000000000604082015250565b60006141c260508361315a565b91506141cd82614140565b605082019050919050565b60006141e382613e97565b91506141ef828c6132aa565b91506141fa82613ee3565b9150614206828b6132aa565b915061421182613f2f565b915061421d828a6132aa565b915061422882613f7b565b915061423482896132aa565b915061423f82613fc7565b915061424b82886132aa565b915061425682614013565b915061426282876132aa565b915061426d82614085565b915061427982866132aa565b9150614284826140d1565b915061429082856132aa565b915061429b8261411d565b91506142a782846132aa565b91506142b2826141b5565b91508190509a9950505050505050505050565b7f3c646566733e3c72616469616c4772616469656e742069643d27706c616e657460008201527f4772616469656e74000000000000000000000000000000000000000000000000602082015250565b600061432160288361315a565b915061432c826142c5565b602882019050919050565b7f272066783d27353025272066793d27353025273e3c73746f70206f666673657460008201527f3d27000000000000000000000000000000000000000000000000000000000000602082015250565b600061439360228361315a565b915061439e82614337565b602282019050919050565b7f25272073746f702d636f6c6f723d270000000000000000000000000000000000600082015250565b60006143df600f8361315a565b91506143ea826143a9565b600f82019050919050565b7f27202f3e00000000000000000000000000000000000000000000000000000000600082015250565b600061442b60048361315a565b9150614436826143f5565b600482019050919050565b7f3c73746f70206f66667365743d27000000000000000000000000000000000000600082015250565b6000614477600e8361315a565b915061448282614441565b600e82019050919050565b7f3c2f72616469616c4772616469656e743e3c2f646566733e0000000000000000600082015250565b60006144c360188361315a565b91506144ce8261448d565b601882019050919050565b60006144e482614314565b91506144f082886132aa565b91506144fb82614386565b915061450782876132aa565b9150614512826143d2565b915061451e82866132aa565b91506145298261441e565b91506145348261446a565b915061454082856132aa565b915061454b826143d2565b915061455782846132aa565b91506145628261441e565b915061456d826144b6565b91508190509695505050505050565b7f3c636972636c652063783d270000000000000000000000000000000000000000600082015250565b60006145b2600c8361315a565b91506145bd8261457c565b600c82019050919050565b7f272063793d270000000000000000000000000000000000000000000000000000600082015250565b60006145fe60068361315a565b9150614609826145c8565b600682019050919050565b7f2720723d27000000000000000000000000000000000000000000000000000000600082015250565b600061464a60058361315a565b915061465582614614565b600582019050919050565b7f272066696c7465723d2775726c2823706c616e657446696c7465720000000000600082015250565b6000614696601b8361315a565b91506146a182614660565b601b82019050919050565b7f29272f3e3c636972636c652063783d2700000000000000000000000000000000600082015250565b60006146e260108361315a565b91506146ed826146ac565b601082019050919050565b7f272066696c6c3d2775726c2823706c616e65744772616469656e740000000000600082015250565b600061472e601b8361315a565b9150614739826146f8565b601b82019050919050565b7f27206f7061636974793d27302e35272f3e000000000000000000000000000000600082015250565b600061477a60118361315a565b915061478582614744565b601182019050919050565b600061479b826145a5565b91506147a7828b6132aa565b91506147b2826145f1565b91506147be828a6132aa565b91506147c98261463d565b91506147d582896132aa565b91506147e082614689565b91506147ec82886132aa565b91506147f7826146d5565b915061480382876132aa565b915061480e826145f1565b915061481a82866132aa565b91506148258261463d565b915061483182856132aa565b915061483c82614721565b915061484882846132aa565b91506148538261476d565b91508190509998505050505050505050565b7f2000000000000000000000000000000000000000000000000000000000000000600082015250565b600061489b60018361315a565b91506148a682614865565b600182019050919050565b60006148bd82876132aa565b91506148c88261488e565b91506148d482866132aa565b91506148df8261488e565b91506148eb82856132aa565b91506148f68261488e565b915061490282846132aa565b915081905095945050505050565b600061491b82612b81565b91507fffffffffffffffffffffffffffffffffffffffffffffffffffffffffffffffff820361494d5761494c6136f5565b5b600182019050919050565b7f2c00000000000000000000000000000000000000000000000000000000000000600082015250565b600061498e60018361315a565b915061499982614958565b600182019050919050565b60006149b082866132aa565b91506149bb8261488e565b91506149c782856132aa565b91506149d282614981565b91506149de82846132aa565b9150819050949350505050565b7f20313030302c31303030202d312c313030300000000000000000000000000000600082015250565b6000614a2160128361315a565b9150614a2c826149eb565b601282019050919050565b6000614a4382846132aa565b9150614a4e82614a14565b915081905092915050565b7f3c66696c7465722069643d276d6f756e7461696e46696c7465722720783d273060008201527f252720793d273025272077696474683d273130302527206865696768743d273160208201527f303025273e3c666554757262756c656e636520747970653d276672616374616c60408201527f4e6f6973652720626173654672657175656e63793d27302e3000000000000000606082015250565b6000614b0160798361315a565b9150614b0c82614a59565b607982019050919050565b7f2720726573756c743d276e6f69736527206e756d4f6374617665733d2731352760008201527f202f3e3c6665446966667573654c69676874696e6720696e3d276e6f6973652760208201527f206c69676874696e672d636f6c6f723d2777686974652720737572666163655360408201527f63616c653d270000000000000000000000000000000000000000000000000000606082015250565b6000614bbf60668361315a565b9150614bca82614b17565b606682019050919050565b7f273e3c666544697374616e744c6967687420617a696d7574683d27343527206560008201527f6c65766174696f6e3d27313027202f3e3c2f6665446966667573654c6967687460208201527f696e673e3c6665436f6d706f73697465206f70657261746f723d27696e27206960408201527f6e3d27726970706c65732720696e323d27536f7572636547726170686963272f60608201527f3e3c2f66696c7465723e00000000000000000000000000000000000000000000608082015250565b6000614ca3608a8361315a565b9150614cae82614bd5565b608a82019050919050565b6000614cc482614af4565b9150614cd082856132aa565b9150614cdb82614bb2565b9150614ce782846132aa565b9150614cf282614c96565b91508190509392505050565b7f3c646566733e3c6c696e6561724772616469656e742069643d276d6f756e746160008201527f696e4772616469656e74273e3c73746f70206f66667365743d2735252720737460208201527f6f702d636f6c6f723d2700000000000000000000000000000000000000000000604082015250565b6000614d80604a8361315a565b9150614d8b82614cfe565b604a82019050919050565b7f27202f3e3c73746f70206f66667365743d270000000000000000000000000000600082015250565b6000614dcc60128361315a565b9150614dd782614d96565b601282019050919050565b7f27202f3e3c73746f70206f66667365743d27393525272073746f702d636f6c6f60008201527f723d270000000000000000000000000000000000000000000000000000000000602082015250565b6000614e3e60238361315a565b9150614e4982614de2565b602382019050919050565b7f27202f3e3c2f6c696e6561724772616469656e743e3c2f646566733e00000000600082015250565b6000614e8a601c8361315a565b9150614e9582614e54565b601c82019050919050565b6000614eab82614d73565b9150614eb782876132aa565b9150614ec282614dbf565b9150614ece82866132aa565b9150614ed9826143d2565b9150614ee582856132aa565b9150614ef082614e31565b9150614efc82846132aa565b9150614f0782614e7d565b915081905095945050505050565b7f3c66696c7465722069643d2773686164696e6746696c746572273e3c6665547560008201527f7262756c656e636520747970653d276672616374616c4e6f697365276261736560208201527f4672657175656e63793d27302e30303420302e3031276e756d4f63746176657360408201527f3d273227736565643d2700000000000000000000000000000000000000000000606082015250565b6000614fbd606a8361315a565b9150614fc882614f15565b606a82019050919050565b7f272f3e3c6665436f6c6f724d61747269782076616c7565733d2730203120302060008201527f30202d342031203120302030202d342031203020302030202d3420302031203160208201527f2030202d31272f3e3c6665436f6d706f73697465206f70657261746f723d276960408201527f6e2720696e3d27726970706c65732720696e323d27536f75726365477261706860608201527f6963272f3e3c2f66696c7465723e000000000000000000000000000000000000608082015250565b60006150a1608e8361315a565b91506150ac82614fd3565b608e82019050919050565b60006150c282614fb0565b91506150ce82846132aa565b91506150d982615094565b915081905092915050565b7f3c706f6c79676f6e20706f696e74733d27000000000000000000000000000000600082015250565b600061511a60118361315a565b9150615125826150e4565b601182019050919050565b7f2766696c7465723d2775726c28236d6f756e7461696e46696c74657229272f3e60008201527f3c706f6c79676f6e20706f696e74733d27000000000000000000000000000000602082015250565b600061518c60318361315a565b915061519782615130565b603182019050919050565b7f2766696c6c3d2775726c28236d6f756e7461696e4772616469656e7429276f7060008201527f61636974793d27302e0000000000000000000000000000000000000000000000602082015250565b60006151fe60298361315a565b9150615209826151a2565b602982019050919050565b7f272f3e3c706f6c79676f6e20706f696e74733d27000000000000000000000000600082015250565b600061524a60148361315a565b915061525582615214565b601482019050919050565b7f2766696c7465723d2775726c282373686164696e6746696c74657229276f706160008201527f636974793d27302e35272f3e0000000000000000000000000000000000000000602082015250565b60006152bc602c8361315a565b91506152c782615260565b602c82019050919050565b60006152de828a6132aa565b91506152ea82896132aa565b91506152f682886132aa565b91506153018261510d565b915061530d82876132aa565b91506153188261517f565b915061532482866132aa565b915061532f826151f1565b915061533b82856132aa565b91506153468261523d565b915061535282846132aa565b915061535d826152af565b915081905098975050505050505050565b7f3c66696c7465722069643d2766696c746572273e000000000000000000000000600082015250565b60006153a460148361315a565b91506153af8261536e565b601482019050919050565b7f3c666554757262756c656e636520747970653d276672616374616c4e6f69736560008201527f2720000000000000000000000000000000000000000000000000000000000000602082015250565b600061541660228361315a565b9150615421826153ba565b602282019050919050565b7f626173654672657175656e63793d270000000000000000000000000000000000600082015250565b6000615462600f8361315a565b915061546d8261542c565b600f82019050919050565b7f2700000000000000000000000000000000000000000000000000000000000000600082015250565b60006154ae60018361315a565b91506154b982615478565b600182019050919050565b7f6e756d4f6374617665733d273230302720736565643d27000000000000000000600082015250565b60006154fa60178361315a565b9150615505826154c4565b601782019050919050565b7f27202f3e3c2f66696c7465723e3c726563742077696474683d2731303025272060008201527f6865696768743d273130302527206f7061636974793d27000000000000000000602082015250565b600061556c60378361315a565b915061557782615510565b603782019050919050565b7f25272066696c7465723d2775726c282366696c74657229272f3e000000000000600082015250565b60006155b8601a8361315a565b91506155c382615582565b601a82019050919050565b60006155d982615397565b91506155e482615409565b91506155ef82615455565b91506155fb82866132aa565b9150615606826154a1565b9150615611826154ed565b915061561d82856132aa565b91506156288261555f565b915061563482846132aa565b915061563f826155ab565b9150819050949350505050565b600061565782612b81565b915061566283612b81565b925082820390508181111561567a576156796136f5565b5b92915050565b7f4320000000000000000000000000000000000000000000000000000000000000600082015250565b60006156b660028361315a565b91506156c182615680565b600282019050919050565b7f203830302c200000000000000000000000000000000000000000000000000000600082015250565b600061570260068361315a565b915061570d826156cc565b600682019050919050565b7f2c20000000000000000000000000000000000000000000000000000000000000600082015250565b600061574e60028361315a565b915061575982615718565b600282019050919050565b7f203830300a0d0000000000000000000000000000000000000000000000000000600082015250565b600061579a60068361315a565b91506157a582615764565b600682019050919050565b60006157bc82886132aa565b91506157c7826156a9565b91506157d382876132aa565b91506157de826156f5565b91506157ea82866132aa565b91506157f58261488e565b915061580182856132aa565b915061580c82615741565b915061581882846132aa565b91506158238261578d565b91508190509695505050505050565b7f3c66696c7465722069643d277761746572273e3c666554757262756c656e636560008201527f20747970653d2774757262756c656e63652720626173654672657175656e637960208201527f3d27302e30300000000000000000000000000000000000000000000000000000604082015250565b60006158b460468361315a565b91506158bf82615832565b604682019050919050565b7f202e313127206e756d4f6374617665733d27342720736565643d270000000000600082015250565b6000615900601b8361315a565b915061590b826158ca565b601b82019050919050565b7f272f3e0000000000000000000000000000000000000000000000000000000000600082015250565b600061594c60038361315a565b915061595782615916565b600382019050919050565b7f3c6665436f6d706f6e656e745472616e7366657220726573756c743d2777617660008201527f65273e3c666546756e635220747970653d276c696e6561722720736c6f70653d60208201527f27302e312720696e746572636570743d272d302e303527202f3e3c666546756e60408201527f634720747970653d2767616d6d612720616d706c69747564653d27302e37352760608201527f206578706f6e656e743d27302e3627206f66667365743d27302e303527202f3e60808201527f3c666546756e634220747970653d2767616d6d612720616d706c69747564653d60a08201527f27302e3827206578706f6e656e743d27302e3427206f66667365743d27302e3060c08201527f35272f3e3c666546756e634120747970653d276c696e6561722720736c6f706560e08201527f3d2700000000000000000000000000000000000000000000000000000000000061010082015250565b6000615aca6101028361315a565b9150615ad582615962565b61010282019050919050565b7f27202f3e3c2f6665436f6d706f6e656e745472616e736665723e3c6665466c6f60008201527f6f6420666c6f6f642d636f6c6f723d276379616e27202f3e3c6665436f6d706f60208201527f7369746520696e3d277761766527202f3e3c6665436f6d706f7369746520696e60408201527f323d27536f75726365416c70686127206f70657261746f723d27696e27202f3e60608201527f3c2f66696c7465723e3c7061746820643d274d20302031303030204c2030203860808201527f303020000000000000000000000000000000000000000000000000000000000060a082015250565b6000615bd560a38361315a565b9150615be082615ae1565b60a382019050919050565b7f4c203130303020383030204c20313030302031303030272066696c7465723d2760008201527f75726c282377617465722927207374726f6b653d27636c65617227207374726f60208201527f6b652d77696474683d2730272066696c6c2d6f7061636974793d27302e35272f60408201527f3e00000000000000000000000000000000000000000000000000000000000000606082015250565b6000615c9360618361315a565b9150615c9e82615beb565b606182019050919050565b6000615cb4826158a7565b9150615cc082876132aa565b9150615ccb826158f3565b9150615cd782866132aa565b9150615ce28261593f565b9150615ced82615abc565b9150615cf982856132aa565b9150615d0482615bc8565b9150615d1082846132aa565b9150615d1b82615c86565b915081905095945050505050565b6000615d3482612b81565b9150615d3f83612b81565b925082615d4f57615d4e613c1a565b5b828206905092915050565b7f7267622800000000000000000000000000000000000000000000000000000000600082015250565b6000615d9060048361315a565b9150615d9b82615d5a565b600482019050919050565b7f2900000000000000000000000000000000000000000000000000000000000000600082015250565b6000615ddc60018361315a565b9150615de782615da6565b600182019050919050565b6000615dfd82615d83565b9150615e0982866132aa565b9150615e1482615741565b9150615e2082856132aa565b9150615e2b82615741565b9150615e3782846132aa565b9150615e4282615dcf565b9150819050949350505050565b7f696e70757420746f6f2062696700000000000000000000000000000000000000600082015250565b6000615e85600d83612ada565b9150615e9082615e4f565b602082019050919050565b60006020820190508181036000830152615eb481615e78565b905091905056fe4142434445464748494a4b4c4d4e4f505152535455565758595a6162636465666768696a6b6c6d6e6f707172737475767778797a303132333435363738392b2fa26469706673582212203982b21a8f84b35b4f71f0d1e39ae2a1df47c4fee43ffd932018d73837a5fd6464736f6c63430008110033",
  "linkReferences": {},
  "deployedLinkReferences": {}
}