{
  "_format": "hh-sol-artifact-1",
  "contractName": "CosmicWorlds",
  "sourceName": "contracts/CosmicWorlds.sol",
  "abi": [
    {
      "inputs": [],
      "stateMutability": "nonpayable",
      "type": "constructor"
    },
    {
      "inputs": [],
      "name": "ApprovalCallerNotOwnerNorApproved",
      "type": "error"
    },
    {
      "inputs": [],
      "name": "ApprovalQueryForNonexistentToken",
      "type": "error"
    },
    {
      "inputs": [],
      "name": "BalanceQueryForZeroAddress",
      "type": "error"
    },
    {
      "inputs": [],
      "name": "InvalidQueryRange",
      "type": "error"
    },
    {
      "inputs": [],
      "name": "MintERC2309QuantityExceedsLimit",
      "type": "error"
    },
    {
      "inputs": [],
      "name": "MintToZeroAddress",
      "type": "error"
    },
    {
      "inputs": [],
      "name": "MintZeroQuantity",
      "type": "error"
    },
    {
      "inputs": [],
      "name": "OwnerQueryForNonexistentToken",
      "type": "error"
    },
    {
      "inputs": [],
      "name": "OwnershipNotInitializedForExtraData",
      "type": "error"
    },
    {
      "inputs": [],
      "name": "TransferCallerNotOwnerNorApproved",
      "type": "error"
    },
    {
      "inputs": [],
      "name": "TransferFromIncorrectOwner",
      "type": "error"
    },
    {
      "inputs": [],
      "name": "TransferToNonERC721ReceiverImplementer",
      "type": "error"
    },
    {
      "inputs": [],
      "name": "TransferToZeroAddress",
      "type": "error"
    },
    {
      "inputs": [],
      "name": "URIQueryForNonexistentToken",
      "type": "error"
    },
    {
      "anonymous": false,
      "inputs": [
        {
          "indexed": true,
          "internalType": "address",
          "name": "owner",
          "type": "address"
        },
        {
          "indexed": true,
          "internalType": "address",
          "name": "approved",
          "type": "address"
        },
        {
          "indexed": true,
          "internalType": "uint256",
          "name": "tokenId",
          "type": "uint256"
        }
      ],
      "name": "Approval",
      "type": "event"
    },
    {
      "anonymous": false,
      "inputs": [
        {
          "indexed": true,
          "internalType": "address",
          "name": "owner",
          "type": "address"
        },
        {
          "indexed": true,
          "internalType": "address",
          "name": "operator",
          "type": "address"
        },
        {
          "indexed": false,
          "internalType": "bool",
          "name": "approved",
          "type": "bool"
        }
      ],
      "name": "ApprovalForAll",
      "type": "event"
    },
    {
      "anonymous": false,
      "inputs": [
        {
          "indexed": true,
          "internalType": "uint256",
          "name": "fromTokenId",
          "type": "uint256"
        },
        {
          "indexed": false,
          "internalType": "uint256",
          "name": "toTokenId",
          "type": "uint256"
        },
        {
          "indexed": true,
          "internalType": "address",
          "name": "from",
          "type": "address"
        },
        {
          "indexed": true,
          "internalType": "address",
          "name": "to",
          "type": "address"
        }
      ],
      "name": "ConsecutiveTransfer",
      "type": "event"
    },
    {
      "anonymous": false,
      "inputs": [
        {
          "indexed": true,
          "internalType": "address",
          "name": "from",
          "type": "address"
        },
        {
          "indexed": true,
          "internalType": "address",
          "name": "to",
          "type": "address"
        },
        {
          "indexed": true,
          "internalType": "uint256",
          "name": "tokenId",
          "type": "uint256"
        }
      ],
      "name": "Transfer",
      "type": "event"
    },
    {
      "inputs": [],
      "name": "ROYALTY_BPS",
      "outputs": [
        {
          "internalType": "uint16",
          "name": "",
          "type": "uint16"
        }
      ],
      "stateMutability": "view",
      "type": "function"
    },
    {
      "inputs": [],
      "name": "TOKEN_LIMIT",
      "outputs": [
        {
          "internalType": "uint16",
          "name": "",
          "type": "uint16"
        }
      ],
      "stateMutability": "view",
      "type": "function"
    },
    {
      "inputs": [
        {
          "internalType": "address",
          "name": "to",
          "type": "address"
        },
        {
          "internalType": "uint256",
          "name": "tokenId",
          "type": "uint256"
        }
      ],
      "name": "approve",
      "outputs": [],
      "stateMutability": "payable",
      "type": "function"
    },
    {
      "inputs": [
        {
          "internalType": "address",
          "name": "owner",
          "type": "address"
        }
      ],
      "name": "balanceOf",
      "outputs": [
        {
          "internalType": "uint256",
          "name": "",
          "type": "uint256"
        }
      ],
      "stateMutability": "view",
      "type": "function"
    },
    {
      "inputs": [
        {
          "internalType": "uint256",
          "name": "tokenId",
          "type": "uint256"
        }
      ],
      "name": "explicitOwnershipOf",
      "outputs": [
        {
          "components": [
            {
              "internalType": "address",
              "name": "addr",
              "type": "address"
            },
            {
              "internalType": "uint64",
              "name": "startTimestamp",
              "type": "uint64"
            },
            {
              "internalType": "bool",
              "name": "burned",
              "type": "bool"
            },
            {
              "internalType": "uint24",
              "name": "extraData",
              "type": "uint24"
            }
          ],
          "internalType": "struct IERC721A.TokenOwnership",
          "name": "",
          "type": "tuple"
        }
      ],
      "stateMutability": "view",
      "type": "function"
    },
    {
      "inputs": [
        {
          "internalType": "uint256[]",
          "name": "tokenIds",
          "type": "uint256[]"
        }
      ],
      "name": "explicitOwnershipsOf",
      "outputs": [
        {
          "components": [
            {
              "internalType": "address",
              "name": "addr",
              "type": "address"
            },
            {
              "internalType": "uint64",
              "name": "startTimestamp",
              "type": "uint64"
            },
            {
              "internalType": "bool",
              "name": "burned",
              "type": "bool"
            },
            {
              "internalType": "uint24",
              "name": "extraData",
              "type": "uint24"
            }
          ],
          "internalType": "struct IERC721A.TokenOwnership[]",
          "name": "",
          "type": "tuple[]"
        }
      ],
      "stateMutability": "view",
      "type": "function"
    },
    {
      "inputs": [
        {
          "internalType": "uint256",
          "name": "_tokenId",
          "type": "uint256"
        }
      ],
      "name": "generateSvg",
      "outputs": [
        {
          "internalType": "string",
          "name": "",
          "type": "string"
        }
      ],
      "stateMutability": "view",
      "type": "function"
    },
    {
      "inputs": [
        {
          "internalType": "uint256",
          "name": "tokenId",
          "type": "uint256"
        }
      ],
      "name": "getApproved",
      "outputs": [
        {
          "internalType": "address",
          "name": "",
          "type": "address"
        }
      ],
      "stateMutability": "view",
      "type": "function"
    },
    {
      "inputs": [
        {
          "internalType": "address",
          "name": "owner",
          "type": "address"
        },
        {
          "internalType": "address",
          "name": "operator",
          "type": "address"
        }
      ],
      "name": "isApprovedForAll",
      "outputs": [
        {
          "internalType": "bool",
          "name": "",
          "type": "bool"
        }
      ],
      "stateMutability": "view",
      "type": "function"
    },
    {
      "inputs": [
        {
          "internalType": "uint24",
          "name": "_seed",
          "type": "uint24"
        }
      ],
      "name": "mint",
      "outputs": [],
      "stateMutability": "payable",
      "type": "function"
    },
    {
      "inputs": [],
      "name": "name",
      "outputs": [
        {
          "internalType": "string",
          "name": "",
          "type": "string"
        }
      ],
      "stateMutability": "view",
      "type": "function"
    },
    {
      "inputs": [
        {
          "internalType": "uint256",
          "name": "tokenId",
          "type": "uint256"
        }
      ],
      "name": "ownerOf",
      "outputs": [
        {
          "internalType": "address",
          "name": "",
          "type": "address"
        }
      ],
      "stateMutability": "view",
      "type": "function"
    },
    {
      "inputs": [
        {
          "internalType": "address",
          "name": "from",
          "type": "address"
        },
        {
          "internalType": "address",
          "name": "to",
          "type": "address"
        },
        {
          "internalType": "uint256",
          "name": "tokenId",
          "type": "uint256"
        }
      ],
      "name": "safeTransferFrom",
      "outputs": [],
      "stateMutability": "payable",
      "type": "function"
    },
    {
      "inputs": [
        {
          "internalType": "address",
          "name": "from",
          "type": "address"
        },
        {
          "internalType": "address",
          "name": "to",
          "type": "address"
        },
        {
          "internalType": "uint256",
          "name": "tokenId",
          "type": "uint256"
        },
        {
          "internalType": "bytes",
          "name": "_data",
          "type": "bytes"
        }
      ],
      "name": "safeTransferFrom",
      "outputs": [],
      "stateMutability": "payable",
      "type": "function"
    },
    {
      "inputs": [
        {
          "internalType": "address",
          "name": "operator",
          "type": "address"
        },
        {
          "internalType": "bool",
          "name": "approved",
          "type": "bool"
        }
      ],
      "name": "setApprovalForAll",
      "outputs": [],
      "stateMutability": "nonpayable",
      "type": "function"
    },
    {
      "inputs": [
        {
          "internalType": "bytes4",
          "name": "interfaceId",
          "type": "bytes4"
        }
      ],
      "name": "supportsInterface",
      "outputs": [
        {
          "internalType": "bool",
          "name": "",
          "type": "bool"
        }
      ],
      "stateMutability": "view",
      "type": "function"
    },
    {
      "inputs": [],
      "name": "symbol",
      "outputs": [
        {
          "internalType": "string",
          "name": "",
          "type": "string"
        }
      ],
      "stateMutability": "view",
      "type": "function"
    },
    {
      "inputs": [
        {
          "internalType": "uint256",
          "name": "_tokenId",
          "type": "uint256"
        }
      ],
      "name": "tokenURI",
      "outputs": [
        {
          "internalType": "string",
          "name": "",
          "type": "string"
        }
      ],
      "stateMutability": "view",
      "type": "function"
    },
    {
      "inputs": [
        {
          "internalType": "address",
          "name": "owner",
          "type": "address"
        }
      ],
      "name": "tokensOfOwner",
      "outputs": [
        {
          "internalType": "uint256[]",
          "name": "",
          "type": "uint256[]"
        }
      ],
      "stateMutability": "view",
      "type": "function"
    },
    {
      "inputs": [
        {
          "internalType": "address",
          "name": "owner",
          "type": "address"
        },
        {
          "internalType": "uint256",
          "name": "start",
          "type": "uint256"
        },
        {
          "internalType": "uint256",
          "name": "stop",
          "type": "uint256"
        }
      ],
      "name": "tokensOfOwnerIn",
      "outputs": [
        {
          "internalType": "uint256[]",
          "name": "",
          "type": "uint256[]"
        }
      ],
      "stateMutability": "view",
      "type": "function"
    },
    {
      "inputs": [],
      "name": "totalSupply",
      "outputs": [
        {
          "internalType": "uint256",
          "name": "",
          "type": "uint256"
        }
      ],
      "stateMutability": "view",
      "type": "function"
    },
    {
      "inputs": [
        {
          "internalType": "address",
          "name": "from",
          "type": "address"
        },
        {
          "internalType": "address",
          "name": "to",
          "type": "address"
        },
        {
          "internalType": "uint256",
          "name": "tokenId",
          "type": "uint256"
        }
      ],
      "name": "transferFrom",
      "outputs": [],
      "stateMutability": "payable",
      "type": "function"
    }
  ],
  "bytecode": "0x60806040523480156200001157600080fd5b506040518060400160405280600c81526020017f436f736d6963576f726c647300000000000000000000000000000000000000008152506040518060400160405280600381526020017f435753000000000000000000000000000000000000000000000000000000000081525081600290816200008f91906200033f565b508060039081620000a191906200033f565b50620000b2620000c060201b60201c565b600081905550505062000426565b600090565b600081519050919050565b7f4e487b7100000000000000000000000000000000000000000000000000000000600052604160045260246000fd5b7f4e487b7100000000000000000000000000000000000000000000000000000000600052602260045260246000fd5b600060028204905060018216806200014757607f821691505b6020821081036200015d576200015c620000ff565b5b50919050565b60008190508160005260206000209050919050565b60006020601f8301049050919050565b600082821b905092915050565b600060088302620001c77fffffffffffffffffffffffffffffffffffffffffffffffffffffffffffffffff8262000188565b620001d3868362000188565b95508019841693508086168417925050509392505050565b6000819050919050565b6000819050919050565b6000620002206200021a6200021484620001eb565b620001f5565b620001eb565b9050919050565b6000819050919050565b6200023c83620001ff565b620002546200024b8262000227565b84845462000195565b825550505050565b600090565b6200026b6200025c565b6200027881848462000231565b505050565b5b81811015620002a0576200029460008262000261565b6001810190506200027e565b5050565b601f821115620002ef57620002b98162000163565b620002c48462000178565b81016020851015620002d4578190505b620002ec620002e38562000178565b8301826200027d565b50505b505050565b600082821c905092915050565b60006200031460001984600802620002f4565b1980831691505092915050565b60006200032f838362000301565b9150826002028217905092915050565b6200034a82620000c5565b67ffffffffffffffff811115620003665762000365620000d0565b5b6200037282546200012e565b6200037f828285620002a4565b600060209050601f831160018114620003b75760008415620003a2578287015190505b620003ae858262000321565b8655506200041e565b601f198416620003c78662000163565b60005b82811015620003f157848901518255600182019150602085019450602081019050620003ca565b868310156200041157848901516200040d601f89168262000301565b8355505b6001600288020188555050505b505050505050565b615f4680620004366000396000f3fe6080604052600436106101355760003560e01c806370a08231116100ab578063b88d4fde1161006f578063b88d4fde14610439578063bc921dc214610455578063c23dc68f14610492578063c87b56dd146104cf578063e985e9c51461050c578063eaef4d8f1461054957610135565b806370a082311461032e5780638462151c1461036b57806395d89b41146103a857806399a2557a146103d3578063a22cb4651461041057610135565b806318160ddd116100fd57806318160ddd1461022657806323b872dd1461025157806342842e0e1461026d57806349c657db146102895780635bbb2177146102b45780636352211e146102f157610135565b806301ffc9a71461013a578063031bd4c41461017757806306fdde03146101a2578063081812fc146101cd578063095ea7b31461020a575b600080fd5b34801561014657600080fd5b50610161600480360381019061015c9190612bbc565b610565565b60405161016e9190612c04565b60405180910390f35b34801561018357600080fd5b5061018c6105f7565b6040516101999190612c3c565b60405180910390f35b3480156101ae57600080fd5b506101b76105fd565b6040516101c49190612ce7565b60405180910390f35b3480156101d957600080fd5b506101f460048036038101906101ef9190612d3f565b61068f565b6040516102019190612dad565b60405180910390f35b610224600480360381019061021f9190612df4565b61070e565b005b34801561023257600080fd5b5061023b610852565b6040516102489190612e43565b60405180910390f35b61026b60048036038101906102669190612e5e565b610869565b005b61028760048036038101906102829190612e5e565b610b8b565b005b34801561029557600080fd5b5061029e610bab565b6040516102ab9190612c3c565b60405180910390f35b3480156102c057600080fd5b506102db60048036038101906102d69190612f16565b610bb1565b6040516102e891906130c6565b60405180910390f35b3480156102fd57600080fd5b5061031860048036038101906103139190612d3f565b610c74565b6040516103259190612dad565b60405180910390f35b34801561033a57600080fd5b50610355600480360381019061035091906130e8565b610c86565b6040516103629190612e43565b60405180910390f35b34801561037757600080fd5b50610392600480360381019061038d91906130e8565b610d3e565b60405161039f91906131d3565b60405180910390f35b3480156103b457600080fd5b506103bd610e81565b6040516103ca9190612ce7565b60405180910390f35b3480156103df57600080fd5b506103fa60048036038101906103f591906131f5565b610f13565b60405161040791906131d3565b60405180910390f35b34801561041c57600080fd5b5061043760048036038101906104329190613274565b61111f565b005b610453600480360381019061044e91906133e4565b61122a565b005b34801561046157600080fd5b5061047c60048036038101906104779190612d3f565b61129d565b6040516104899190612ce7565b60405180910390f35b34801561049e57600080fd5b506104b960048036038101906104b49190612d3f565b61132f565b6040516104c691906134bc565b60405180910390f35b3480156104db57600080fd5b506104f660048036038101906104f19190612d3f565b611399565b6040516105039190612ce7565b60405180910390f35b34801561051857600080fd5b50610533600480360381019061052e91906134d7565b611422565b6040516105409190612c04565b60405180910390f35b610563600480360381019061055e9190613543565b6114b6565b005b60006301ffc9a760e01b827bffffffffffffffffffffffffffffffffffffffffffffffffffffffff191614806105c057506380ac58cd60e01b827bffffffffffffffffffffffffffffffffffffffffffffffffffffffff1916145b806105f05750635b5e139f60e01b827bffffffffffffffffffffffffffffffffffffffffffffffffffffffff1916145b9050919050565b61020081565b60606002805461060c9061359f565b80601f01602080910402602001604051908101604052809291908181526020018280546106389061359f565b80156106855780601f1061065a57610100808354040283529160200191610685565b820191906000526020600020905b81548152906001019060200180831161066857829003601f168201915b5050505050905090565b600061069a826115f8565b6106d0576040517fcf4700e400000000000000000000000000000000000000000000000000000000815260040160405180910390fd5b6006600083815260200190815260200160002060000160009054906101000a900473ffffffffffffffffffffffffffffffffffffffff169050919050565b600061071982610c74565b90508073ffffffffffffffffffffffffffffffffffffffff1661073a611657565b73ffffffffffffffffffffffffffffffffffffffff161461079d5761076681610761611657565b611422565b61079c576040517fcfb3b94200000000000000000000000000000000000000000000000000000000815260040160405180910390fd5b5b826006600084815260200190815260200160002060000160006101000a81548173ffffffffffffffffffffffffffffffffffffffff021916908373ffffffffffffffffffffffffffffffffffffffff160217905550818373ffffffffffffffffffffffffffffffffffffffff168273ffffffffffffffffffffffffffffffffffffffff167f8c5be1e5ebec7d5bd14f71427d1e84f3dd0314c0f7b2291e5b200ac8c7c3b92560405160405180910390a4505050565b600061085c61165f565b6001546000540303905090565b600061087482611664565b90508373ffffffffffffffffffffffffffffffffffffffff168173ffffffffffffffffffffffffffffffffffffffff16146108db576040517fa114810000000000000000000000000000000000000000000000000000000000815260040160405180910390fd5b6000806108e784611730565b915091506108fd81876108f8611657565b611757565b610949576109128661090d611657565b611422565b610948576040517f59c896be00000000000000000000000000000000000000000000000000000000815260040160405180910390fd5b5b600073ffffffffffffffffffffffffffffffffffffffff168573ffffffffffffffffffffffffffffffffffffffff16036109af576040517fea553b3400000000000000000000000000000000000000000000000000000000815260040160405180910390fd5b6109bc868686600161179b565b80156109c757600082555b600560008773ffffffffffffffffffffffffffffffffffffffff1673ffffffffffffffffffffffffffffffffffffffff168152602001908152602001600020600081546001900391905081905550600560008673ffffffffffffffffffffffffffffffffffffffff1673ffffffffffffffffffffffffffffffffffffffff1681526020019081526020016000206000815460010191905081905550610a9585610a718888876117a1565b7c0200000000000000000000000000000000000000000000000000000000176117c9565b600460008681526020019081526020016000208190555060007c0200000000000000000000000000000000000000000000000000000000841603610b1b5760006001850190506000600460008381526020019081526020016000205403610b19576000548114610b18578360046000838152602001908152602001600020819055505b5b505b838573ffffffffffffffffffffffffffffffffffffffff168773ffffffffffffffffffffffffffffffffffffffff167fddf252ad1be2c89b69c2b068fc378daa952ba7f163c4a11628f55a4df523b3ef60405160405180910390a4610b8386868660016117f4565b505050505050565b610ba68383836040518060200160405280600081525061122a565b505050565b6103e881565b6060600083839050905060008167ffffffffffffffff811115610bd757610bd66132b9565b5b604051908082528060200260200182016040528015610c1057816020015b610bfd612a3b565b815260200190600190039081610bf55790505b50905060005b828114610c6857610c3f868683818110610c3357610c326135d0565b5b9050602002013561132f565b828281518110610c5257610c516135d0565b5b6020026020010181905250806001019050610c16565b50809250505092915050565b6000610c7f82611664565b9050919050565b60008073ffffffffffffffffffffffffffffffffffffffff168273ffffffffffffffffffffffffffffffffffffffff1603610ced576040517f8f4eb60400000000000000000000000000000000000000000000000000000000815260040160405180910390fd5b67ffffffffffffffff600560008473ffffffffffffffffffffffffffffffffffffffff1673ffffffffffffffffffffffffffffffffffffffff16815260200190815260200160002054169050919050565b60606000806000610d4e85610c86565b905060008167ffffffffffffffff811115610d6c57610d6b6132b9565b5b604051908082528060200260200182016040528015610d9a5781602001602082028036833780820191505090505b509050610da5612a3b565b6000610daf61165f565b90505b838614610e7357610dc2816117fa565b91508160400151610e6857600073ffffffffffffffffffffffffffffffffffffffff16826000015173ffffffffffffffffffffffffffffffffffffffff1614610e0d57816000015194505b8773ffffffffffffffffffffffffffffffffffffffff168573ffffffffffffffffffffffffffffffffffffffff1603610e675780838780600101985081518110610e5a57610e596135d0565b5b6020026020010181815250505b5b806001019050610db2565b508195505050505050919050565b606060038054610e909061359f565b80601f0160208091040260200160405190810160405280929190818152602001828054610ebc9061359f565b8015610f095780601f10610ede57610100808354040283529160200191610f09565b820191906000526020600020905b815481529060010190602001808311610eec57829003601f168201915b5050505050905090565b6060818310610f4e576040517f32c1995a00000000000000000000000000000000000000000000000000000000815260040160405180910390fd5b600080610f59611825565b9050610f6361165f565b851015610f7557610f7261165f565b94505b80841115610f81578093505b6000610f8c87610c86565b905084861015610faf576000868603905081811015610fa9578091505b50610fb4565b600090505b60008167ffffffffffffffff811115610fd057610fcf6132b9565b5b604051908082528060200260200182016040528015610ffe5781602001602082028036833780820191505090505b509050600082036110155780945050505050611118565b60006110208861132f565b90506000816040015161103557816000015190505b60008990505b88811415801561104b5750848714155b1561110a57611059816117fa565b925082604001516110ff57600073ffffffffffffffffffffffffffffffffffffffff16836000015173ffffffffffffffffffffffffffffffffffffffff16146110a457826000015191505b8a73ffffffffffffffffffffffffffffffffffffffff168273ffffffffffffffffffffffffffffffffffffffff16036110fe57808488806001019950815181106110f1576110f06135d0565b5b6020026020010181815250505b5b80600101905061103b565b508583528296505050505050505b9392505050565b806007600061112c611657565b73ffffffffffffffffffffffffffffffffffffffff1673ffffffffffffffffffffffffffffffffffffffff16815260200190815260200160002060008473ffffffffffffffffffffffffffffffffffffffff1673ffffffffffffffffffffffffffffffffffffffff16815260200190815260200160002060006101000a81548160ff0219169083151502179055508173ffffffffffffffffffffffffffffffffffffffff166111d9611657565b73ffffffffffffffffffffffffffffffffffffffff167f17307eab39ab6107e8899845ad3d59bd9653f200f220920489ca2b5937696c318360405161121e9190612c04565b60405180910390a35050565b611235848484610869565b60008373ffffffffffffffffffffffffffffffffffffffff163b14611297576112608484848461182e565b611296576040517fd1a57ed600000000000000000000000000000000000000000000000000000000815260040160405180910390fd5b5b50505050565b60606112a8826115f8565b80156112b9575061020061ffff1682105b6112f8576040517f08c379a00000000000000000000000000000000000000000000000000000000081526004016112ef9061364b565b60405180910390fd5b6113286008600084815260200190815260200160002060009054906101000a900462ffffff1662ffffff1661197e565b9050919050565b611337612a3b565b61133f612a3b565b61134761165f565b83108061135b5750611357611825565b8310155b156113695780915050611394565b611372836117fa565b90508060400151156113875780915050611394565b61139083611aaf565b9150505b919050565b60606113a4826115f8565b6113e3576040517f08c379a00000000000000000000000000000000000000000000000000000000081526004016113da9061364b565b60405180910390fd5b60006113ee8361129d565b90506113f983611acf565b8160405160200161140b92919061386f565b604051602081830303815290604052915050919050565b6000600760008473ffffffffffffffffffffffffffffffffffffffff1673ffffffffffffffffffffffffffffffffffffffff16815260200190815260200160002060008373ffffffffffffffffffffffffffffffffffffffff1673ffffffffffffffffffffffffffffffffffffffff16815260200190815260200160002060009054906101000a900460ff16905092915050565b61020061ffff166114c5611c30565b1115611506576040517f08c379a00000000000000000000000000000000000000000000000000000000081526004016114fd9061390b565b60405180910390fd5b60001515600960008362ffffff1662ffffff16815260200190815260200160002060009054906101000a900460ff16151514611577576040517f08c379a000000000000000000000000000000000000000000000000000000000815260040161156e90613977565b60405180910390fd5b6000611581611825565b9050816008600083815260200190815260200160002060006101000a81548162ffffff021916908362ffffff1602179055506001600960008462ffffff1662ffffff16815260200190815260200160002060006101000a81548160ff0219169083151502179055506115f4336001611c43565b5050565b60008161160361165f565b11158015611612575060005482105b8015611650575060007c0100000000000000000000000000000000000000000000000000000000600460008581526020019081526020016000205416145b9050919050565b600033905090565b600090565b6000808290508061167361165f565b116116f9576000548110156116f85760006004600083815260200190815260200160002054905060007c01000000000000000000000000000000000000000000000000000000008216036116f6575b600081036116ec5760046000836001900393508381526020019081526020016000205490506116c2565b809250505061172b565b505b5b6040517fdf2d9b4200000000000000000000000000000000000000000000000000000000815260040160405180910390fd5b919050565b60008060006006600085815260200190815260200160002090508092508254915050915091565b600073ffffffffffffffffffffffffffffffffffffffff8316925073ffffffffffffffffffffffffffffffffffffffff821691508382148383141790509392505050565b50505050565b60008060e883901c905060e86117b8868684611dfe565b62ffffff16901b9150509392505050565b600073ffffffffffffffffffffffffffffffffffffffff83169250814260a01b178317905092915050565b50505050565b611802612a3b565b61181e6004600084815260200190815260200160002054611e07565b9050919050565b60008054905090565b60008373ffffffffffffffffffffffffffffffffffffffff1663150b7a02611854611657565b8786866040518563ffffffff1660e01b815260040161187694939291906139ec565b6020604051808303816000875af19250505080156118b257506040513d601f19601f820116820180604052508101906118af9190613a4d565b60015b61192b573d80600081146118e2576040519150601f19603f3d011682016040523d82523d6000602084013e6118e7565b606091505b506000815103611923576040517fd1a57ed600000000000000000000000000000000000000000000000000000000815260040160405180910390fd5b805181602001fd5b63150b7a0260e01b7bffffffffffffffffffffffffffffffffffffffffffffffffffffffff1916817bffffffffffffffffffffffffffffffffffffffffffffffffffffffff191614915050949350505050565b60606000611990836000610168611ebd565b905060006119a96003856119a49190613aa9565b611edb565b905060006119c26003866119bd9190613aa9565b611edb565b905060006119db6003876119d69190613aa9565b611edb565b90506000848484846040516020016119f69493929190613c59565b60405160208183030381529060405290506000604051602001611a1890613d66565b60405160208183030381529060405290506000611a3489611f3d565b611a3d8a611f6e565b611a468b61232f565b611a4f8c6125a5565b611a588d612639565b604051602001611a6c959493929190613d7b565b6040516020818303038152906040529050828282604051602001611a9293929190613f42565b604051602081830303815290604052975050505050505050919050565b611ab7612a3b565b611ac8611ac383611664565b611e07565b9050919050565b606060008203611b16576040518060400160405280600181526020017f30000000000000000000000000000000000000000000000000000000000000008152509050611c2b565b600082905060005b60008214611b47578080600101915050600a8281611b3f57611b3e613f9f565b5b049150611b1e565b60008167ffffffffffffffff811115611b6357611b626132b9565b5b6040519080825280601f01601f191660200182016040528015611b955781602001600182028036833780820191505090505b50905060008290508593505b60008414611c2357600a8481611bba57611bb9613f9f565b5b0660300160f81b82826001900392508281518110611bdb57611bda6135d0565b5b60200101907effffffffffffffffffffffffffffffffffffffffffffffffffffffffffffff1916908160001a905350600a8481611c1b57611c1a613f9f565b5b049350611ba1565b819450505050505b919050565b6000611c3a61165f565b60005403905090565b60008054905060008203611c83576040517fb562e8dd00000000000000000000000000000000000000000000000000000000815260040160405180910390fd5b611c90600084838561179b565b600160406001901b178202600560008573ffffffffffffffffffffffffffffffffffffffff1673ffffffffffffffffffffffffffffffffffffffff16815260200190815260200160002060008282540192505081905550611d0783611cf860008660006117a1565b611d0185612820565b176117c9565b6004600083815260200190815260200160002081905550600080838301905073ffffffffffffffffffffffffffffffffffffffff85169150828260007fddf252ad1be2c89b69c2b068fc378daa952ba7f163c4a11628f55a4df523b3ef600080a4600183015b818114611da857808360007fddf252ad1be2c89b69c2b068fc378daa952ba7f163c4a11628f55a4df523b3ef600080a4600181019050611d6d565b5060008203611de3576040517f2e07630000000000000000000000000000000000000000000000000000000000815260040160405180910390fd5b806000819055505050611df960008483856117f4565b505050565b60009392505050565b611e0f612a3b565b81816000019073ffffffffffffffffffffffffffffffffffffffff16908173ffffffffffffffffffffffffffffffffffffffff168152505060a082901c816020019067ffffffffffffffff16908167ffffffffffffffff168152505060007c01000000000000000000000000000000000000000000000000000000008316141581604001901515908115158152505060e882901c816060019062ffffff16908162ffffff1681525050919050565b6060611ed2611ecd858585612830565b611acf565b90509392505050565b60606000611eec83600060ff612830565b90506000611f09600285611f009190613aa9565b600060ff612830565b90506000611f26600186611f1d9190613aa9565b600060ff612830565b9050611f3383838361289c565b9350505050919050565b6060611f4882611acf565b604051602001611f589190614124565b6040516020818303038152906040529050919050565b6060600060405180602001604052806000815250905060005b611f90846128e3565b81101561232557600081600286611fa79190614151565b611fb19190613aa9565b90506000611fbe83611acf565b9050611fc8612a8a565b611fd583601460c8612830565b816000018181525050611feb8160000151611acf565b81602001819052506120018360326103b6611ebd565b81604001819052506120178360006101f4611ebd565b816060018190525061203f84600a856120309190613aa9565b61203a9190613aa9565b611edb565b81608001819052506120548360036019611ebd565b8160a00181905250612070848461206b9190613aa9565b611edb565b8160c0018190525061208583604b6061611ebd565b8160e001819052506120ad600a858561209e9190613aa9565b6120a89190613aa9565b611edb565b81610100018190525060056120c5846000600a612830565b11612105576040518060400160405280600a81526020017f74757262756c656e63650000000000000000000000000000000000000000000081525061213c565b6040518060400160405280600c81526020017f6672616374616c4e6f69736500000000000000000000000000000000000000008152505b816101200181905250612177600282600001516121599190614151565b612168856103e8610fa0612830565b6121729190614193565b611acf565b8161016001819052506121a68160000151612197856107d0610fa0612830565b6121a19190614193565b611acf565b8161014001819052506121bc836003600a611ebd565b8161018001819052506121d283601e6064611ebd565b816101a001819052506121e8836005600a611ebd565b816101c0018190525060008282610120015183610160015184610140015161220f88611acf565b8661018001518760c00151886101c00151896101a0015160405160200161223e9998979695949392919061452e565b60405160208183030381529060405290506000836122648460a001518560c00151612905565b6122778560e00151866101000151612905565b60405160200161228993929190614725565b60405160208183030381529060405290506000836040015184606001518560200151878760400151886060015189602001518b6040516020016122d398979695949392919061498b565b6040516020818303038152906040529050878284836040516020016122fb9493929190614aac565b6040516020818303038152906040529750505050505050808061231d90614b0b565b915050611f87565b5080915050919050565b60606000612341836103e86033612931565b9050606060005b60338110156123e7576000838260338110612366576123656135d0565b5b602002015190508261238f82600060028110612385576123846135d0565b5b6020020151611acf565b6123b0836001600281106123a6576123a56135d0565b5b6020020151611acf565b6040516020016123c293929190614b9f565b60405160208183030381529060405292505080806123df90614b0b565b915050612348565b50806040516020016123f99190614c32565b604051602081830303815290604052905060006124198560016003611ebd565b6124268660016003611ebd565b604051602001612437929190614eb4565b6040516020818303038152906040529050600061245f60038761245a9190613aa9565b611edb565b905060006124a26040518060400160405280600181526020017f350000000000000000000000000000000000000000000000000000000000000081525083612905565b6124cc6124b289600a605a611ebd565b6124c760058b6124c29190613aa9565b611edb565b612905565b61250b6040518060400160405280600281526020017f393500000000000000000000000000000000000000000000000000000000000081525085612905565b60405160200161251d93929190614fb7565b6040516020818303038152906040529050600061253d8860036008611ebd565b9050600061254a89611acf565b60405160200161255a91906151a0565b60405160208183030381529060405290508483828889868b60405160200161258897969594939291906153bb565b604051602081830303815290604052975050505050505050919050565b606060006040518060400160405280600b81526020017f302e30303220302e303134000000000000000000000000000000000000000000815250905060006125fc6005856125f39190614151565b601e6050611ebd565b905060008261260a86611acf565b8360405160200161261d9392919061561f565b6040516020818303038152906040529050809350505050919050565b60606000604051806020016040528060008152509050600080600190505b6103e88210156127be57600061267c83876126729190613aa9565b6064610190612830565b9050826103e861268c9190615687565b8111156126a857826103e86126a19190615687565b90506126f1565b606481846103e86126b99190615687565b6126c39190615687565b10156126f05780836103e86126d89190615687565b6126e29190615687565b816126ed9190613aa9565b90505b5b600061270b84886127029190613aa9565b600a601e612830565b905060008361272757816103206127229190613aa9565b612736565b816103206127359190615687565b5b90508561274286611acf565b6127626002866127529190614193565b8861275d9190613aa9565b611acf565b61276b84611acf565b61277f878a61277a9190613aa9565b611acf565b6040516020016127939594939291906157eb565b604051602081830303815290604052955082856127b09190613aa9565b945083159350505050612657565b60006127d96002876127d09190614151565b60036009611ebd565b6127e287611acf565b6127ef886001600a611ebd565b866040516020016128039493929190615c4c565b604051602081830303815290604052905080945050505050919050565b60006001821460e11b9050919050565b600082821161284157829050612895565b6000846040516020016128549190612e43565b6040516020818303038152906040528051906020012060001c905083848461287c9190615687565b826128879190615cc1565b6128919190613aa9565b9150505b9392505050565b60606128a784611acf565b6128b084611acf565b6128b984611acf565b6040516020016128cb93929190615d8a565b60405160208183030381529060405290509392505050565b60006128fe6002836128f59190614151565b60006005612830565b9050919050565b6060828260405160200161291a929190615ecb565b604051602081830303815290604052905092915050565b612939612b00565b60006001836129489190615687565b846129539190614193565b905061295d612b00565b60006101f4905060005b85811015612a2d576000848261297d9190614151565b905060006103e8838b6129909190613aa9565b61299a9190613aa9565b905060006129ab8260006014612830565b9050600060326129be8460006064612830565b119050806129d75781866129d29190615687565b6129e4565b81866129e39190613aa9565b5b9550604051806040016040528085815260200187815250878660338110612a0e57612a0d6135d0565b5b6020020181905250505050508080612a2590614b0b565b915050612967565b508193505050509392505050565b6040518060800160405280600073ffffffffffffffffffffffffffffffffffffffff168152602001600067ffffffffffffffff168152602001600015158152602001600062ffffff1681525090565b604051806101e001604052806000815260200160608152602001606081526020016060815260200160608152602001606081526020016060815260200160608152602001606081526020016060815260200160608152602001606081526020016060815260200160608152602001606081525090565b6040518061066001604052806033905b612b18612b2e565b815260200190600190039081612b105790505090565b6040518060400160405280600290602082028036833780820191505090505090565b6000604051905090565b600080fd5b600080fd5b60007fffffffff0000000000000000000000000000000000000000000000000000000082169050919050565b612b9981612b64565b8114612ba457600080fd5b50565b600081359050612bb681612b90565b92915050565b600060208284031215612bd257612bd1612b5a565b5b6000612be084828501612ba7565b91505092915050565b60008115159050919050565b612bfe81612be9565b82525050565b6000602082019050612c196000830184612bf5565b92915050565b600061ffff82169050919050565b612c3681612c1f565b82525050565b6000602082019050612c516000830184612c2d565b92915050565b600081519050919050565b600082825260208201905092915050565b60005b83811015612c91578082015181840152602081019050612c76565b60008484015250505050565b6000601f19601f8301169050919050565b6000612cb982612c57565b612cc38185612c62565b9350612cd3818560208601612c73565b612cdc81612c9d565b840191505092915050565b60006020820190508181036000830152612d018184612cae565b905092915050565b6000819050919050565b612d1c81612d09565b8114612d2757600080fd5b50565b600081359050612d3981612d13565b92915050565b600060208284031215612d5557612d54612b5a565b5b6000612d6384828501612d2a565b91505092915050565b600073ffffffffffffffffffffffffffffffffffffffff82169050919050565b6000612d9782612d6c565b9050919050565b612da781612d8c565b82525050565b6000602082019050612dc26000830184612d9e565b92915050565b612dd181612d8c565b8114612ddc57600080fd5b50565b600081359050612dee81612dc8565b92915050565b60008060408385031215612e0b57612e0a612b5a565b5b6000612e1985828601612ddf565b9250506020612e2a85828601612d2a565b9150509250929050565b612e3d81612d09565b82525050565b6000602082019050612e586000830184612e34565b92915050565b600080600060608486031215612e7757612e76612b5a565b5b6000612e8586828701612ddf565b9350506020612e9686828701612ddf565b9250506040612ea786828701612d2a565b9150509250925092565b600080fd5b600080fd5b600080fd5b60008083601f840112612ed657612ed5612eb1565b5b8235905067ffffffffffffffff811115612ef357612ef2612eb6565b5b602083019150836020820283011115612f0f57612f0e612ebb565b5b9250929050565b60008060208385031215612f2d57612f2c612b5a565b5b600083013567ffffffffffffffff811115612f4b57612f4a612b5f565b5b612f5785828601612ec0565b92509250509250929050565b600081519050919050565b600082825260208201905092915050565b6000819050602082019050919050565b612f9881612d8c565b82525050565b600067ffffffffffffffff82169050919050565b612fbb81612f9e565b82525050565b612fca81612be9565b82525050565b600062ffffff82169050919050565b612fe881612fd0565b82525050565b6080820160008201516130046000850182612f8f565b5060208201516130176020850182612fb2565b50604082015161302a6040850182612fc1565b50606082015161303d6060850182612fdf565b50505050565b600061304f8383612fee565b60808301905092915050565b6000602082019050919050565b600061307382612f63565b61307d8185612f6e565b935061308883612f7f565b8060005b838110156130b95781516130a08882613043565b97506130ab8361305b565b92505060018101905061308c565b5085935050505092915050565b600060208201905081810360008301526130e08184613068565b905092915050565b6000602082840312156130fe576130fd612b5a565b5b600061310c84828501612ddf565b91505092915050565b600081519050919050565b600082825260208201905092915050565b6000819050602082019050919050565b61314a81612d09565b82525050565b600061315c8383613141565b60208301905092915050565b6000602082019050919050565b600061318082613115565b61318a8185613120565b935061319583613131565b8060005b838110156131c65781516131ad8882613150565b97506131b883613168565b925050600181019050613199565b5085935050505092915050565b600060208201905081810360008301526131ed8184613175565b905092915050565b60008060006060848603121561320e5761320d612b5a565b5b600061321c86828701612ddf565b935050602061322d86828701612d2a565b925050604061323e86828701612d2a565b9150509250925092565b61325181612be9565b811461325c57600080fd5b50565b60008135905061326e81613248565b92915050565b6000806040838503121561328b5761328a612b5a565b5b600061329985828601612ddf565b92505060206132aa8582860161325f565b9150509250929050565b600080fd5b7f4e487b7100000000000000000000000000000000000000000000000000000000600052604160045260246000fd5b6132f182612c9d565b810181811067ffffffffffffffff821117156133105761330f6132b9565b5b80604052505050565b6000613323612b50565b905061332f82826132e8565b919050565b600067ffffffffffffffff82111561334f5761334e6132b9565b5b61335882612c9d565b9050602081019050919050565b82818337600083830152505050565b600061338761338284613334565b613319565b9050828152602081018484840111156133a3576133a26132b4565b5b6133ae848285613365565b509392505050565b600082601f8301126133cb576133ca612eb1565b5b81356133db848260208601613374565b91505092915050565b600080600080608085870312156133fe576133fd612b5a565b5b600061340c87828801612ddf565b945050602061341d87828801612ddf565b935050604061342e87828801612d2a565b925050606085013567ffffffffffffffff81111561344f5761344e612b5f565b5b61345b878288016133b6565b91505092959194509250565b60808201600082015161347d6000850182612f8f565b5060208201516134906020850182612fb2565b5060408201516134a36040850182612fc1565b5060608201516134b66060850182612fdf565b50505050565b60006080820190506134d16000830184613467565b92915050565b600080604083850312156134ee576134ed612b5a565b5b60006134fc85828601612ddf565b925050602061350d85828601612ddf565b9150509250929050565b61352081612fd0565b811461352b57600080fd5b50565b60008135905061353d81613517565b92915050565b60006020828403121561355957613558612b5a565b5b60006135678482850161352e565b91505092915050565b7f4e487b7100000000000000000000000000000000000000000000000000000000600052602260045260246000fd5b600060028204905060018216806135b757607f821691505b6020821081036135ca576135c9613570565b5b50919050565b7f4e487b7100000000000000000000000000000000000000000000000000000000600052603260045260246000fd5b7f4241445f49440000000000000000000000000000000000000000000000000000600082015250565b6000613635600683612c62565b9150613640826135ff565b602082019050919050565b6000602082019050818103600083015261366481613628565b9050919050565b600081905092915050565b7f646174613a6170706c69636174696f6e2f6a736f6e2c7b226e616d65223a224160008201527f575a202300000000000000000000000000000000000000000000000000000000602082015250565b60006136d260248361366b565b91506136dd82613676565b602482019050919050565b60006136f382612c57565b6136fd818561366b565b935061370d818560208601612c73565b80840191505092915050565b7f3a2061207374756e6e696e6720436f736d696320576f726c642e222c2264657360008201527f6372697074696f6e223a20224f6e2d636861696e2067656e657261746976652060208201527f436f736d696320576f726c642e2068747470733a2f2f7777772e636f736d696360408201527f776f726c64732e78797a20222c20000000000000000000000000000000000000606082015250565b60006137c1606e8361366b565b91506137cc82613719565b606e82019050919050565b7f22696d616765223a2022646174613a696d6167652f7376672b786d6c2c000000600082015250565b600061380d601d8361366b565b9150613818826137d7565b601d82019050919050565b7f227d000000000000000000000000000000000000000000000000000000000000600082015250565b600061385960028361366b565b915061386482613823565b600282019050919050565b600061387a826136c5565b915061388682856136e8565b9150613891826137b4565b915061389c82613800565b91506138a882846136e8565b91506138b38261384c565b91508190509392505050565b7f544f4b454e5f4c494d49545f4849540000000000000000000000000000000000600082015250565b60006138f5600f83612c62565b9150613900826138bf565b602082019050919050565b60006020820190508181036000830152613924816138e8565b9050919050565b7f534545445f555345440000000000000000000000000000000000000000000000600082015250565b6000613961600983612c62565b915061396c8261392b565b602082019050919050565b6000602082019050818103600083015261399081613954565b9050919050565b600081519050919050565b600082825260208201905092915050565b60006139be82613997565b6139c881856139a2565b93506139d8818560208601612c73565b6139e181612c9d565b840191505092915050565b6000608082019050613a016000830187612d9e565b613a0e6020830186612d9e565b613a1b6040830185612e34565b8181036060830152613a2d81846139b3565b905095945050505050565b600081519050613a4781612b90565b92915050565b600060208284031215613a6357613a62612b5a565b5b6000613a7184828501613a38565b91505092915050565b7f4e487b7100000000000000000000000000000000000000000000000000000000600052601160045260246000fd5b6000613ab482612d09565b9150613abf83612d09565b9250828201905080821115613ad757613ad6613a7a565b5b92915050565b7f6c696e6561722d6772616469656e742800000000000000000000000000000000600082015250565b6000613b1360108361366b565b9150613b1e82613add565b601082019050919050565b7f6465672c20000000000000000000000000000000000000000000000000000000600082015250565b6000613b5f60058361366b565b9150613b6a82613b29565b600582019050919050565b7f2030252c20000000000000000000000000000000000000000000000000000000600082015250565b6000613bab60058361366b565b9150613bb682613b75565b600582019050919050565b7f203335252c200000000000000000000000000000000000000000000000000000600082015250565b6000613bf760068361366b565b9150613c0282613bc1565b600682019050919050565b7f2031303025290000000000000000000000000000000000000000000000000000600082015250565b6000613c4360068361366b565b9150613c4e82613c0d565b600682019050919050565b6000613c6482613b06565b9150613c7082876136e8565b9150613c7b82613b52565b9150613c8782866136e8565b9150613c9282613b9e565b9150613c9e82856136e8565b9150613ca982613bea565b9150613cb582846136e8565b9150613cc082613c36565b915081905095945050505050565b7f3c646566733e3c636c6970506174682069643d276d6173746572273e3c72656360008201527f7420783d27302720793d2730272077696474683d27313030302720686569676860208201527f743d2731303030272f3e3c2f636c6970506174683e3c2f646566733e00000000604082015250565b6000613d50605c8361366b565b9150613d5b82613cce565b605c82019050919050565b6000613d7182613d43565b9150819050919050565b6000613d8782886136e8565b9150613d9382876136e8565b9150613d9f82866136e8565b9150613dab82856136e8565b9150613db782846136e8565b91508190509695505050505050565b7f3c73766720786d6c6e733d27687474703a2f2f7777772e77332e6f72672f323060008201527f30302f737667272076696577426f783d2730203020313030302031303030272060208201527f7374796c653d276261636b67726f756e642d696d6167653a0000000000000000604082015250565b6000613e4860588361366b565b9150613e5382613dc6565b605882019050919050565b7f273e000000000000000000000000000000000000000000000000000000000000600082015250565b6000613e9460028361366b565b9150613e9f82613e5e565b600282019050919050565b7f3c6720636c69702d706174683d2775726c28236d617374657229273e00000000600082015250565b6000613ee0601c8361366b565b9150613eeb82613eaa565b601c82019050919050565b7f3c2f673e3c2f7376673e00000000000000000000000000000000000000000000600082015250565b6000613f2c600a8361366b565b9150613f3782613ef6565b600a82019050919050565b6000613f4d82613e3b565b9150613f5982866136e8565b9150613f6482613e87565b9150613f7082856136e8565b9150613f7b82613ed3565b9150613f8782846136e8565b9150613f9282613f1f565b9150819050949350505050565b7f4e487b7100000000000000000000000000000000000000000000000000000000600052601260045260246000fd5b7f3c66696c7465722069643d277374617273273e3c666554757262756c656e636560008201527f20626173654672657175656e63793d27302e322720736565643d270000000000602082015250565b600061402a603b8361366b565b915061403582613fce565b603b82019050919050565b7f272f3e3c6665436f6c6f724d61747269782076616c7565733d2730203020302060008201527f39202d342030203020302039202d342030203020302039202d3420302030203060208201527f20302031272f3e3c2f66696c7465723e3c726563742077696474683d2731303060408201527f2527206865696768743d273130302527206f7061636974793d2735302527206660608201527f696c7465723d2775726c2823737461727329272f3e0000000000000000000000608082015250565b600061410e60958361366b565b915061411982614040565b609582019050919050565b600061412f8261401d565b915061413b82846136e8565b915061414682614101565b915081905092915050565b600061415c82612d09565b915061416783612d09565b925082820261417581612d09565b9150828204841483151761418c5761418b613a7a565b5b5092915050565b600061419e82612d09565b91506141a983612d09565b9250826141b9576141b8613f9f565b5b828204905092915050565b7f3c66696c7465722069643d27706c616e657446696c7465720000000000000000600082015250565b60006141fa60188361366b565b9150614205826141c4565b601882019050919050565b7f273e3c666554757262756c656e636520747970653d2700000000000000000000600082015250565b600061424660168361366b565b915061425182614210565b601682019050919050565b7f2720626173654672657175656e63793d27302e30300000000000000000000000600082015250565b600061429260158361366b565b915061429d8261425c565b601582019050919050565b7f20302e3000000000000000000000000000000000000000000000000000000000600082015250565b60006142de60048361366b565b91506142e9826142a8565b600482019050919050565b7f2720736565643d27000000000000000000000000000000000000000000000000600082015250565b600061432a60088361366b565b9150614335826142f4565b600882019050919050565b7f27206e756d4f6374617665733d27000000000000000000000000000000000000600082015250565b6000614376600e8361366b565b915061438182614340565b600e82019050919050565b7f272f3e3c6665446966667573654c69676874696e67206c69676874696e672d6360008201527f6f6c6f723d270000000000000000000000000000000000000000000000000000602082015250565b60006143e860268361366b565b91506143f38261438c565b602682019050919050565b7f2720737572666163655363616c653d2700000000000000000000000000000000600082015250565b600061443460108361366b565b915061443f826143fe565b601082019050919050565b7f273e3c666544697374616e744c6967687420656c65766174696f6e3d27000000600082015250565b6000614480601d8361366b565b915061448b8261444a565b601d82019050919050565b7f272f3e3c2f6665446966667573654c69676874696e673e3c6665436f6d706f7360008201527f697465206f70657261746f723d27696e2720696e323d27536f7572636547726160208201527f70686963272f3e3c2f66696c7465723e00000000000000000000000000000000604082015250565b600061451860508361366b565b915061452382614496565b605082019050919050565b6000614539826141ed565b9150614545828c6136e8565b915061455082614239565b915061455c828b6136e8565b915061456782614285565b9150614573828a6136e8565b915061457e826142d1565b915061458a82896136e8565b91506145958261431d565b91506145a182886136e8565b91506145ac82614369565b91506145b882876136e8565b91506145c3826143db565b91506145cf82866136e8565b91506145da82614427565b91506145e682856136e8565b91506145f182614473565b91506145fd82846136e8565b91506146088261450b565b91508190509a9950505050505050505050565b7f3c646566733e3c72616469616c4772616469656e742069643d27706c616e657460008201527f4772616469656e74000000000000000000000000000000000000000000000000602082015250565b600061467760288361366b565b91506146828261461b565b602882019050919050565b7f272066783d27353025272066793d27353025273e000000000000000000000000600082015250565b60006146c360148361366b565b91506146ce8261468d565b601482019050919050565b7f3c2f72616469616c4772616469656e743e3c2f646566733e0000000000000000600082015250565b600061470f60188361366b565b915061471a826146d9565b601882019050919050565b60006147308261466a565b915061473c82866136e8565b9150614747826146b6565b915061475382856136e8565b915061475f82846136e8565b915061476a82614702565b9150819050949350505050565b7f3c636972636c652063783d270000000000000000000000000000000000000000600082015250565b60006147ad600c8361366b565b91506147b882614777565b600c82019050919050565b7f272063793d270000000000000000000000000000000000000000000000000000600082015250565b60006147f960068361366b565b9150614804826147c3565b600682019050919050565b7f2720723d27000000000000000000000000000000000000000000000000000000600082015250565b600061484560058361366b565b91506148508261480f565b600582019050919050565b7f272066696c7465723d2775726c2823706c616e657446696c7465720000000000600082015250565b6000614891601b8361366b565b915061489c8261485b565b601b82019050919050565b7f29272f3e3c636972636c652063783d2700000000000000000000000000000000600082015250565b60006148dd60108361366b565b91506148e8826148a7565b601082019050919050565b7f272066696c6c3d2775726c2823706c616e65744772616469656e740000000000600082015250565b6000614929601b8361366b565b9150614934826148f3565b601b82019050919050565b7f27206f7061636974793d27302e35272f3e000000000000000000000000000000600082015250565b600061497560118361366b565b91506149808261493f565b601182019050919050565b6000614996826147a0565b91506149a2828b6136e8565b91506149ad826147ec565b91506149b9828a6136e8565b91506149c482614838565b91506149d082896136e8565b91506149db82614884565b91506149e782886136e8565b91506149f2826148d0565b91506149fe82876136e8565b9150614a09826147ec565b9150614a1582866136e8565b9150614a2082614838565b9150614a2c82856136e8565b9150614a378261491c565b9150614a4382846136e8565b9150614a4e82614968565b91508190509998505050505050505050565b7f2000000000000000000000000000000000000000000000000000000000000000600082015250565b6000614a9660018361366b565b9150614aa182614a60565b600182019050919050565b6000614ab882876136e8565b9150614ac382614a89565b9150614acf82866136e8565b9150614ada82614a89565b9150614ae682856136e8565b9150614af182614a89565b9150614afd82846136e8565b915081905095945050505050565b6000614b1682612d09565b91507fffffffffffffffffffffffffffffffffffffffffffffffffffffffffffffffff8203614b4857614b47613a7a565b5b600182019050919050565b7f2c00000000000000000000000000000000000000000000000000000000000000600082015250565b6000614b8960018361366b565b9150614b9482614b53565b600182019050919050565b6000614bab82866136e8565b9150614bb682614a89565b9150614bc282856136e8565b9150614bcd82614b7c565b9150614bd982846136e8565b9150819050949350505050565b7f20313030302c31303030202d312c313030300000000000000000000000000000600082015250565b6000614c1c60128361366b565b9150614c2782614be6565b601282019050919050565b6000614c3e82846136e8565b9150614c4982614c0f565b915081905092915050565b7f3c66696c7465722069643d276d6f756e7461696e46696c7465722720783d273060008201527f252720793d273025272077696474683d273130302527206865696768743d273160208201527f303025273e3c666554757262756c656e636520747970653d276672616374616c60408201527f4e6f6973652720626173654672657175656e63793d27302e3000000000000000606082015250565b6000614cfc60798361366b565b9150614d0782614c54565b607982019050919050565b7f2720726573756c743d276e6f69736527206e756d4f6374617665733d2731352760008201527f2f3e3c6665446966667573654c69676874696e6720696e3d276e6f697365272060208201527f6c69676874696e672d636f6c6f723d277768697465272073757266616365536360408201527f616c653d27000000000000000000000000000000000000000000000000000000606082015250565b6000614dba60658361366b565b9150614dc582614d12565b606582019050919050565b7f273e3c666544697374616e744c6967687420617a696d7574683d27343527206560008201527f6c65766174696f6e3d273130272f3e3c2f6665446966667573654c696768746960208201527f6e673e3c6665436f6d706f73697465206f70657261746f723d27696e2720696e60408201527f3d27726970706c65732720696e323d27536f7572636547726170686963272f3e60608201527f3c2f66696c7465723e0000000000000000000000000000000000000000000000608082015250565b6000614e9e60898361366b565b9150614ea982614dd0565b608982019050919050565b6000614ebf82614cef565b9150614ecb82856136e8565b9150614ed682614dad565b9150614ee282846136e8565b9150614eed82614e91565b91508190509392505050565b7f3c646566733e3c6c696e6561724772616469656e742069643d276d6f756e746160008201527f696e4772616469656e74273e0000000000000000000000000000000000000000602082015250565b6000614f55602c8361366b565b9150614f6082614ef9565b602c82019050919050565b7f3c2f6c696e6561724772616469656e743e3c2f646566733e0000000000000000600082015250565b6000614fa160188361366b565b9150614fac82614f6b565b601882019050919050565b6000614fc282614f48565b9150614fce82866136e8565b9150614fda82856136e8565b9150614fe682846136e8565b9150614ff182614f94565b9150819050949350505050565b7f3c66696c7465722069643d2773686164696e6746696c746572273e3c6665547560008201527f7262756c656e636520747970653d276672616374616c4e6f697365272062617360208201527f654672657175656e63793d27302e30303420302e303127206e756d4f6374617660408201527f65733d27322720736565643d2700000000000000000000000000000000000000606082015250565b60006150a6606d8361366b565b91506150b182614ffe565b606d82019050919050565b7f272f3e3c6665436f6c6f724d61747269782076616c7565733d2730203120302060008201527f30202d342031203120302030202d342031203020302030202d3420302031203160208201527f2030202d31272f3e3c6665436f6d706f73697465206f70657261746f723d276960408201527f6e2720696e3d27726970706c65732720696e323d27536f75726365477261706860608201527f6963272f3e3c2f66696c7465723e000000000000000000000000000000000000608082015250565b600061518a608e8361366b565b9150615195826150bc565b608e82019050919050565b60006151ab82615099565b91506151b782846136e8565b91506151c28261517d565b915081905092915050565b7f3c706f6c79676f6e20706f696e74733d27000000000000000000000000000000600082015250565b600061520360118361366b565b915061520e826151cd565b601182019050919050565b7f272066696c7465723d2775726c28236d6f756e7461696e46696c74657229272f60008201527f3e3c706f6c79676f6e20706f696e74733d270000000000000000000000000000602082015250565b600061527560328361366b565b915061528082615219565b603282019050919050565b7f272066696c6c3d2775726c28236d6f756e7461696e4772616469656e7429272060008201527f6f7061636974793d27302e000000000000000000000000000000000000000000602082015250565b60006152e7602b8361366b565b91506152f28261528b565b602b82019050919050565b7f272f3e3c706f6c79676f6e20706f696e74733d27000000000000000000000000600082015250565b600061533360148361366b565b915061533e826152fd565b601482019050919050565b7f272066696c7465723d2775726c282373686164696e6746696c7465722927206f60008201527f7061636974793d27302e35272f3e000000000000000000000000000000000000602082015250565b60006153a5602e8361366b565b91506153b082615349565b602e82019050919050565b60006153c7828a6136e8565b91506153d382896136e8565b91506153df82886136e8565b91506153ea826151f6565b91506153f682876136e8565b915061540182615268565b915061540d82866136e8565b9150615418826152da565b915061542482856136e8565b915061542f82615326565b915061543b82846136e8565b915061544682615398565b915081905098975050505050505050565b7f3c66696c7465722069643d27636c6f756473273e000000000000000000000000600082015250565b600061548d60148361366b565b915061549882615457565b601482019050919050565b7f3c666554757262756c656e636520747970653d276672616374616c4e6f69736560008201527f2720626173654672657175656e63793d27000000000000000000000000000000602082015250565b60006154ff60318361366b565b915061550a826154a3565b603182019050919050565b7f27206e756d4f6374617665733d273230302720736565643d2700000000000000600082015250565b600061554b60198361366b565b915061555682615515565b601982019050919050565b7f272f3e3c2f66696c7465723e3c726563742077696474683d273130302527206860008201527f65696768743d273130302527206f7061636974793d2700000000000000000000602082015250565b60006155bd60368361366b565b91506155c882615561565b603682019050919050565b7f25272066696c7465723d2775726c2823636c6f75647329272f3e000000000000600082015250565b6000615609601a8361366b565b9150615614826155d3565b601a82019050919050565b600061562a82615480565b9150615635826154f2565b915061564182866136e8565b915061564c8261553e565b915061565882856136e8565b9150615663826155b0565b915061566f82846136e8565b915061567a826155fc565b9150819050949350505050565b600061569282612d09565b915061569d83612d09565b92508282039050818111156156b5576156b4613a7a565b5b92915050565b7f4320000000000000000000000000000000000000000000000000000000000000600082015250565b60006156f160028361366b565b91506156fc826156bb565b600282019050919050565b7f203830302c200000000000000000000000000000000000000000000000000000600082015250565b600061573d60068361366b565b915061574882615707565b600682019050919050565b7f2c20000000000000000000000000000000000000000000000000000000000000600082015250565b600061578960028361366b565b915061579482615753565b600282019050919050565b7f2038303000000000000000000000000000000000000000000000000000000000600082015250565b60006157d560048361366b565b91506157e08261579f565b600482019050919050565b60006157f782886136e8565b9150615802826156e4565b915061580e82876136e8565b915061581982615730565b915061582582866136e8565b915061583082614a89565b915061583c82856136e8565b91506158478261577c565b915061585382846136e8565b915061585e826157c8565b91508190509695505050505050565b7f3c66696c7465722069643d277761746572273e3c666554757262756c656e636560008201527f20626173654672657175656e63793d27302e3030000000000000000000000000602082015250565b60006158c960348361366b565b91506158d48261586d565b603482019050919050565b7f202e313127206e756d4f6374617665733d27342720736565643d270000000000600082015250565b6000615915601b8361366b565b9150615920826158df565b601b82019050919050565b7f272f3e3c6665436f6d706f6e656e745472616e7366657220726573756c743d2760008201527f77617665273e3c666546756e635220747970653d276c696e6561722720736c6f60208201527f70653d27302e312720696e746572636570743d272d302e3035272f3e3c66654660408201527f756e634720747970653d2767616d6d612720616d706c69747564653d27302e3760608201527f3527206578706f6e656e743d27302e3627206f66667365743d27302e3035272f60808201527f3e3c666546756e634220747970653d2767616d6d612720616d706c697475646560a08201527f3d27302e3827206578706f6e656e743d27302e3427206f66667365743d27302e60c08201527f3035272f3e3c666546756e634120747970653d276c696e6561722720736c6f7060e08201527f653d27000000000000000000000000000000000000000000000000000000000061010082015250565b6000615a936101038361366b565b9150615a9e8261592b565b61010382019050919050565b7f272f3e3c2f6665436f6d706f6e656e745472616e736665723e3c6665466c6f6f60008201527f6420666c6f6f642d636f6c6f723d276379616e272f3e3c6665436f6d706f736960208201527f746520696e3d2777617665272f3e3c6665436f6d706f7369746520696e323d2760408201527f536f75726365416c70686127206f70657261746f723d27696e272f3e3c2f666960608201527f6c7465723e3c7061746820643d274d20302031303030204c2030203830302000608082015250565b6000615b78609f8361366b565b9150615b8382615aaa565b609f82019050919050565b7f4c203130303020383030204c20313030302031303030272066696c7465723d2760008201527f75726c282377617465722927207374726f6b653d27636c65617227207374726f60208201527f6b652d77696474683d2730272066696c6c2d6f7061636974793d27302e35272f60408201527f3e00000000000000000000000000000000000000000000000000000000000000606082015250565b6000615c3660618361366b565b9150615c4182615b8e565b606182019050919050565b6000615c57826158bc565b9150615c6382876136e8565b9150615c6e82615908565b9150615c7a82866136e8565b9150615c8582615a85565b9150615c9182856136e8565b9150615c9c82615b6b565b9150615ca882846136e8565b9150615cb382615c29565b915081905095945050505050565b6000615ccc82612d09565b9150615cd783612d09565b925082615ce757615ce6613f9f565b5b828206905092915050565b7f7267622800000000000000000000000000000000000000000000000000000000600082015250565b6000615d2860048361366b565b9150615d3382615cf2565b600482019050919050565b7f2900000000000000000000000000000000000000000000000000000000000000600082015250565b6000615d7460018361366b565b9150615d7f82615d3e565b600182019050919050565b6000615d9582615d1b565b9150615da182866136e8565b9150615dac8261577c565b9150615db882856136e8565b9150615dc38261577c565b9150615dcf82846136e8565b9150615dda82615d67565b9150819050949350505050565b7f3c73746f70206f66667365743d27000000000000000000000000000000000000600082015250565b6000615e1d600e8361366b565b9150615e2882615de7565b600e82019050919050565b7f25272073746f702d636f6c6f723d270000000000000000000000000000000000600082015250565b6000615e69600f8361366b565b9150615e7482615e33565b600f82019050919050565b7f272f3e0000000000000000000000000000000000000000000000000000000000600082015250565b6000615eb560038361366b565b9150615ec082615e7f565b600382019050919050565b6000615ed682615e10565b9150615ee282856136e8565b9150615eed82615e5c565b9150615ef982846136e8565b9150615f0482615ea8565b9150819050939250505056fea264697066735822122022af12b316ef20ace5fb35f218cfe83a144c2c63329503141159264e6f10f82f64736f6c63430008110033",
  "linkReferences": {},
  "deployedLinkReferences": {}
}