{
  "_format": "hh-sol-artifact-1",
  "contractName": "TestRandom",
  "sourceName": "contracts/TestRandom.sol",
  "abi": [
    {
      "inputs": [
        {
          "internalType": "uint256",
          "name": "randomSeed",
          "type": "uint256"
        }
      ],
      "name": "randomColour",
      "outputs": [
        {
          "internalType": "string",
          "name": "",
          "type": "string"
        }
      ],
      "stateMutability": "pure",
      "type": "function"
    },
    {
      "inputs": [
        {
          "internalType": "uint256",
          "name": "randomSeed",
          "type": "uint256"
        },
        {
          "internalType": "uint256",
          "name": "min",
          "type": "uint256"
        },
        {
          "internalType": "uint256",
          "name": "max",
          "type": "uint256"
        }
      ],
      "name": "randomIntFromInterval",
      "outputs": [
        {
          "internalType": "uint256",
          "name": "",
          "type": "uint256"
        }
      ],
      "stateMutability": "pure",
      "type": "function"
    }
  ],
  "bytecode": "0x608060405234801561001057600080fd5b50610adb806100206000396000f3fe608060405234801561001057600080fd5b50600436106100365760003560e01c80637ae647561461003b578063ce7bc31f1461006b575b600080fd5b6100556004803603810190610050919061060b565b61009b565b60405161006291906106c8565b60405180910390f35b610085600480360381019061008091906106ea565b6100ad565b604051610092919061074c565b60405180910390f35b60606100a6826100c3565b9050919050565b60006100ba848484610125565b90509392505050565b606060006100d483600060ff610125565b905060006100f16002856100e89190610796565b600060ff610125565b9050600061010e6001866101059190610796565b600060ff610125565b905061011b838383610191565b9350505050919050565b60008282116101365782905061018a565b600084604051602001610149919061074c565b6040516020818303038152906040528051906020012060001c905083848461017191906107ca565b8261017c919061082d565b6101869190610796565b9150505b9392505050565b606061019c846101d8565b6101a5846101d8565b6101ae846101d8565b6040516020016101c09392919061097e565b60405160208183030381529060405290509392505050565b6060610100821061021e576040517f08c379a000000000000000000000000000000000000000000000000000000000815260040161021590610a27565b60405180910390fd5b60008203610263576040518060400160405280600181526020017f300000000000000000000000000000000000000000000000000000000000000081525090506105cb565b6060600a83101561031e57600167ffffffffffffffff81111561028957610288610a47565b5b6040519080825280601f01601f1916602001820160405280156102bb5781602001600182028036833780820191505090505b509050600a83816102cf576102ce6107fe565b5b0660300160f81b816000815181106102ea576102e9610a76565b5b60200101907effffffffffffffffffffffffffffffffffffffffffffffffffffffffffffff1916908160001a9053506105c6565b606483101561044257600267ffffffffffffffff81111561034257610341610a47565b5b6040519080825280601f01601f1916602001820160405280156103745781602001600182028036833780820191505090505b509050600a8381610388576103876107fe565b5b0660300160f81b816001815181106103a3576103a2610a76565b5b60200101907effffffffffffffffffffffffffffffffffffffffffffffffffffffffffffff1916908160001a905350600a8084816103e4576103e36107fe565b5b04816103f3576103f26107fe565b5b0660300160f81b8160008151811061040e5761040d610a76565b5b60200101907effffffffffffffffffffffffffffffffffffffffffffffffffffffffffffff1916908160001a9053506105c5565b600367ffffffffffffffff81111561045d5761045c610a47565b5b6040519080825280601f01601f19166020018201604052801561048f5781602001600182028036833780820191505090505b509050600a83816104a3576104a26107fe565b5b0660300160f81b816002815181106104be576104bd610a76565b5b60200101907effffffffffffffffffffffffffffffffffffffffffffffffffffffffffffff1916908160001a905350600a8084816104ff576104fe6107fe565b5b048161050e5761050d6107fe565b5b0660300160f81b8160018151811061052957610528610a76565b5b60200101907effffffffffffffffffffffffffffffffffffffffffffffffffffffffffffff1916908160001a905350600a6064848161056b5761056a6107fe565b5b048161057a576105796107fe565b5b0660300160f81b8160008151811061059557610594610a76565b5b60200101907effffffffffffffffffffffffffffffffffffffffffffffffffffffffffffff1916908160001a9053505b5b809150505b919050565b600080fd5b6000819050919050565b6105e8816105d5565b81146105f357600080fd5b50565b600081359050610605816105df565b92915050565b600060208284031215610621576106206105d0565b5b600061062f848285016105f6565b91505092915050565b600081519050919050565b600082825260208201905092915050565b60005b83811015610672578082015181840152602081019050610657565b60008484015250505050565b6000601f19601f8301169050919050565b600061069a82610638565b6106a48185610643565b93506106b4818560208601610654565b6106bd8161067e565b840191505092915050565b600060208201905081810360008301526106e2818461068f565b905092915050565b600080600060608486031215610703576107026105d0565b5b6000610711868287016105f6565b9350506020610722868287016105f6565b9250506040610733868287016105f6565b9150509250925092565b610746816105d5565b82525050565b6000602082019050610761600083018461073d565b92915050565b7f4e487b7100000000000000000000000000000000000000000000000000000000600052601160045260246000fd5b60006107a1826105d5565b91506107ac836105d5565b92508282019050808211156107c4576107c3610767565b5b92915050565b60006107d5826105d5565b91506107e0836105d5565b92508282039050818111156107f8576107f7610767565b5b92915050565b7f4e487b7100000000000000000000000000000000000000000000000000000000600052601260045260246000fd5b6000610838826105d5565b9150610843836105d5565b925082610853576108526107fe565b5b828206905092915050565b600081905092915050565b7f7267622800000000000000000000000000000000000000000000000000000000600082015250565b600061089f60048361085e565b91506108aa82610869565b600482019050919050565b60006108c082610638565b6108ca818561085e565b93506108da818560208601610654565b80840191505092915050565b7f2c20000000000000000000000000000000000000000000000000000000000000600082015250565b600061091c60028361085e565b9150610927826108e6565b600282019050919050565b7f2900000000000000000000000000000000000000000000000000000000000000600082015250565b600061096860018361085e565b915061097382610932565b600182019050919050565b600061098982610892565b915061099582866108b5565b91506109a08261090f565b91506109ac82856108b5565b91506109b78261090f565b91506109c382846108b5565b91506109ce8261095b565b9150819050949350505050565b7f696e70757420746f6f2062696700000000000000000000000000000000000000600082015250565b6000610a11600d83610643565b9150610a1c826109db565b602082019050919050565b60006020820190508181036000830152610a4081610a04565b9050919050565b7f4e487b7100000000000000000000000000000000000000000000000000000000600052604160045260246000fd5b7f4e487b7100000000000000000000000000000000000000000000000000000000600052603260045260246000fdfea264697066735822122073a6a12fcef1b6a83008ef57beea367e9196906bca225b6fa4b5c95a05629f1e64736f6c63430008110033",
  "linkReferences": {},
  "deployedLinkReferences": {}
}