{
  "_format": "hh-sol-artifact-1",
  "contractName": "AlienWorldz",
  "sourceName": "contracts/AlienWorldz.sol",
  "abi": [
    {
      "inputs": [],
      "stateMutability": "nonpayable",
      "type": "constructor"
    },
    {
      "inputs": [],
      "name": "ApprovalCallerNotOwnerNorApproved",
      "type": "error"
    },
    {
      "inputs": [],
      "name": "ApprovalQueryForNonexistentToken",
      "type": "error"
    },
    {
      "inputs": [],
      "name": "BalanceQueryForZeroAddress",
      "type": "error"
    },
    {
      "inputs": [],
      "name": "MintERC2309QuantityExceedsLimit",
      "type": "error"
    },
    {
      "inputs": [],
      "name": "MintToZeroAddress",
      "type": "error"
    },
    {
      "inputs": [],
      "name": "MintZeroQuantity",
      "type": "error"
    },
    {
      "inputs": [],
      "name": "OwnerQueryForNonexistentToken",
      "type": "error"
    },
    {
      "inputs": [],
      "name": "OwnershipNotInitializedForExtraData",
      "type": "error"
    },
    {
      "inputs": [],
      "name": "TransferCallerNotOwnerNorApproved",
      "type": "error"
    },
    {
      "inputs": [],
      "name": "TransferFromIncorrectOwner",
      "type": "error"
    },
    {
      "inputs": [],
      "name": "TransferToNonERC721ReceiverImplementer",
      "type": "error"
    },
    {
      "inputs": [],
      "name": "TransferToZeroAddress",
      "type": "error"
    },
    {
      "inputs": [],
      "name": "URIQueryForNonexistentToken",
      "type": "error"
    },
    {
      "anonymous": false,
      "inputs": [
        {
          "indexed": true,
          "internalType": "address",
          "name": "owner",
          "type": "address"
        },
        {
          "indexed": true,
          "internalType": "address",
          "name": "approved",
          "type": "address"
        },
        {
          "indexed": true,
          "internalType": "uint256",
          "name": "tokenId",
          "type": "uint256"
        }
      ],
      "name": "Approval",
      "type": "event"
    },
    {
      "anonymous": false,
      "inputs": [
        {
          "indexed": true,
          "internalType": "address",
          "name": "owner",
          "type": "address"
        },
        {
          "indexed": true,
          "internalType": "address",
          "name": "operator",
          "type": "address"
        },
        {
          "indexed": false,
          "internalType": "bool",
          "name": "approved",
          "type": "bool"
        }
      ],
      "name": "ApprovalForAll",
      "type": "event"
    },
    {
      "anonymous": false,
      "inputs": [
        {
          "indexed": true,
          "internalType": "uint256",
          "name": "fromTokenId",
          "type": "uint256"
        },
        {
          "indexed": false,
          "internalType": "uint256",
          "name": "toTokenId",
          "type": "uint256"
        },
        {
          "indexed": true,
          "internalType": "address",
          "name": "from",
          "type": "address"
        },
        {
          "indexed": true,
          "internalType": "address",
          "name": "to",
          "type": "address"
        }
      ],
      "name": "ConsecutiveTransfer",
      "type": "event"
    },
    {
      "anonymous": false,
      "inputs": [
        {
          "indexed": true,
          "internalType": "address",
          "name": "from",
          "type": "address"
        },
        {
          "indexed": true,
          "internalType": "address",
          "name": "to",
          "type": "address"
        },
        {
          "indexed": true,
          "internalType": "uint256",
          "name": "tokenId",
          "type": "uint256"
        }
      ],
      "name": "Transfer",
      "type": "event"
    },
    {
      "inputs": [],
      "name": "ROYALTY_BPS",
      "outputs": [
        {
          "internalType": "uint16",
          "name": "",
          "type": "uint16"
        }
      ],
      "stateMutability": "view",
      "type": "function"
    },
    {
      "inputs": [],
      "name": "TOKEN_LIMIT",
      "outputs": [
        {
          "internalType": "uint16",
          "name": "",
          "type": "uint16"
        }
      ],
      "stateMutability": "view",
      "type": "function"
    },
    {
      "inputs": [
        {
          "internalType": "address",
          "name": "to",
          "type": "address"
        },
        {
          "internalType": "uint256",
          "name": "tokenId",
          "type": "uint256"
        }
      ],
      "name": "approve",
      "outputs": [],
      "stateMutability": "payable",
      "type": "function"
    },
    {
      "inputs": [
        {
          "internalType": "address",
          "name": "owner",
          "type": "address"
        }
      ],
      "name": "balanceOf",
      "outputs": [
        {
          "internalType": "uint256",
          "name": "",
          "type": "uint256"
        }
      ],
      "stateMutability": "view",
      "type": "function"
    },
    {
      "inputs": [
        {
          "internalType": "uint256",
          "name": "_tokenId",
          "type": "uint256"
        }
      ],
      "name": "generateSvg",
      "outputs": [
        {
          "internalType": "string",
          "name": "",
          "type": "string"
        }
      ],
      "stateMutability": "view",
      "type": "function"
    },
    {
      "inputs": [
        {
          "internalType": "uint256",
          "name": "tokenId",
          "type": "uint256"
        }
      ],
      "name": "getApproved",
      "outputs": [
        {
          "internalType": "address",
          "name": "",
          "type": "address"
        }
      ],
      "stateMutability": "view",
      "type": "function"
    },
    {
      "inputs": [
        {
          "internalType": "address",
          "name": "owner",
          "type": "address"
        },
        {
          "internalType": "address",
          "name": "operator",
          "type": "address"
        }
      ],
      "name": "isApprovedForAll",
      "outputs": [
        {
          "internalType": "bool",
          "name": "",
          "type": "bool"
        }
      ],
      "stateMutability": "view",
      "type": "function"
    },
    {
      "inputs": [
        {
          "internalType": "uint24",
          "name": "_seed",
          "type": "uint24"
        }
      ],
      "name": "mint",
      "outputs": [],
      "stateMutability": "payable",
      "type": "function"
    },
    {
      "inputs": [],
      "name": "name",
      "outputs": [
        {
          "internalType": "string",
          "name": "",
          "type": "string"
        }
      ],
      "stateMutability": "view",
      "type": "function"
    },
    {
      "inputs": [
        {
          "internalType": "uint256",
          "name": "tokenId",
          "type": "uint256"
        }
      ],
      "name": "ownerOf",
      "outputs": [
        {
          "internalType": "address",
          "name": "",
          "type": "address"
        }
      ],
      "stateMutability": "view",
      "type": "function"
    },
    {
      "inputs": [
        {
          "internalType": "address",
          "name": "from",
          "type": "address"
        },
        {
          "internalType": "address",
          "name": "to",
          "type": "address"
        },
        {
          "internalType": "uint256",
          "name": "tokenId",
          "type": "uint256"
        }
      ],
      "name": "safeTransferFrom",
      "outputs": [],
      "stateMutability": "payable",
      "type": "function"
    },
    {
      "inputs": [
        {
          "internalType": "address",
          "name": "from",
          "type": "address"
        },
        {
          "internalType": "address",
          "name": "to",
          "type": "address"
        },
        {
          "internalType": "uint256",
          "name": "tokenId",
          "type": "uint256"
        },
        {
          "internalType": "bytes",
          "name": "_data",
          "type": "bytes"
        }
      ],
      "name": "safeTransferFrom",
      "outputs": [],
      "stateMutability": "payable",
      "type": "function"
    },
    {
      "inputs": [
        {
          "internalType": "address",
          "name": "operator",
          "type": "address"
        },
        {
          "internalType": "bool",
          "name": "approved",
          "type": "bool"
        }
      ],
      "name": "setApprovalForAll",
      "outputs": [],
      "stateMutability": "nonpayable",
      "type": "function"
    },
    {
      "inputs": [
        {
          "internalType": "bytes4",
          "name": "interfaceId",
          "type": "bytes4"
        }
      ],
      "name": "supportsInterface",
      "outputs": [
        {
          "internalType": "bool",
          "name": "",
          "type": "bool"
        }
      ],
      "stateMutability": "view",
      "type": "function"
    },
    {
      "inputs": [],
      "name": "symbol",
      "outputs": [
        {
          "internalType": "string",
          "name": "",
          "type": "string"
        }
      ],
      "stateMutability": "view",
      "type": "function"
    },
    {
      "inputs": [
        {
          "internalType": "uint256",
          "name": "_tokenId",
          "type": "uint256"
        }
      ],
      "name": "tokenURI",
      "outputs": [
        {
          "internalType": "string",
          "name": "",
          "type": "string"
        }
      ],
      "stateMutability": "view",
      "type": "function"
    },
    {
      "inputs": [],
      "name": "totalSupply",
      "outputs": [
        {
          "internalType": "uint256",
          "name": "",
          "type": "uint256"
        }
      ],
      "stateMutability": "view",
      "type": "function"
    },
    {
      "inputs": [
        {
          "internalType": "address",
          "name": "from",
          "type": "address"
        },
        {
          "internalType": "address",
          "name": "to",
          "type": "address"
        },
        {
          "internalType": "uint256",
          "name": "tokenId",
          "type": "uint256"
        }
      ],
      "name": "transferFrom",
      "outputs": [],
      "stateMutability": "payable",
      "type": "function"
    }
  ],
  "bytecode": "0x60806040523480156200001157600080fd5b506040518060400160405280600b81526020017f416c69656e576f726c647a0000000000000000000000000000000000000000008152506040518060400160405280600381526020017f41575a000000000000000000000000000000000000000000000000000000000081525081600290816200008f91906200033f565b508060039081620000a191906200033f565b50620000b2620000c060201b60201c565b600081905550505062000426565b600090565b600081519050919050565b7f4e487b7100000000000000000000000000000000000000000000000000000000600052604160045260246000fd5b7f4e487b7100000000000000000000000000000000000000000000000000000000600052602260045260246000fd5b600060028204905060018216806200014757607f821691505b6020821081036200015d576200015c620000ff565b5b50919050565b60008190508160005260206000209050919050565b60006020601f8301049050919050565b600082821b905092915050565b600060088302620001c77fffffffffffffffffffffffffffffffffffffffffffffffffffffffffffffffff8262000188565b620001d3868362000188565b95508019841693508086168417925050509392505050565b6000819050919050565b6000819050919050565b6000620002206200021a6200021484620001eb565b620001f5565b620001eb565b9050919050565b6000819050919050565b6200023c83620001ff565b620002546200024b8262000227565b84845462000195565b825550505050565b600090565b6200026b6200025c565b6200027881848462000231565b505050565b5b81811015620002a0576200029460008262000261565b6001810190506200027e565b5050565b601f821115620002ef57620002b98162000163565b620002c48462000178565b81016020851015620002d4578190505b620002ec620002e38562000178565b8301826200027d565b50505b505050565b600082821c905092915050565b60006200031460001984600802620002f4565b1980831691505092915050565b60006200032f838362000301565b9150826002028217905092915050565b6200034a82620000c5565b67ffffffffffffffff811115620003665762000365620000d0565b5b6200037282546200012e565b6200037f828285620002a4565b600060209050601f831160018114620003b75760008415620003a2578287015190505b620003ae858262000321565b8655506200041e565b601f198416620003c78662000163565b60005b82811015620003f157848901518255600182019150602085019450602081019050620003ca565b868310156200041157848901516200040d601f89168262000301565b8355505b6001600288020188555050505b505050505050565b61592180620004366000396000f3fe6080604052600436106101095760003560e01c80636352211e11610095578063b88d4fde11610064578063b88d4fde14610356578063bc921dc214610372578063c87b56dd146103af578063e985e9c5146103ec578063eaef4d8f1461042957610109565b80636352211e1461028857806370a08231146102c557806395d89b4114610302578063a22cb4651461032d57610109565b8063095ea7b3116100dc578063095ea7b3146101de57806318160ddd146101fa57806323b872dd1461022557806342842e0e1461024157806349c657db1461025d57610109565b806301ffc9a71461010e578063031bd4c41461014b57806306fdde0314610176578063081812fc146101a1575b600080fd5b34801561011a57600080fd5b5061013560048036038101906101309190612891565b610445565b60405161014291906128d9565b60405180910390f35b34801561015757600080fd5b506101606104d7565b60405161016d9190612911565b60405180910390f35b34801561018257600080fd5b5061018b6104dd565b60405161019891906129bc565b60405180910390f35b3480156101ad57600080fd5b506101c860048036038101906101c39190612a14565b61056f565b6040516101d59190612a82565b60405180910390f35b6101f860048036038101906101f39190612ac9565b6105ee565b005b34801561020657600080fd5b5061020f610732565b60405161021c9190612b18565b60405180910390f35b61023f600480360381019061023a9190612b33565b610749565b005b61025b60048036038101906102569190612b33565b610a6b565b005b34801561026957600080fd5b50610272610a8b565b60405161027f9190612911565b60405180910390f35b34801561029457600080fd5b506102af60048036038101906102aa9190612a14565b610a91565b6040516102bc9190612a82565b60405180910390f35b3480156102d157600080fd5b506102ec60048036038101906102e79190612b86565b610aa3565b6040516102f99190612b18565b60405180910390f35b34801561030e57600080fd5b50610317610b5b565b60405161032491906129bc565b60405180910390f35b34801561033957600080fd5b50610354600480360381019061034f9190612bdf565b610bed565b005b610370600480360381019061036b9190612d54565b610cf8565b005b34801561037e57600080fd5b5061039960048036038101906103949190612a14565b610d6b565b6040516103a691906129bc565b60405180910390f35b3480156103bb57600080fd5b506103d660048036038101906103d19190612a14565b610dfd565b6040516103e391906129bc565b60405180910390f35b3480156103f857600080fd5b50610413600480360381019061040e9190612dd7565b610f26565b60405161042091906128d9565b60405180910390f35b610443600480360381019061043e9190612e52565b610fba565b005b60006301ffc9a760e01b827bffffffffffffffffffffffffffffffffffffffffffffffffffffffff191614806104a057506380ac58cd60e01b827bffffffffffffffffffffffffffffffffffffffffffffffffffffffff1916145b806104d05750635b5e139f60e01b827bffffffffffffffffffffffffffffffffffffffffffffffffffffffff1916145b9050919050565b61020081565b6060600280546104ec90612eae565b80601f016020809104026020016040519081016040528092919081815260200182805461051890612eae565b80156105655780601f1061053a57610100808354040283529160200191610565565b820191906000526020600020905b81548152906001019060200180831161054857829003601f168201915b5050505050905090565b600061057a826110fc565b6105b0576040517fcf4700e400000000000000000000000000000000000000000000000000000000815260040160405180910390fd5b6006600083815260200190815260200160002060000160009054906101000a900473ffffffffffffffffffffffffffffffffffffffff169050919050565b60006105f982610a91565b90508073ffffffffffffffffffffffffffffffffffffffff1661061a61115b565b73ffffffffffffffffffffffffffffffffffffffff161461067d576106468161064161115b565b610f26565b61067c576040517fcfb3b94200000000000000000000000000000000000000000000000000000000815260040160405180910390fd5b5b826006600084815260200190815260200160002060000160006101000a81548173ffffffffffffffffffffffffffffffffffffffff021916908373ffffffffffffffffffffffffffffffffffffffff160217905550818373ffffffffffffffffffffffffffffffffffffffff168273ffffffffffffffffffffffffffffffffffffffff167f8c5be1e5ebec7d5bd14f71427d1e84f3dd0314c0f7b2291e5b200ac8c7c3b92560405160405180910390a4505050565b600061073c611163565b6001546000540303905090565b600061075482611168565b90508373ffffffffffffffffffffffffffffffffffffffff168173ffffffffffffffffffffffffffffffffffffffff16146107bb576040517fa114810000000000000000000000000000000000000000000000000000000000815260040160405180910390fd5b6000806107c784611234565b915091506107dd81876107d861115b565b61125b565b610829576107f2866107ed61115b565b610f26565b610828576040517f59c896be00000000000000000000000000000000000000000000000000000000815260040160405180910390fd5b5b600073ffffffffffffffffffffffffffffffffffffffff168573ffffffffffffffffffffffffffffffffffffffff160361088f576040517fea553b3400000000000000000000000000000000000000000000000000000000815260040160405180910390fd5b61089c868686600161129f565b80156108a757600082555b600560008773ffffffffffffffffffffffffffffffffffffffff1673ffffffffffffffffffffffffffffffffffffffff168152602001908152602001600020600081546001900391905081905550600560008673ffffffffffffffffffffffffffffffffffffffff1673ffffffffffffffffffffffffffffffffffffffff1681526020019081526020016000206000815460010191905081905550610975856109518888876112a5565b7c0200000000000000000000000000000000000000000000000000000000176112cd565b600460008681526020019081526020016000208190555060007c02000000000000000000000000000000000000000000000000000000008416036109fb57600060018501905060006004600083815260200190815260200160002054036109f95760005481146109f8578360046000838152602001908152602001600020819055505b5b505b838573ffffffffffffffffffffffffffffffffffffffff168773ffffffffffffffffffffffffffffffffffffffff167fddf252ad1be2c89b69c2b068fc378daa952ba7f163c4a11628f55a4df523b3ef60405160405180910390a4610a6386868660016112f8565b505050505050565b610a8683838360405180602001604052806000815250610cf8565b505050565b6103e881565b6000610a9c82611168565b9050919050565b60008073ffffffffffffffffffffffffffffffffffffffff168273ffffffffffffffffffffffffffffffffffffffff1603610b0a576040517f8f4eb60400000000000000000000000000000000000000000000000000000000815260040160405180910390fd5b67ffffffffffffffff600560008473ffffffffffffffffffffffffffffffffffffffff1673ffffffffffffffffffffffffffffffffffffffff16815260200190815260200160002054169050919050565b606060038054610b6a90612eae565b80601f0160208091040260200160405190810160405280929190818152602001828054610b9690612eae565b8015610be35780601f10610bb857610100808354040283529160200191610be3565b820191906000526020600020905b815481529060010190602001808311610bc657829003601f168201915b5050505050905090565b8060076000610bfa61115b565b73ffffffffffffffffffffffffffffffffffffffff1673ffffffffffffffffffffffffffffffffffffffff16815260200190815260200160002060008473ffffffffffffffffffffffffffffffffffffffff1673ffffffffffffffffffffffffffffffffffffffff16815260200190815260200160002060006101000a81548160ff0219169083151502179055508173ffffffffffffffffffffffffffffffffffffffff16610ca761115b565b73ffffffffffffffffffffffffffffffffffffffff167f17307eab39ab6107e8899845ad3d59bd9653f200f220920489ca2b5937696c3183604051610cec91906128d9565b60405180910390a35050565b610d03848484610749565b60008373ffffffffffffffffffffffffffffffffffffffff163b14610d6557610d2e848484846112fe565b610d64576040517fd1a57ed600000000000000000000000000000000000000000000000000000000815260040160405180910390fd5b5b50505050565b6060610d76826110fc565b8015610d87575061020061ffff1682105b610dc6576040517f08c379a0000000000000000000000000000000000000000000000000000000008152600401610dbd90612f2b565b60405180910390fd5b610df66008600084815260200190815260200160002060009054906101000a900462ffffff1662ffffff1661144e565b9050919050565b6060610e08826110fc565b610e47576040517f08c379a0000000000000000000000000000000000000000000000000000000008152600401610e3e90612f97565b60405180910390fd5b60006040518060400160405280601881526020017f412062656175746966756c20416c69656e20576f726c642e000000000000000081525090506000604051602001610e92906130a6565b604051602081830303815290604052905060006040518060200160405280600081525090506000610ec286610d6b565b9050610efc610ed08761157d565b85858585604051602001610ee8959493929190613300565b6040516020818303038152906040526116de565b604051602001610f0c91906133d9565b604051602081830303815290604052945050505050919050565b6000600760008473ffffffffffffffffffffffffffffffffffffffff1673ffffffffffffffffffffffffffffffffffffffff16815260200190815260200160002060008373ffffffffffffffffffffffffffffffffffffffff1673ffffffffffffffffffffffffffffffffffffffff16815260200190815260200160002060009054906101000a900460ff16905092915050565b61020061ffff16610fc9611856565b111561100a576040517f08c379a000000000000000000000000000000000000000000000000000000000815260040161100190613447565b60405180910390fd5b60001515600960008362ffffff1662ffffff16815260200190815260200160002060009054906101000a900460ff1615151461107b576040517f08c379a0000000000000000000000000000000000000000000000000000000008152600401611072906134b3565b60405180910390fd5b6000611085611869565b9050816008600083815260200190815260200160002060006101000a81548162ffffff021916908362ffffff1602179055506001600960008462ffffff1662ffffff16815260200190815260200160002060006101000a81548160ff0219169083151502179055506110f8336001611872565b5050565b600081611107611163565b11158015611116575060005482105b8015611154575060007c0100000000000000000000000000000000000000000000000000000000600460008581526020019081526020016000205416145b9050919050565b600033905090565b600090565b60008082905080611177611163565b116111fd576000548110156111fc5760006004600083815260200190815260200160002054905060007c01000000000000000000000000000000000000000000000000000000008216036111fa575b600081036111f05760046000836001900393508381526020019081526020016000205490506111c6565b809250505061122f565b505b5b6040517fdf2d9b4200000000000000000000000000000000000000000000000000000000815260040160405180910390fd5b919050565b60008060006006600085815260200190815260200160002090508092508254915050915091565b600073ffffffffffffffffffffffffffffffffffffffff8316925073ffffffffffffffffffffffffffffffffffffffff821691508382148383141790509392505050565b50505050565b60008060e883901c905060e86112bc868684611a2d565b62ffffff16901b9150509392505050565b600073ffffffffffffffffffffffffffffffffffffffff83169250814260a01b178317905092915050565b50505050565b60008373ffffffffffffffffffffffffffffffffffffffff1663150b7a0261132461115b565b8786866040518563ffffffff1660e01b81526004016113469493929190613528565b6020604051808303816000875af192505050801561138257506040513d601f19601f8201168201806040525081019061137f9190613589565b60015b6113fb573d80600081146113b2576040519150601f19603f3d011682016040523d82523d6000602084013e6113b7565b606091505b5060008151036113f3576040517fd1a57ed600000000000000000000000000000000000000000000000000000000815260040160405180910390fd5b805181602001fd5b63150b7a0260e01b7bffffffffffffffffffffffffffffffffffffffffffffffffffffffff1916817bffffffffffffffffffffffffffffffffffffffffffffffffffffffff191614915050949350505050565b60606000611468611463846000610168611a36565b61157d565b9050600061148160038561147c91906135e5565b611aa2565b9050600061149a60038661149591906135e5565b611aa2565b905060006114b36003876114ae91906135e5565b611aa2565b90506000848484846040516020016114ce9493929190613795565b604051602081830303815290604052905060006040516020016114f0906138a2565b6040516020818303038152906040529050600061150c89611b04565b6115158a611b35565b61151e8b611f36565b6115278c612161565b60405160200161153a94939291906138b7565b604051602081830303815290604052905082828260405160200161156093929190613a71565b604051602081830303815290604052975050505050505050919050565b6060600082036115c4576040518060400160405280600181526020017f300000000000000000000000000000000000000000000000000000000000000081525090506116d9565b600082905060005b600082146115f5578080600101915050600a82816115ed576115ec613ace565b5b0491506115cc565b60008167ffffffffffffffff81111561161157611610612c29565b5b6040519080825280601f01601f1916602001820160405280156116435781602001600182028036833780820191505090505b50905060008290508593505b600084146116d157600a848161166857611667613ace565b5b0660300160f81b8282600190039250828151811061168957611688613afd565b5b60200101907effffffffffffffffffffffffffffffffffffffffffffffffffffffffffffff1916908160001a905350600a84816116c9576116c8613ace565b5b04935061164f565b819450505050505b919050565b6060600082510361170057604051806020016040528060008152509050611851565b60006040518060600160405280604081526020016158ac604091399050600060036002855161172f91906135e5565b6117399190613b2c565b60046117459190613b5d565b9050600060208261175691906135e5565b67ffffffffffffffff81111561176f5761176e612c29565b5b6040519080825280601f01601f1916602001820160405280156117a15781602001600182028036833780820191505090505b509050818152600183018586518101602084015b81831015611810576003830192508251603f8160121c168501518253600182019150603f81600c1c168501518253600182019150603f8160061c168501518253600182019150603f81168501518253600182019150506117b5565b60038951066001811461182a576002811461183a57611845565b613d3d60f01b6002830352611845565b603d60f81b60018303525b50505050508093505050505b919050565b6000611860611163565b60005403905090565b60008054905090565b600080549050600082036118b2576040517fb562e8dd00000000000000000000000000000000000000000000000000000000815260040160405180910390fd5b6118bf600084838561129f565b600160406001901b178202600560008573ffffffffffffffffffffffffffffffffffffffff1673ffffffffffffffffffffffffffffffffffffffff168152602001908152602001600020600082825401925050819055506119368361192760008660006112a5565b611930856121fd565b176112cd565b6004600083815260200190815260200160002081905550600080838301905073ffffffffffffffffffffffffffffffffffffffff85169150828260007fddf252ad1be2c89b69c2b068fc378daa952ba7f163c4a11628f55a4df523b3ef600080a4600183015b8181146119d757808360007fddf252ad1be2c89b69c2b068fc378daa952ba7f163c4a11628f55a4df523b3ef600080a460018101905061199c565b5060008203611a12576040517f2e07630000000000000000000000000000000000000000000000000000000000815260040160405180910390fd5b806000819055505050611a2860008483856112f8565b505050565b60009392505050565b6000828211611a4757829050611a9b565b600084604051602001611a5a9190612b18565b6040516020818303038152906040528051906020012060001c9050838484611a829190613b9f565b82611a8d9190613bd3565b611a9791906135e5565b9150505b9392505050565b60606000611ab383600060ff611a36565b90506000611ad0600285611ac791906135e5565b600060ff611a36565b90506000611aed600186611ae491906135e5565b600060ff611a36565b9050611afa83838361220d565b9350505050919050565b6060611b0f8261157d565b604051602001611b1f9190613da6565b6040516020818303038152906040529050919050565b60606000611b52600284611b499190613b5d565b60006005611a36565b9050600060405180602001604052806000815250905060005b82811015611f2b57600081600287611b839190613b5d565b611b8d91906135e5565b90506000611b9a8361157d565b9050611ba461275f565b611bb183601460c8611a36565b816000018181525050611bc7816000015161157d565b8160200181905250611be5611be08460326103b6611a36565b61157d565b8160400181905250611c03611bfe8460006101f4611a36565b61157d565b8160600181905250611c2b84600a85611c1c91906135e5565b611c2691906135e5565b611aa2565b8160800181905250611c48611c438460036019611a36565b61157d565b8160a00181905250611c648484611c5f91906135e5565b611aa2565b8160c00181905250611c81611c7c84604b6061611a36565b61157d565b8160e00181905250611ca9600a8585611c9a91906135e5565b611ca491906135e5565b611aa2565b8161010001819052506005611cc1846000600a611a36565b11611d01576040518060400160405280600a81526020017f74757262756c656e636500000000000000000000000000000000000000000000815250611d38565b6040518060400160405280600c81526020017f6672616374616c4e6f69736500000000000000000000000000000000000000008152505b816101200181905250611d7360028260000151611d559190613b5d565b611d64856103e8610fa0611a36565b611d6e9190613b2c565b61157d565b816101600181905250611da28160000151611d93856107d0610fa0611a36565b611d9d9190613b2c565b61157d565b816101400181905250611dc0611dbb846003600a611a36565b61157d565b816101800181905250611dde611dd984601e6064611a36565b61157d565b816101a00181905250611dfc611df7846005600a611a36565b61157d565b816101c00181905250600082826101200151836101600151846101400151611e238861157d565b8661018001518760c00151886101c00151896101a00151604051602001611e52999897969594939291906141ba565b60405160208183030381529060405290506000838360a001518460c001518560e00151866101000151604051602001611e8f9594939291906144fd565b60405160208183030381529060405290506000836040015184606001518560200151878760400151886060015189602001518b604051602001611ed998979695949392919061484c565b604051602081830303815290604052905087828483604051602001611f0194939291906149af565b60405160208183030381529060405297505050505050508080611f2390614a0e565b915050611b6b565b508092505050919050565b60606000611f48836103e86033612254565b9050606060005b6033811015611fee576000838260338110611f6d57611f6c613afd565b5b6020020151905082611f9682600060028110611f8c57611f8b613afd565b5b602002015161157d565b611fb783600160028110611fad57611fac613afd565b5b602002015161157d565b604051602001611fc993929190614aa2565b6040516020818303038152906040529250508080611fe690614a0e565b915050611f4f565b50806040516020016120009190614b35565b604051602081830303815290604052905060006120208560016003611a36565b905060006120318660016003611a36565b9050600061203e8361157d565b6120478361157d565b604051602001612058929190614db7565b6040516020818303038152906040529050600061208060038961207b91906135e5565b611aa2565b905060006120996120948a600a605a611a36565b61157d565b905060006120b260058b6120ad91906135e5565b611aa2565b90506000838383866040516020016120cd9493929190614f9e565b604051602081830303815290604052905060006120f56120f08d60036008611a36565b61157d565b905060006121028d61157d565b60405160200161211291906151b5565b60405160208183030381529060405290508683828c8d868f60405160200161214097969594939291906153d0565b6040516020818303038152906040529b505050505050505050505050919050565b606060006040518060400160405280600b81526020017f302e30303220302e303134000000000000000000000000000000000000000000815250905060006121c06121bb6005866121b29190613b5d565b601e6050611a36565b61157d565b90506000826121ce8661157d565b836040516020016121e1939291906156cc565b6040516020818303038152906040529050809350505050919050565b60006001821460e11b9050919050565b606061221884612367565b61222184612367565b61222a84612367565b60405160200161223c939291906157e2565b60405160208183030381529060405290509392505050565b61225c6127d5565b60006101f4905060006001846122729190613b9f565b8561227d9190613b2c565b90506122876127d5565b600083905060005b8681101561235857600084826122a59190613b5d565b905060006103e8838c6122b891906135e5565b6122c291906135e5565b905060006122d38260006014611a36565b9050600060326122e68460006064611a36565b11905080156123025781866122fb91906135e5565b9550612311565b818661230e9190613b9f565b95505b60405180604001604052808581526020018781525087866033811061233957612338613afd565b5b602002018190525050505050808061235090614a0e565b91505061228f565b50819450505050509392505050565b606061010082106123ad576040517f08c379a00000000000000000000000000000000000000000000000000000000081526004016123a49061588b565b60405180910390fd5b600082036123f2576040518060400160405280600181526020017f3000000000000000000000000000000000000000000000000000000000000000815250905061275a565b6060600a8310156124ad57600167ffffffffffffffff81111561241857612417612c29565b5b6040519080825280601f01601f19166020018201604052801561244a5781602001600182028036833780820191505090505b509050600a838161245e5761245d613ace565b5b0660300160f81b8160008151811061247957612478613afd565b5b60200101907effffffffffffffffffffffffffffffffffffffffffffffffffffffffffffff1916908160001a905350612755565b60648310156125d157600267ffffffffffffffff8111156124d1576124d0612c29565b5b6040519080825280601f01601f1916602001820160405280156125035781602001600182028036833780820191505090505b509050600a838161251757612516613ace565b5b0660300160f81b8160018151811061253257612531613afd565b5b60200101907effffffffffffffffffffffffffffffffffffffffffffffffffffffffffffff1916908160001a905350600a80848161257357612572613ace565b5b048161258257612581613ace565b5b0660300160f81b8160008151811061259d5761259c613afd565b5b60200101907effffffffffffffffffffffffffffffffffffffffffffffffffffffffffffff1916908160001a905350612754565b600367ffffffffffffffff8111156125ec576125eb612c29565b5b6040519080825280601f01601f19166020018201604052801561261e5781602001600182028036833780820191505090505b509050600a838161263257612631613ace565b5b0660300160f81b8160028151811061264d5761264c613afd565b5b60200101907effffffffffffffffffffffffffffffffffffffffffffffffffffffffffffff1916908160001a905350600a80848161268e5761268d613ace565b5b048161269d5761269c613ace565b5b0660300160f81b816001815181106126b8576126b7613afd565b5b60200101907effffffffffffffffffffffffffffffffffffffffffffffffffffffffffffff1916908160001a905350600a606484816126fa576126f9613ace565b5b048161270957612708613ace565b5b0660300160f81b8160008151811061272457612723613afd565b5b60200101907effffffffffffffffffffffffffffffffffffffffffffffffffffffffffffff1916908160001a9053505b5b809150505b919050565b604051806101e001604052806000815260200160608152602001606081526020016060815260200160608152602001606081526020016060815260200160608152602001606081526020016060815260200160608152602001606081526020016060815260200160608152602001606081525090565b6040518061066001604052806033905b6127ed612803565b8152602001906001900390816127e55790505090565b6040518060400160405280600290602082028036833780820191505090505090565b6000604051905090565b600080fd5b600080fd5b60007fffffffff0000000000000000000000000000000000000000000000000000000082169050919050565b61286e81612839565b811461287957600080fd5b50565b60008135905061288b81612865565b92915050565b6000602082840312156128a7576128a661282f565b5b60006128b58482850161287c565b91505092915050565b60008115159050919050565b6128d3816128be565b82525050565b60006020820190506128ee60008301846128ca565b92915050565b600061ffff82169050919050565b61290b816128f4565b82525050565b60006020820190506129266000830184612902565b92915050565b600081519050919050565b600082825260208201905092915050565b60005b8381101561296657808201518184015260208101905061294b565b60008484015250505050565b6000601f19601f8301169050919050565b600061298e8261292c565b6129988185612937565b93506129a8818560208601612948565b6129b181612972565b840191505092915050565b600060208201905081810360008301526129d68184612983565b905092915050565b6000819050919050565b6129f1816129de565b81146129fc57600080fd5b50565b600081359050612a0e816129e8565b92915050565b600060208284031215612a2a57612a2961282f565b5b6000612a38848285016129ff565b91505092915050565b600073ffffffffffffffffffffffffffffffffffffffff82169050919050565b6000612a6c82612a41565b9050919050565b612a7c81612a61565b82525050565b6000602082019050612a976000830184612a73565b92915050565b612aa681612a61565b8114612ab157600080fd5b50565b600081359050612ac381612a9d565b92915050565b60008060408385031215612ae057612adf61282f565b5b6000612aee85828601612ab4565b9250506020612aff858286016129ff565b9150509250929050565b612b12816129de565b82525050565b6000602082019050612b2d6000830184612b09565b92915050565b600080600060608486031215612b4c57612b4b61282f565b5b6000612b5a86828701612ab4565b9350506020612b6b86828701612ab4565b9250506040612b7c868287016129ff565b9150509250925092565b600060208284031215612b9c57612b9b61282f565b5b6000612baa84828501612ab4565b91505092915050565b612bbc816128be565b8114612bc757600080fd5b50565b600081359050612bd981612bb3565b92915050565b60008060408385031215612bf657612bf561282f565b5b6000612c0485828601612ab4565b9250506020612c1585828601612bca565b9150509250929050565b600080fd5b600080fd5b7f4e487b7100000000000000000000000000000000000000000000000000000000600052604160045260246000fd5b612c6182612972565b810181811067ffffffffffffffff82111715612c8057612c7f612c29565b5b80604052505050565b6000612c93612825565b9050612c9f8282612c58565b919050565b600067ffffffffffffffff821115612cbf57612cbe612c29565b5b612cc882612972565b9050602081019050919050565b82818337600083830152505050565b6000612cf7612cf284612ca4565b612c89565b905082815260208101848484011115612d1357612d12612c24565b5b612d1e848285612cd5565b509392505050565b600082601f830112612d3b57612d3a612c1f565b5b8135612d4b848260208601612ce4565b91505092915050565b60008060008060808587031215612d6e57612d6d61282f565b5b6000612d7c87828801612ab4565b9450506020612d8d87828801612ab4565b9350506040612d9e878288016129ff565b925050606085013567ffffffffffffffff811115612dbf57612dbe612834565b5b612dcb87828801612d26565b91505092959194509250565b60008060408385031215612dee57612ded61282f565b5b6000612dfc85828601612ab4565b9250506020612e0d85828601612ab4565b9150509250929050565b600062ffffff82169050919050565b612e2f81612e17565b8114612e3a57600080fd5b50565b600081359050612e4c81612e26565b92915050565b600060208284031215612e6857612e6761282f565b5b6000612e7684828501612e3d565b91505092915050565b7f4e487b7100000000000000000000000000000000000000000000000000000000600052602260045260246000fd5b60006002820490506001821680612ec657607f821691505b602082108103612ed957612ed8612e7f565b5b50919050565b7f62616420746f6b656e2049440000000000000000000000000000000000000000600082015250565b6000612f15600c83612937565b9150612f2082612edf565b602082019050919050565b60006020820190508181036000830152612f4481612f08565b9050919050565b7f494420646f65736e277420657869737400000000000000000000000000000000600082015250565b6000612f81601083612937565b9150612f8c82612f4b565b602082019050919050565b60006020820190508181036000830152612fb081612f74565b9050919050565b600081905092915050565b7f22636f70797269676874223a2022486f6c646572206f662074686973204e465460008201527f206f776e732069747320636f707972696768742e2053616c65206f662074686960208201527f73204e46542061737369676e7320636f7079726967687420746f20627579657260408201527f2e20427579657220262073656c6c6572206167726565207061796d656e74206f60608201527f6620726f79616c747920746f206d696e746572206f6e2073616c652e22000000608082015250565b6000613090609d83612fb7565b915061309b82612fc2565b609d82019050919050565b60006130b182613083565b9150819050919050565b7f7b226e616d65223a2241575a2023000000000000000000000000000000000000600082015250565b60006130f1600e83612fb7565b91506130fc826130bb565b600e82019050919050565b60006131128261292c565b61311c8185612fb7565b935061312c818560208601612948565b80840191505092915050565b7f3a20000000000000000000000000000000000000000000000000000000000000600082015250565b600061316e600283612fb7565b915061317982613138565b600282019050919050565b7f222c20226465736372697074696f6e223a20224f6e2d636861696e2067656e6560008201527f72617469766520416c69656e20576f726c642e2068747470733a2f2f7777772e60208201527f616c69656e776f726c647a2e78797a20222c2000000000000000000000000000604082015250565b6000613206605383612fb7565b915061321182613184565b605382019050919050565b7f2c20000000000000000000000000000000000000000000000000000000000000600082015250565b6000613252600283612fb7565b915061325d8261321c565b600282019050919050565b7f2c2022696d616765223a22646174613a696d6167652f7376672b786d6c2c0000600082015250565b600061329e601e83612fb7565b91506132a982613268565b601e82019050919050565b7f227d000000000000000000000000000000000000000000000000000000000000600082015250565b60006132ea600283612fb7565b91506132f5826132b4565b600282019050919050565b600061330b826130e4565b91506133178288613107565b915061332282613161565b915061332e8287613107565b9150613339826131f9565b91506133458286613107565b915061335082613245565b915061335c8285613107565b915061336782613291565b91506133738284613107565b915061337e826132dd565b91508190509695505050505050565b7f646174613a6170706c69636174696f6e2f6a736f6e3b6261736536342c000000600082015250565b60006133c3601d83612fb7565b91506133ce8261338d565b601d82019050919050565b60006133e4826133b6565b91506133f08284613107565b915081905092915050565b7f546f6b656e206c696d6974207265616368656400000000000000000000000000600082015250565b6000613431601383612937565b915061343c826133fb565b602082019050919050565b6000602082019050818103600083015261346081613424565b9050919050565b7f5365656420616c72656164792075736564000000000000000000000000000000600082015250565b600061349d601183612937565b91506134a882613467565b602082019050919050565b600060208201905081810360008301526134cc81613490565b9050919050565b600081519050919050565b600082825260208201905092915050565b60006134fa826134d3565b61350481856134de565b9350613514818560208601612948565b61351d81612972565b840191505092915050565b600060808201905061353d6000830187612a73565b61354a6020830186612a73565b6135576040830185612b09565b818103606083015261356981846134ef565b905095945050505050565b60008151905061358381612865565b92915050565b60006020828403121561359f5761359e61282f565b5b60006135ad84828501613574565b91505092915050565b7f4e487b7100000000000000000000000000000000000000000000000000000000600052601160045260246000fd5b60006135f0826129de565b91506135fb836129de565b9250828201905080821115613613576136126135b6565b5b92915050565b7f6c696e6561722d6772616469656e742800000000000000000000000000000000600082015250565b600061364f601083612fb7565b915061365a82613619565b601082019050919050565b7f6465672c20000000000000000000000000000000000000000000000000000000600082015250565b600061369b600583612fb7565b91506136a682613665565b600582019050919050565b7f2030252c20000000000000000000000000000000000000000000000000000000600082015250565b60006136e7600583612fb7565b91506136f2826136b1565b600582019050919050565b7f203335252c200000000000000000000000000000000000000000000000000000600082015250565b6000613733600683612fb7565b915061373e826136fd565b600682019050919050565b7f2031303025290000000000000000000000000000000000000000000000000000600082015250565b600061377f600683612fb7565b915061378a82613749565b600682019050919050565b60006137a082613642565b91506137ac8287613107565b91506137b78261368e565b91506137c38286613107565b91506137ce826136da565b91506137da8285613107565b91506137e582613726565b91506137f18284613107565b91506137fc82613772565b915081905095945050505050565b7f3c646566733e3c636c6970506174682069643d276d6173746572436c6970273e60008201527f3c7265637420783d27302720793d2730272077696474683d273130303027206860208201527f65696768743d2731303030272f3e3c2f636c6970506174683e3c2f646566733e604082015250565b600061388c606083612fb7565b91506138978261380a565b606082019050919050565b60006138ad8261387f565b9150819050919050565b60006138c38287613107565b91506138cf8286613107565b91506138db8285613107565b91506138e78284613107565b915081905095945050505050565b7f3c73766720786d6c6e733d27687474703a2f2f7777772e77332e6f72672f323060008201527f30302f737667272076696577426f783d2730203020313030302031303030272060208201527f7374796c653d276261636b67726f756e642d696d6167653a0000000000000000604082015250565b6000613977605883612fb7565b9150613982826138f5565b605882019050919050565b7f273e000000000000000000000000000000000000000000000000000000000000600082015250565b60006139c3600283612fb7565b91506139ce8261398d565b600282019050919050565b7f3c6720636c69702d706174683d2775726c28236d6173746572436c697029273e600082015250565b6000613a0f602083612fb7565b9150613a1a826139d9565b602082019050919050565b7f3c2f673e3c2f7376673e00000000000000000000000000000000000000000000600082015250565b6000613a5b600a83612fb7565b9150613a6682613a25565b600a82019050919050565b6000613a7c8261396a565b9150613a888286613107565b9150613a93826139b6565b9150613a9f8285613107565b9150613aaa82613a02565b9150613ab68284613107565b9150613ac182613a4e565b9150819050949350505050565b7f4e487b7100000000000000000000000000000000000000000000000000000000600052601260045260246000fd5b7f4e487b7100000000000000000000000000000000000000000000000000000000600052603260045260246000fd5b6000613b37826129de565b9150613b42836129de565b925082613b5257613b51613ace565b5b828204905092915050565b6000613b68826129de565b9150613b73836129de565b9250828202613b81816129de565b91508282048414831517613b9857613b976135b6565b5b5092915050565b6000613baa826129de565b9150613bb5836129de565b9250828203905081811115613bcd57613bcc6135b6565b5b92915050565b6000613bde826129de565b9150613be9836129de565b925082613bf957613bf8613ace565b5b828206905092915050565b7f3c66696c7465722069643d277374617273273e3c666554757262756c656e636560008201527f20626173654672657175656e63793d27302e322720736565643d270000000000602082015250565b6000613c60603b83612fb7565b9150613c6b82613c04565b603b82019050919050565b7f272f3e0000000000000000000000000000000000000000000000000000000000600082015250565b6000613cac600383612fb7565b9150613cb782613c76565b600382019050919050565b7f3c6665436f6c6f724d61747269782076616c7565733d2730203020302039202d60008201527f342030203020302039202d342030203020302039202d3420302030203020302060208201527f31272f3e3c2f66696c7465723e3c726563742077696474683d2731303025272060408201527f6865696768743d273130302527206f7061636974793d27353025272066696c7460608201527f65723d2775726c2823737461727329272f3e0000000000000000000000000000608082015250565b6000613d90609283612fb7565b9150613d9b82613cc2565b609282019050919050565b6000613db182613c53565b9150613dbd8284613107565b9150613dc882613c9f565b9150613dd382613d83565b915081905092915050565b7f3c66696c7465722069643d27706c616e657446696c7465720000000000000000600082015250565b6000613e14601883612fb7565b9150613e1f82613dde565b601882019050919050565b7f3c666554757262756c656e636520747970653d27000000000000000000000000600082015250565b6000613e60601483612fb7565b9150613e6b82613e2a565b601482019050919050565b7f2720626173654672657175656e63793d27302e30300000000000000000000000600082015250565b6000613eac601583612fb7565b9150613eb782613e76565b601582019050919050565b7f20302e3000000000000000000000000000000000000000000000000000000000600082015250565b6000613ef8600483612fb7565b9150613f0382613ec2565b600482019050919050565b7f2720736565643d27000000000000000000000000000000000000000000000000600082015250565b6000613f44600883612fb7565b9150613f4f82613f0e565b600882019050919050565b7f27206e756d4f6374617665733d27000000000000000000000000000000000000600082015250565b6000613f90600e83612fb7565b9150613f9b82613f5a565b600e82019050919050565b7f3c6665446966667573654c69676874696e67206c69676874696e672d636f6c6f60008201527f723d270000000000000000000000000000000000000000000000000000000000602082015250565b6000614002602383612fb7565b915061400d82613fa6565b602382019050919050565b7f2720737572666163655363616c653d2700000000000000000000000000000000600082015250565b600061404e601083612fb7565b915061405982614018565b601082019050919050565b7f3c666544697374616e744c6967687420656c65766174696f6e3d270000000000600082015250565b600061409a601b83612fb7565b91506140a582614064565b601b82019050919050565b7f3c2f6665446966667573654c69676874696e673e000000000000000000000000600082015250565b60006140e6601483612fb7565b91506140f1826140b0565b601482019050919050565b7f3c6665436f6d706f73697465206f70657261746f723d27696e2720696e323d2760008201527f536f7572636547726170686963272f3e00000000000000000000000000000000602082015250565b6000614158603083612fb7565b9150614163826140fc565b603082019050919050565b7f3c2f66696c7465723e0000000000000000000000000000000000000000000000600082015250565b60006141a4600983612fb7565b91506141af8261416e565b600982019050919050565b60006141c582613e07565b91506141d1828c613107565b91506141dc826139b6565b91506141e782613e53565b91506141f3828b613107565b91506141fe82613e9f565b915061420a828a613107565b915061421582613eeb565b91506142218289613107565b915061422c82613f37565b91506142388288613107565b915061424382613f83565b915061424f8287613107565b915061425a82613c9f565b915061426582613ff5565b91506142718286613107565b915061427c82614041565b91506142888285613107565b9150614293826139b6565b915061429e8261408d565b91506142aa8284613107565b91506142b582613c9f565b91506142c0826140d9565b91506142cb8261414b565b91506142d682614197565b91508190509a9950505050505050505050565b7f3c646566733e3c72616469616c4772616469656e742069643d27706c616e657460008201527f4772616469656e74000000000000000000000000000000000000000000000000602082015250565b6000614345602883612fb7565b9150614350826142e9565b602882019050919050565b7f272066783d27353025272066793d27353025273e3c73746f70206f666673657460008201527f3d27000000000000000000000000000000000000000000000000000000000000602082015250565b60006143b7602283612fb7565b91506143c28261435b565b602282019050919050565b7f25272073746f702d636f6c6f723d270000000000000000000000000000000000600082015250565b6000614403600f83612fb7565b915061440e826143cd565b600f82019050919050565b7f27202f3e00000000000000000000000000000000000000000000000000000000600082015250565b600061444f600483612fb7565b915061445a82614419565b600482019050919050565b7f3c73746f70206f66667365743d27000000000000000000000000000000000000600082015250565b600061449b600e83612fb7565b91506144a682614465565b600e82019050919050565b7f3c2f72616469616c4772616469656e743e3c2f646566733e0000000000000000600082015250565b60006144e7601883612fb7565b91506144f2826144b1565b601882019050919050565b600061450882614338565b91506145148288613107565b915061451f826143aa565b915061452b8287613107565b9150614536826143f6565b91506145428286613107565b915061454d82614442565b91506145588261448e565b91506145648285613107565b915061456f826143f6565b915061457b8284613107565b915061458682614442565b9150614591826144da565b91508190509695505050505050565b7f3c636972636c652063783d270000000000000000000000000000000000000000600082015250565b60006145d6600c83612fb7565b91506145e1826145a0565b600c82019050919050565b7f2720000000000000000000000000000000000000000000000000000000000000600082015250565b6000614622600283612fb7565b915061462d826145ec565b600282019050919050565b7f63793d2700000000000000000000000000000000000000000000000000000000600082015250565b600061466e600483612fb7565b915061467982614638565b600482019050919050565b7f723d270000000000000000000000000000000000000000000000000000000000600082015250565b60006146ba600383612fb7565b91506146c582614684565b600382019050919050565b7f66696c7465723d2775726c2823706c616e657446696c74657200000000000000600082015250565b6000614706601983612fb7565b9150614711826146d0565b601982019050919050565b7f29272f3e3c636972636c652063783d2700000000000000000000000000000000600082015250565b6000614752601083612fb7565b915061475d8261471c565b601082019050919050565b7f272063793d270000000000000000000000000000000000000000000000000000600082015250565b600061479e600683612fb7565b91506147a982614768565b600682019050919050565b7f66696c6c3d2775726c2823706c616e65744772616469656e7400000000000000600082015250565b60006147ea601983612fb7565b91506147f5826147b4565b601982019050919050565b7f6f7061636974793d27302e35272f3e0000000000000000000000000000000000600082015250565b6000614836600f83612fb7565b915061484182614800565b600f82019050919050565b6000614857826145c9565b9150614863828b613107565b915061486e82614615565b915061487982614661565b9150614885828a613107565b915061489082614615565b915061489b826146ad565b91506148a78289613107565b91506148b282614615565b91506148bd826146f9565b91506148c98288613107565b91506148d482614745565b91506148e08287613107565b91506148eb82614791565b91506148f78286613107565b915061490282614615565b915061490d826146ad565b91506149198285613107565b915061492482614615565b915061492f826147dd565b915061493b8284613107565b915061494682614615565b915061495182614829565b91508190509998505050505050505050565b7f2000000000000000000000000000000000000000000000000000000000000000600082015250565b6000614999600183612fb7565b91506149a482614963565b600182019050919050565b60006149bb8287613107565b91506149c68261498c565b91506149d28286613107565b91506149dd8261498c565b91506149e98285613107565b91506149f48261498c565b9150614a008284613107565b915081905095945050505050565b6000614a19826129de565b91507fffffffffffffffffffffffffffffffffffffffffffffffffffffffffffffffff8203614a4b57614a4a6135b6565b5b600182019050919050565b7f2c00000000000000000000000000000000000000000000000000000000000000600082015250565b6000614a8c600183612fb7565b9150614a9782614a56565b600182019050919050565b6000614aae8286613107565b9150614ab98261498c565b9150614ac58285613107565b9150614ad082614a7f565b9150614adc8284613107565b9150819050949350505050565b7f20313030302c31303030202d312c313030300000000000000000000000000000600082015250565b6000614b1f601283612fb7565b9150614b2a82614ae9565b601282019050919050565b6000614b418284613107565b9150614b4c82614b12565b915081905092915050565b7f3c66696c7465722069643d276d6f756e7461696e46696c7465722720783d273060008201527f252720793d273025272077696474683d273130302527206865696768743d273160208201527f303025273e3c666554757262756c656e636520747970653d276672616374616c60408201527f4e6f6973652720626173654672657175656e63793d27302e3000000000000000606082015250565b6000614bff607983612fb7565b9150614c0a82614b57565b607982019050919050565b7f2720726573756c743d276e6f69736527206e756d4f6374617665733d2731352760008201527f202f3e3c6665446966667573654c69676874696e6720696e3d276e6f6973652760208201527f206c69676874696e672d636f6c6f723d2777686974652720737572666163655360408201527f63616c653d270000000000000000000000000000000000000000000000000000606082015250565b6000614cbd606683612fb7565b9150614cc882614c15565b606682019050919050565b7f273e3c666544697374616e744c6967687420617a696d7574683d27343527206560008201527f6c65766174696f6e3d27313027202f3e3c2f6665446966667573654c6967687460208201527f696e673e3c6665436f6d706f73697465206f70657261746f723d27696e27206960408201527f6e3d27726970706c65732720696e323d27536f7572636547726170686963272f60608201527f3e3c2f66696c7465723e00000000000000000000000000000000000000000000608082015250565b6000614da1608a83612fb7565b9150614dac82614cd3565b608a82019050919050565b6000614dc282614bf2565b9150614dce8285613107565b9150614dd982614cb0565b9150614de58284613107565b9150614df082614d94565b91508190509392505050565b7f3c646566733e3c6c696e6561724772616469656e742069643d276d6f756e746160008201527f696e4772616469656e74273e3c73746f70206f66667365743d2735252720737460208201527f6f702d636f6c6f723d2700000000000000000000000000000000000000000000604082015250565b6000614e7e604a83612fb7565b9150614e8982614dfc565b604a82019050919050565b7f27202f3e3c73746f70206f66667365743d270000000000000000000000000000600082015250565b6000614eca601283612fb7565b9150614ed582614e94565b601282019050919050565b7f27202f3e3c73746f70206f66667365743d27393525272073746f702d636f6c6f60008201527f723d270000000000000000000000000000000000000000000000000000000000602082015250565b6000614f3c602383612fb7565b9150614f4782614ee0565b602382019050919050565b7f27202f3e3c2f6c696e6561724772616469656e743e3c2f646566733e00000000600082015250565b6000614f88601c83612fb7565b9150614f9382614f52565b601c82019050919050565b6000614fa982614e71565b9150614fb58287613107565b9150614fc082614ebd565b9150614fcc8286613107565b9150614fd7826143f6565b9150614fe38285613107565b9150614fee82614f2f565b9150614ffa8284613107565b915061500582614f7b565b915081905095945050505050565b7f3c66696c7465722069643d2773686164696e6746696c746572273e3c6665547560008201527f7262756c656e636520747970653d276672616374616c4e6f697365276261736560208201527f4672657175656e63793d27302e30303420302e3031276e756d4f63746176657360408201527f3d273227736565643d2700000000000000000000000000000000000000000000606082015250565b60006150bb606a83612fb7565b91506150c682615013565b606a82019050919050565b7f272f3e3c6665436f6c6f724d61747269782076616c7565733d2730203120302060008201527f30202d342031203120302030202d342031203020302030202d3420302031203160208201527f2030202d31272f3e3c6665436f6d706f73697465206f70657261746f723d276960408201527f6e2720696e3d27726970706c65732720696e323d27536f75726365477261706860608201527f6963272f3e3c2f66696c7465723e000000000000000000000000000000000000608082015250565b600061519f608e83612fb7565b91506151aa826150d1565b608e82019050919050565b60006151c0826150ae565b91506151cc8284613107565b91506151d782615192565b915081905092915050565b7f3c706f6c79676f6e20706f696e74733d27000000000000000000000000000000600082015250565b6000615218601183612fb7565b9150615223826151e2565b601182019050919050565b7f2766696c7465723d2775726c28236d6f756e7461696e46696c74657229272f3e60008201527f3c706f6c79676f6e20706f696e74733d27000000000000000000000000000000602082015250565b600061528a603183612fb7565b91506152958261522e565b603182019050919050565b7f2766696c6c3d2775726c28236d6f756e7461696e4772616469656e7429276f7060008201527f61636974793d27302e0000000000000000000000000000000000000000000000602082015250565b60006152fc602983612fb7565b9150615307826152a0565b602982019050919050565b7f272f3e3c706f6c79676f6e20706f696e74733d27000000000000000000000000600082015250565b6000615348601483612fb7565b915061535382615312565b601482019050919050565b7f2766696c7465723d2775726c282373686164696e6746696c74657229276f706160008201527f636974793d27302e35272f3e0000000000000000000000000000000000000000602082015250565b60006153ba602c83612fb7565b91506153c58261535e565b602c82019050919050565b60006153dc828a613107565b91506153e88289613107565b91506153f48288613107565b91506153ff8261520b565b915061540b8287613107565b91506154168261527d565b91506154228286613107565b915061542d826152ef565b91506154398285613107565b91506154448261533b565b91506154508284613107565b915061545b826153ad565b915081905098975050505050505050565b7f3c66696c7465722069643d2766696c746572273e000000000000000000000000600082015250565b60006154a2601483612fb7565b91506154ad8261546c565b601482019050919050565b7f3c666554757262756c656e636520747970653d276672616374616c4e6f69736560008201527f2720000000000000000000000000000000000000000000000000000000000000602082015250565b6000615514602283612fb7565b915061551f826154b8565b602282019050919050565b7f626173654672657175656e63793d270000000000000000000000000000000000600082015250565b6000615560600f83612fb7565b915061556b8261552a565b600f82019050919050565b7f2700000000000000000000000000000000000000000000000000000000000000600082015250565b60006155ac600183612fb7565b91506155b782615576565b600182019050919050565b7f6e756d4f6374617665733d273230302720736565643d27000000000000000000600082015250565b60006155f8601783612fb7565b9150615603826155c2565b601782019050919050565b7f27202f3e3c2f66696c7465723e3c726563742077696474683d2731303025272060008201527f6865696768743d273130302527206f7061636974793d27000000000000000000602082015250565b600061566a603783612fb7565b91506156758261560e565b603782019050919050565b7f25272066696c7465723d2775726c282366696c74657229272f3e000000000000600082015250565b60006156b6601a83612fb7565b91506156c182615680565b601a82019050919050565b60006156d782615495565b91506156e282615507565b91506156ed82615553565b91506156f98286613107565b91506157048261559f565b915061570f826155eb565b915061571b8285613107565b91506157268261565d565b91506157328284613107565b915061573d826156a9565b9150819050949350505050565b7f7267622800000000000000000000000000000000000000000000000000000000600082015250565b6000615780600483612fb7565b915061578b8261574a565b600482019050919050565b7f2900000000000000000000000000000000000000000000000000000000000000600082015250565b60006157cc600183612fb7565b91506157d782615796565b600182019050919050565b60006157ed82615773565b91506157f98286613107565b915061580482613245565b91506158108285613107565b915061581b82613245565b91506158278284613107565b9150615832826157bf565b9150819050949350505050565b7f696e70757420746f6f2062696700000000000000000000000000000000000000600082015250565b6000615875600d83612937565b91506158808261583f565b602082019050919050565b600060208201905081810360008301526158a481615868565b905091905056fe4142434445464748494a4b4c4d4e4f505152535455565758595a6162636465666768696a6b6c6d6e6f707172737475767778797a303132333435363738392b2fa264697066735822122098e3daa354eada4083a15734c919be75134890c22327604eae394438bbeb570764736f6c63430008110033",
  "linkReferences": {},
  "deployedLinkReferences": {}
}